:100000000C9430030C9458030C9458030C9458032C
:100010000C9458030C9458030C9458030C945803F4
:100020000C9458030C9458030C94530D0C94D10D5C
:100030000C9458030C9458030C9458030C945803D4
:100040000C9458030C9458030C9458030C945803C4
:100050000C9458030C9458030C9458030C94090DF9
:100060000C9458030C9458030C9458030C945803A4
:100070000C9458030C9458030C9458030C94580394
:100080000C9458030C9458030C9458030C94580384
:100090000C9458030C9458030C9458030C94580374
:1000A0000C9458030C9458030C945803000000005F
:1000B000000000002A2B28000000000000000000C3
:1000C0000000000000000000000000002C9E9F3196
:1000D000A1A2A3B1A5A6B030363837A4271E1F2091
:1000E000212223242526B7B632A7B2ADD484858633
:1000F0008788898A8B8C8D8E8F9091929394959618
:100100009798999A9B9D9CE5EDE600B8000405063A
:100110000708090A0B0C0D0E0F10111213141516F7
:100120001718191A1B1D1CE4F2E7F000000000006C
:10013000000000002A2B2800000000000000000042
:100140000000000000000000000000002C9E9FA0A6
:10015000E1A2A331A5A6B12D363837A4271E1F2052
:10016000212223242526B7B632A7B2ADDF848586A7
:100170008788898A8B8C8D8E8F9091929394959697
:100180009798999A9B9C9DE5F2E600B800040506B5
:100190000708090A0B0C0D0E0F1011121314151677
:1001A0001718191A1B1C1DE4EEE7000000000000E0
:1001B000000000002A2B28000000000000000000C2
:1001C0000000000000000000000000002C9E9FA026
:1001D000E1A2A331A5A6B12D363837A4271E1F20D2
:1001E000212223242526B7B632A7B2ADDF84858627
:1001F0008788898A8B8C8D8E8F9091929394959617
:100200009798999A9B9C9DE5EDE600B80004050639
:100210000708090A0B0C0D0E0F10111213141516F6
:100220001718191A1B1C1DE4F2E70000000000005B
:10023000000000002A2B2800000000000000000041
:100240000000000000000000000000002C9E9FA0A5
:10025000A1A2A32DA5A6AF2F363837A4271E1F2095
:10026000212223242526B7B632A7B2ADDF848586A6
:100270008788898A8B8C8D8E8F9091929394959696
:100280009798999A9B9C9DE535E600B80004050671
:100290000708090A0B0C0D0E0F1011121314151676
:1002A0001718191A1B1C1DE4B5E700000000000018
:1002B000000000002A2B28000000000000000000C1
:1002C0000000000000000000000000002C3820E0CA
:1002D00030B41E21222D31AE1023B6B7A79E9FA0A9
:1002E000A1A2A3A4A5A63736322EB290E7948586A4
:1002F0008788898A8B8C8D8E8FB391929384959603
:100300009798999D9B9C9AE2E5EDE625E4140506F5
:100310000708090A0B0C0D0E0F33111213041516E2
:100320001718191D1B1C1AE1E3EEDF000000000086
:10033000000000002A2B2800000000000000000040
:100340000000000000000000000000002C9E9FE064
:10035000A1A2A32DA5A6B030363837A4271E1F2092
:10036000212223242526B7B632A7B2ADDF848586A5
:100370008788898A8B8C8D8E8F9091929394959695
:100380009798999A9B9C9DEFF5F000B8000405069C
:100390000708090A0B0C0D0E0F1011121314151675
:1003A0001718191A1B1C1DF4DEF1000000000000D4
:1003B000000000002A2B28000000000000000000C0
:1003C0000000000000000000000000002CA19FDBE6
:1003D000F3A2C69EA5A6F8A0363837A3351E1F2067
:1003E000212223242526B7F6F2A4DDB6D9848586FA
:1003F0008788898A8B8C8D8E8F9091929394959615
:100400009798999A9B9D9CC9D4CAE0B8E4040506C4
:100410000708090A0B0C0D0E0F10111213141516F4
:100420001718191A1B1D1CC5DAD1DE0000000000C8
:10043000000000002A2B280000000000000000003F
:100440000000000000000000000000002C9E9FF44F
:10045000A1A2A32DA5A6B030363837A4271E1F2091
:10046000212223242526B7B632A7B2ADF384858690
:100470008788898A8B8C8D8E8F9091929394959694
:100480009798999A9B9C9DEF35F0AEB800040506AD
:100490000708090A0B0C0D0E0F1011121314151674
:1004A0001718191A1B1C1D00B5000000080B0002CC
:1004B00002020000090400000102020000052400FD
:1004C000100105240101010424020605240600018F
:1004D0000705810310004009040100020A00000022
:1004E00007050202400000070583024000000403E4
:1004F000090412010002EF0201404F1B3780000186
:1005000001020301436F736533440053696D706CDE
:1005100065466164657220283029000000000024CF
:100520000027002A002D00300000000000250028D0
:10053000002B002E003100000000002300260029BF
:10054000002C002F0004040404040304050202022A
:10055000020403020202020606060606060404025C
:100560000202040404080201104080401020408070
:1005700040800802040180402010020110801020F9
:100580004040200000000200090F000003040100A9
:100590000C0000000000000000000000000000004F
:1005A0000000070605040100080A0B0C0D090000F5
:1005B0000000000000002A2B2800000000000000BE
:1005C00000000000000000000000000000002C9E61
:1005D000B4A0A1A2A434A6A7A5AE362D3738271EF5
:1005E0001F20212223242526B333B62EB7B89F849B
:1005F00085868788898A8B8C8D8E8F909192939433
:1006000095969798999A9B9C9D2F3130A3AD350470
:1006100005060708090A0B0C0D0E0F101112131412
:1006200015161718191A1B1C1DAFB1B0B50005011E
:100630000906A1018502050719E029E71500250132
:100640007501950881029501750881039506750865
:10065000150025730507190029738100C0000310D8
:1006600011241FBECFEFDAE0DEBFCDBF11E0A0E066
:10067000B1E0EAE0F3E302C005900D92A036B107C5
:10068000D9F724E0A0E6B1E001C01D92A233B20781
:10069000E1F713E0C0E3D3E004C02197FE010E941C
:1006A0006E19CF32D107C9F70E9471110C948319CA
:1006B0000C940000E2EAF5E0E49190917B008E2F2B
:1006C000880F880F80729F7D892B80937B00E77055
:1006D000E064E0937C0080917A00806480937A00EB
:1006E00080917A0086FDFCCF80917800909179000E
:1006F000089581508F3008F047C0E82FF0E0ED57A3
:10070000FC4F0C946E19A003A403920398039C035E
:10071000C403C403C403A703AD03B103B503BB0300
:10072000C403BF03809180008F7780938000089579
:10073000809180008F7DF9CF80918000877FF5CFF9
:1007400084B58F7784BD089584B58F7DFBCF80916C
:1007500090008F77809390000895809190008F7D16
:10076000F9CF80919000877FF5CF8091C0008F777F
:100770008093C00008958091C0008F7DF9CF809153
:10078000C200877F8093C2000895CF93DF93EDE886
:10079000F5E08491EEE6F5E0D491EFE4F5E0C49164
:1007A000CC23A1F081110E947903EC2FF0E0EE0F31
:1007B000FF1FE95CFA4FA591B491EC91ED2381E024
:1007C00090E009F480E0DF91CF91089580E090E01F
:1007D000FACF1F93CF93DF93282F30E0F901ED5725
:1007E000FA4F8491F901EC59FA4FD491F901EB5B7E
:1007F000FA4FC491CC23A9F0162F81110E947903DE
:10080000EC2FF0E0EE0FFF1FE75DFA4FA591B491DA
:100810008FB7F894EC91111108C0D095DE23DC93CA
:100820008FBFDF91CF911F910895DE2BF8CFCF932B
:10083000DF9390E0FC01EC59FA4F24918B5B9A4FC7
:10084000FC0184918823C9F090E0880F991FFC0176
:10085000E55EFA4FA591B491FC01E75DFA4FC591B1
:10086000D49161110DC09FB7F8948C91209582238B
:100870008C938881282328839FBFDF91CF9108958F
:10088000623051F49FB7F8943C91822F8095832376
:100890008C93E8812E2BEFCF8FB7F894EC912E2B11
:1008A0002C938FBFEACF1F93CF93DF93182FEB01C9
:1008B00061E00E941704209739F460E0812FDF91F6
:1008C000CF911F910C94E903CF3FD10511F461E062
:1008D000F5CFE12FF0E0ED57FA4FE491E150EF3022
:1008E00008F07FC0F0E0E958FB4F0C946E198604C5
:1008F0008E0493049D04A704F104F104F104B104EF
:10090000BB04C504CF04DC04F104E40484B58068AE
:1009100084BDC7BDDF91CF911F91089584B58062DA
:1009200084BDC8BDF7CF809180008068809380002F
:10093000D0938900C0938800EDCF809180008062C1
:1009400080938000D0938B00C0938A00E3CF809186
:100950008000886080938000D0938D00C0938C00CD
:10096000D9CF80919000806880939000D0939900B7
:10097000C0939800CFCF80919000806280939000C8
:10098000D0939B00C0939A00C5CF8091900088605F
:1009900080939000D0939D00C0939C00BBCF80912A
:1009A000C00080688093C0008091C0008F7B8093DE
:1009B000C000C093CF00AECF8091C0008062809312
:1009C000C000C093D000A6CF8091C2008860809301
:1009D000C2008091C2008B7F8093C200C093D2007E
:1009E00099CFC038D1050CF072CF67CF3FB7F894DC
:1009F0008091BE029091BF02A091C002B091C1024D
:100A000026B5A89B05C02F3F19F00196A11DB11D69
:100A10003FBFBA2FA92F982F8827BC01CD01620FA5
:100A2000711D811D911D42E0660F771F881F991F60
:100A30004A95D1F708958F929F92AF92BF92CF922D
:100A4000DF92EF92FF924B015C010E94F6046B0172
:100A50007C010E94F6046C197D098E099F09683E8D
:100A6000734081059105A8F321E0821A9108A1083D
:100A7000B10888EEC80E83E0D81EE11CF11C811479
:100A80009104A104B10429F7FF90EF90DF90CF907B
:100A9000BF90AF909F908F9008952FB7F89460917A
:100AA000BA027091BB028091BC029091BD022FBF2F
:100AB00008958093E9008091F200882319F08AE379
:100AC0008093E800089583E00C94590540916E01ED
:100AD00050916F0120916C0130916D0142175307C5
:100AE000B4F49091E8009570E1F39091E80092FDE4
:100AF00019C08093F10080916E0190916F01019671
:100B00008F739927892B19F48EEF8093E8008091D9
:100B10006E0190916F01019690936F0180936E0129
:100B200081E0089580E00895EF92FF920F931F9364
:100B3000CF93DF93F82E192FE62E042F81E0860F36
:100B4000880F0E94660583E00E946605CF2DD12F95
:100B5000EC0EFD2EF11CCE15DF05B9F007FF13C01A
:100B6000FE0184910E946605182F80E00E946605B0
:100B7000812321968111EFCFDF91CF911F910F91AA
:100B8000FF90EF9008958881EDCF81E0F5CFDF925F
:100B9000EF92FF920F931F93CF93DF93D82E8A018A
:100BA000EB017B01E40EF51ECE15DF0559F0D7FEF3
:100BB00012C0FE0184910E94660521968111F4CF36
:100BC0000FEF1FEFC801DF91CF911F910F91FF90A1
:100BD000EF90DF9008958881EECF2FB7F89487705B
:100BE0008093E9009091E800892F807295FF04C0FE
:100BF0009091F20080E4891B2FBF08957F928F921D
:100C00009F92AF92BF92CF92DF92EF92FF920F939B
:100C10001F93CF93DF93C82E8B017A0180917501CA
:100C2000811110C08FEF9FEFDF91CF911F910F9136
:100C3000FF90EF90DF90CF90BF90AF909F908F90FC
:100C40007F9008958091730180FF05C08091E0003E
:100C500082608093E000CE2DDF2DD12C8AEFB82E5C
:100C60008C2D8770982E8C2D8072882E8C2D807400
:100C7000782E9AE3A92E209719F4DD2009F452C0AA
:100C80008C2D0E94ED0581110AC0BA94BB2051F24F
:100C900061E070E080E090E00E941B05ECCF8C17D3
:100CA0001D0611F00CF08C2F9FB7F8949092E9007C
:100CB0002091E80025FD02C09FBFDDCF282F30E046
:100CC000C21BD30B882029F08150A0F01092F100B4
:100CD000FBCFF801C7FC0AC0815050F0419140930E
:100CE000F100FACF44914093F10031968150D0F752
:100CF000020F131FDD2021F0A092E800D12CDCCFE1
:100D00008091E80085FD07C0A092E800DD24D3941F
:100D1000209791F2F3CF209779F6772069F2A0928D
:100D2000E800CACF5D9A84E680937201C7017CCF48
:100D300090917501992319F13FB7F89487708093CA
:100D4000E9008091F20090E0481759070CF4CA01BD
:100D5000282FFB0154E6215038F0289A5093710156
:100D60004091F1004193F7CF009739F02091F200C4
:100D7000211103C02BE62093E8003FBF08958FEFB9
:100D80009FEF08959FB7F89487708093E900809152
:100D9000F2009FBF0895615030F02091F100FC01F6
:100DA00020830196F8CF289A84E6809371010895F4
:100DB0008091640181110DC082E08093600184E024
:100DC00080936101109263011092620181E080932F
:100DD000640180E691E008950F931F93CF93DF9312
:100DE0001F92CDB7DEB782E0898342E450E06CEA1F
:100DF00074E080E80E94C7050E94D806DC011296C4
:100E00000D911C910115110589F0D801ED91FC910E
:100E10000280F381E02DBE016F5F7F4FC80109950D
:100E200097FD04C0F80100851185ECCF89810F90F2
:100E3000DF91CF911F910F910895CF93DF93FC0124
:100E4000DB01818114963C911497682F630F7727FB
:100E5000771F683071059CF5C281D381209739F5E1
:100E6000B383A283908112969C93129713968C93CE
:100E7000139715968C911597890F808390E080E0E9
:100E8000831708F52181C22FD0E0BE0160507F4F4B
:100E900016964D915C911797480F591FEA014881AA
:100EA000EB0148832F5F21830196EACFEA01488551
:100EB000598541155105D1F7B987A887D3CF80E06F
:100EC000DF91CF91089581E0FBCFEF92FF921F93C6
:100ED000CF93DF931F92CDB7DEB77C0180912F03B4
:100EE00081112CC011E0109322031093230388E298
:100EF00093E090932503809324031092270310928C
:100F0000260387E491E090931F0380931E031092C1
:100F10002A031092290310922C0310922B03109392
:100F20002D0310932E0381EC809328030E94D80692
:100F30006EE173E00E941D0710932F0382E0898306
:100F400041E050E0BE016F5F7F4F809121030E941E
:100F5000FE0597FD08C08091210348E050E0B701ED
:100F600080640E94FE050F90DF91CF911F91FF904A
:100F7000EF900895CF93DF93EC01809112018823C5
:100F800031F083E00E94FE051816190634F081E066
:100F900090E09B838A8380E090E0DF91CF91089579
:100FA000CF93DF931F92CDB7DEB76983DC01ED915C
:100FB000FC910280F381E02D41E050E0BE016F5FC3
:100FC0007F4F09950F90DF91CF91089583E00E94A4
:100FD000ED0590E00895CF93DF931F92CDB7DEB774
:100FE000FC018485958597FD08C02FEF3FEF35877D
:100FF00024870F90DF91CF91089541E050E0BE012A
:101000006F5F7F4F82E00E949806019719F48981F3
:1010100090E0EFCF8FEF9FEFECCF0F931F93CF9325
:10102000DF931F92CDB7DEB78C01FC0184859585D7
:1010300097FF0FC041E050E0BE016F5F7F4F82E03D
:101040000E949806019771F4898190E0F8019587D4
:101050008487F801848595850F90DF91CF911F914A
:101060000F9108958FEF9FEFF1CFFC018485958557
:1010700097FD06C082E00E94C20690E001960895A6
:1010800082E00E94C20690E0089590E080E008951A
:1010900080E008950F931F93CF93DF93CDB7DEB712
:1010A000C456D1090FB6F894DEBF0FBECDBFFC0108
:1010B000DB019C919E5F9C939E01295F3F4F8AE5D7
:1010C000D9011D928A95E9F788E089838BE08A83AC
:1010D00022E02C8391E09D839E8339E0398764E090
:1010E0006A879E879F873A8B44E24B8B9C8BA0E05C
:1010F000B1E0BE8BAD8B09E010E0188F0F8B998F9C
:101100003B8F6C8F2F8F98A353E059A387E08CA35C
:101110004DA39EA3B8A7AFA3A1E4B0E0BAA7A9A727
:1011200086E08BA74CA72DA79EA79FA789AB4AABAC
:101130002BAB2CAB2DAB3FAB48AF59AF9AAF5BAFEE
:101140009CAF2DAF9EAF21963FAF219722964FAF18
:10115000229723965FAF239724962FAF2497259647
:101160006FAF259726969FAF269727969FAF279715
:1011700028969FAF28972A963FAF2A9745E02B964F
:101180004FAF2B972D962FAF2D9760E470E02F96E1
:101190007FAF6EAF2F9763964FAF639785E26496EC
:1011A0008FAF649765969FAF659766969FAF66977A
:1011B00067969FAF679768963FAF689769964FAFFE
:1011C00069976B962FAF6B976D967FAF6EAF6D97EC
:1011D000A1964FAFA197A2968FAFA297A3969FAF6C
:1011E000A397A4969FAFA497A5965FAFA59792816A
:1011F0009B839B879F5F9A8F9D8F83812C968FAF58
:101200002C978F5F80686A968FAF6A9744E650E0AC
:10121000BE016F5F7F4F80E00E94C705CC59DF4F52
:101220000FB6F894DEBF0FBECDBFDF91CF911F91F7
:101230000F910895DC01FB0112962C911297848185
:1012400095812817190641F491818081813A31F402
:101250009D7F81E0913009F080E008958132E1F7CF
:101260009B3029F482811F968C9381E008959A30F7
:1012700099F7828150968C93F8CFDC01FB0188E4CA
:10128000808389E4818384E482831D969C911D97E9
:101290009F709F5B93831D968D919C9124E0969502
:1012A00087952A95E1F78F708F5B848385E0089599
:1012B000EF92FF920F931F93CF93DF93FB01208157
:1012C000213871F52381223259F5DC0112964C91B7
:1012D000248135814217130619F5EC010B851C8515
:1012E000F12CE12C0115110589F0F801448155819B
:1012F0006281738180E80E94C7058F3F980749F09B
:10130000E80EF91ED8010D911C91ECCF81E08F877A
:10131000C701DF91CF911F910F91FF90EF9008953A
:1013200090E080E0F6CFCF93DF93CDB7DEB769973B
:101330000FB6F894DEBF0FBECDBFFC01DB018C9170
:101340008F5F8C939E012D5F3F4F8DE0D9011D92E1
:101350008A95E9F729E0298384E08A8391E09D83D7
:1013600083E08E832A8721E22B879C879D879F8736
:1013700022E2288B27E02B8B25E02C8B8E8B20E420
:1013800030E0388F2F8B998F82818B83958586856E
:10139000998B8A8B838180688D8B49E150E0BE01F7
:1013A0006F5F7F4F80E00E94C70569960FB6F89483
:1013B000DEBF0FBECDBFDF91CF910895CF92DF92F8
:1013C000EF92FF920F931F93CF93DF936C01EB018A
:1013D0007B01E40EF51E10E000E0CE15DF0581F084
:1013E00069916D30D1F3D601ED91FC910190F081BE
:1013F000E02DC6010995892B19F00F5F1F4FEDCF26
:10140000C801DF91CF911F910F91FF90EF90DF9076
:10141000CF900895EF92FF921F93CF93DF93EC014B
:10142000162FE8E7E60F683888F4862F90E067FF0C
:1014300050C0FC01E058F10921E030E001C0220F6A
:10144000EA95EAF78C81822B8C83E0E08E818E17FF
:10145000D9F08F81E817C1F08885E817A9F0898550
:10146000E81791F08A85E81779F08B85E81761F025
:10147000DE01169690E080E02D9121115EC08C0F68
:101480009D1FDC011696EC93CE0104960E94650721
:10149000EE24E394F12C183848F11858DE0186E068
:1014A000112341F016969C911697191303C01696B6
:1014B0001C921697815011968111F2CFCE0104969D
:1014C0000E946507C701DF91CF911F91FF90EF90B8
:1014D0000895EC85FD85E80FF91FE491E11119C02D
:1014E00081E090E09B838A83F12CE12C812F90E0B6
:1014F00017FF2FC0FC01E058F10981E090E001C026
:10150000880FEA95EAF780959C8189238C8310E007
:10151000C5CF8E2F807C803C49F48C8180648C8385
:10152000EF73E23309F092CFE4E690CFE7FFF9CF13
:101530008C8182608C83EF77F4CF019686309105A1
:1015400009F09ACF81E090E09B838A83F12CE12C13
:10155000A2CFEC85FD85E80FF91F1491112309F442
:10156000B1CF812F807C803C49F48C818F7B8C8330
:101570001F73123309F092CF14E690CF17FFF9CF03
:101580008C818D7F8C831F77F4CF089590E080E06D
:101590000895809114018430A9F48091B40290E000
:1015A000FC01ED56FD4F20812093A302FC01E5577D
:1015B000FD4F20812093A2028D579D4FFC01808119
:1015C0008093820208954F925F926F927F928F92E2
:1015D0009F92AF92BF92CF92DF92EF92FF920F93C2
:1015E0001F93CF93A82EB62EC42F6801790120E057
:1015F00030E0A901C701B8010E94021887FD6EC042
:1016000020E030E040E85FE3C701B8010E94E8183D
:1016100018160CF467C06A2D70E090E080E00E941C
:101620003818A70196010E94ED189B01AC0160E0FB
:1016300070E08FE793E40E9495172B013C016B2D1E
:1016400070E090E080E00E943818A70196010E94A7
:10165000ED189B01AC0160E070E08FE793E40E941D
:1016600095174B015C016C2F70E090E080E00E94C8
:101670003818A70196010E94ED189B01AC0160E0AB
:1016800070E08FE793E40E9495176B017C01C30122
:10169000B2010E94071870E083E00E945304C50164
:1016A000B4010E94071870E085E00E945304C7014E
:1016B000B6010E94071870E086E0CF911F910F914C
:1016C000FF90EF90DF90CF90BF90AF909F908F9062
:1016D0007F906F905F904F900C945304C12CD12C4D
:1016E000760199CFC12CD12C80E8E82E8FE3F82E1B
:1016F00092CF0F931F938A019B018D3008F040C059
:10170000E82FF0E0EA57F44F0C946E19930B970B07
:101710009A0B9D0BA00BA40BA60BA90BAB0BAD0B4F
:10172000B50BB90BBD0B4BEC60EC8FEF19C040E073
:1017300060E0FBCF40E062E3F8CF40E069E6F5CF40
:1017400040E06FEF80E00CC04FEFFBCF4FEF60E069
:10175000F9CF4FEFEDCF42E3EECF4FEF66E98DEAE1
:101760000E94E30A1F910F91089543E16EE18BE817
:10177000F7CF40E96FEF80E9F3CF46E960E5D5CFD9
:1017800040E0E5CFCF93C091820240E050E060E8B6
:101790007FE38C2F0E94790B64E670E080E090E09C
:1017A0000E941B058091B00240E050E0BA01811117
:1017B00004C04DEC5CEC6CEC7EE38C2FCF910C9470
:1017C000790BE0917E02E930A0F4F0E0E651F44FAD
:1017D0000C946E19F30BFA0BFD0B000C030C060CAA
:1017E000090C0C0C0F0C8EEA95E090935203809339
:1017F000510308958CE294E0F8CF8CEA93E0F5CFA2
:101800008CE293E0F2CF8CEA92E0EFCF8CE292E0B0
:10181000ECCF8CEA91E0E9CF8CE291E0E6CF8CEA64
:1018200090E0E3CF0F931F93CF93DF9300D000D0CE
:10183000CDB7DEB78C01262FFC01848195813681DE
:10184000303FD9F0009711F4208704C08130910512
:1018500081F46187F8018481958101969583848361
:101860000F900F900F900F90DF91CF911F910F91DC
:101870000895029779F76287EDCF603F49F4838539
:10188000F0E18F9FC00111248460F8018783DCCFD1
:1018900063E070E00E945A19AC01273F39F4938548
:1018A0009295907F85E0840F982B9783F8014115DE
:1018B000510521F4208712861186CCCF4130510585
:1018C00019F421871286C6CF2287273F19F2908507
:1018D0008185378139839A838B832C83809115038B
:1018E00044E050E0BE016F5F7F4F8F5F0E94FE05B6
:1018F000809115038F5F0E945905ACCFFF920F9323
:101900001F93CF93DF9300D000D0CDB7DEB7215027
:10191000203108F054C0042FF62E182FE0918003D8
:10192000F09181038683A82FA295AF70A750BB0BBF
:10193000AA0FBB1FAB5EBE4F838590E1899FA001BC
:10194000112411968C91842B878312861186108620
:1019500015821482612F622B809180039091810304
:101960000E94120C6F2D6F778091800390918103FC
:101970000E94120C103C41F0602F6F778091800321
:10198000909181030E94120CE0918003F0918103F9
:10199000208591858285378139832A839B838C8337
:1019A0008091150344E050E0BE016F5F7F4F8F5F71
:1019B0000E94FE05809115038F5F0E9459050F90CC
:1019C0000F900F900F90DF91CF911F910F91FF908B
:1019D000089584E0EBE5F1E0DB0101900D928A953A
:1019E000E1F784E008951F93CF93DF93EC01162F66
:1019F0000E942F17181739F0612FCE01DF91CF9178
:101A00001F910C943717DF91CF911F9108950C947B
:101A10002F171F920F920FB60F9211242F933F93FF
:101A20008F939F93AF93BF938091BA029091BB0223
:101A3000A091BC02B091BD023091B90223E0230F06
:101A40002D3758F50196A11DB11D2093B902809341
:101A5000BA029093BB02A093BC02B093BD028091E6
:101A6000BE029091BF02A091C002B091C102019646
:101A7000A11DB11D8093BE029093BF02A093C0022E
:101A8000B093C102BF91AF919F918F913F912F91E0
:101A90000F900FBE0F901F90189526E8230F029607
:101AA000A11DB11DD2CF1F920F920FB60F9211241C
:101AB0002F933F934F935F936F937F938F939F9356
:101AC000AF93BF93CF93EF93FF93C091E1008091C9
:101AD000E100837F8093E100C3FF0FC01092E90013
:101AE00081E08093EB001092EC0082E38093ED00A4
:101AF0001092750188E08093F000C2FF1BC083E064
:101B00000E94590580917201882341F080917201F1
:101B1000815080937201811101C05D9880917101A3
:101B2000882341F08091710181508093710181116E
:101B300001C02898C4FF23C08091E2008E7E81609E
:101B40008093E2008091E1008F7E8093E10080919C
:101B500073018E7E806180937301FF91EF91CF912D
:101B6000BF91AF919F918F917F916F915F914F91B5
:101B70003F912F910F900FBE0F901F901895C0FFAF
:101B8000ECCF8091E2008E7E80618093E2008091B4
:101B9000E1008E7E8093E100809173018E7E8160F2
:101BA000DACF1F920F920FB60F921124CF92DF92CD
:101BB000EF92FF920F931F932F933F934F935F9357
:101BC0006F937F938F939F93AF93BF93EF93FF9305
:101BD000CF93DF93CDB7DEB76C97DEBFCDBF10924A
:101BE000E9008091E80083FF25C068E0CE014596BA
:101BF0000E94CB0682EF8093E8008D8987FF39C071
:101C00009091E80090FFFCCF982F907609F034C1B6
:101C10009E894F89588D2F89F88C911131C0803859
:101C200061F5809174018093F1001092F1008EEFC4
:101C30008093E8006C960FB6F894DEBF0FBECDBF60
:101C4000DF91CF91FF91EF91BF91AF919F918F91D4
:101C50007F916F915F914F913F912F911F910F91C4
:101C6000FF90EF90DF90CF900F900FBE0F901F90DE
:101C700018959EEF9093E800C7CF1092F100D5CF52
:101C8000913059F48111D3CF4130510581F68091C3
:101C900074018D7F80937401CACF933049F4811110
:101CA000C6CF4130510519F6809174018260F2CFA0
:101CB000953041F48091E80080FFFCCF20682093AC
:101CC000E300B5CF963009F0A9C00B8D1C8D22E042
:101CD0001092E90010926F0110926E01F2122EC064
:101CE00010926D0110926C010E94EC061F8299E027
:101CF0009983FA8291E09E8390EA98879AEF998778
:101D000020916E0130916F01275F3F4F3C832B8301
:101D10008D831092E90010926F0110926E01109362
:101D20006D0100936C0149E050E0BE016F5F7F4F91
:101D300080E00E94C7050E94EC0679CF10936D01E8
:101D400000936C010E94D806DC0112960D911C9143
:101D50000115110509F451C1D801ED91FC910480E0
:101D6000F581E02DBE016B5E7F4FC801099500979C
:101D700009F03EC1F80100851185EACFF3E0FF12BA
:101D80000EC08F89882309F440C0823061F440E896
:101D90006FE08BE095E00E949405811148CF81E2CD
:101DA0008093EB0047CF813029F440E866E084E07F
:101DB00095E0F1CF833099F70E94D806DC011296A6
:101DC000ED90FC908E010F5F1F4F6801E114F1044C
:101DD00079F0D701ED91FC910680F781E02DB801F3
:101DE000C7010995080F111DF701E084F184EECFBA
:101DF000D8011C92F60101900020E9F73197BF014C
:101E00006C197D0940E0C601C6CF6EEE74E0FB019F
:101E1000449150E080E80E94C70509CF973009F44B
:101E2000BECF983021F481E08093F10000CF99304B
:101E300009F0FDCE837009F0B2CFE1E0F1E081E07E
:101E400031E096E32191222371F08093E9003093F1
:101E5000EB00DF0111972C912093EC009093ED00A3
:101E60008F5F873079F78EE78093EA001092EA005F
:101E70008F8980937501DBCE8B8D9C8D1092E9004C
:101E800010926F0110926E0190936D0180936C011E
:101E9000898D811192C08E899D89913A49F4813250
:101EA00009F07DCF47E050E06BE071E080E0B3CF18
:101EB000913209F074CF833269F48F89988DB0E044
:101EC000A0E08093070190930801A0930901B093CB
:101ED0000A01ADCE803269F48091E80082FFFCCF28
:101EE00067E08BE091E00E94CB068BEF8093E800E7
:101EF0009ECE823209F09BCE8F8980931201EEEF45
:101F0000FFE7859194918B3F9C4D51F1E0E0F8E023
:101F100080910B0190910C01A0910D01B0910E01E7
:101F2000803B9440A105B105F1F48091120180FD40
:101F30001AC0EE3F8AE0F80789F587E797E79183B3
:101F40008083809160008093700188E19BE00FB6F0
:101F5000F894A895809360000FBE9093600067CEC0
:101F6000EEEFFAE0D5CF808191818737974709F06E
:101F70005ECEA8958091600088618093600080911A
:101F8000700180936000EE3F2AE0F20789F08091B3
:101F9000FE0A9091FF0A9183808349CE80819181CE
:101FA0008737980751F29093FF0A8093FE0AC5CFB6
:101FB0001092FF0A1092FE0A3ACE0E94D806DC0167
:101FC00012960D911C910115110509F4E8CED80166
:101FD000ED91FC910190F081E02DBE016B5E7F4F91
:101FE000C8010995811123CEF80100851185EBCF39
:101FF000181619060CF41BCED2CEF1E0FF12BECE9D
:1020000062EF74E004CFCF931092C5021092C40225
:1020100088EE93E0A0E0B0E08093C6029093C70200
:10202000A093C802B093C90289E291E09093C302E1
:102030008093C2028FEF9FEF9093CF028093CE02E6
:1020400082E080931603809317038CE193E09093D2
:1020500019038093180310921B0310921A038BE349
:1020600091E0909313038093120380E880931C0304
:1020700081E880931D030E94D80662E173E00E940C
:102080001D07109248031092470383E591E0909357
:1020900046038093450380913D03811113C0109244
:1020A0003803109237038EE296E090933A038093C0
:1020B00039038FE290E090933C0380933B0381E0EF
:1020C00080933D0380912F0381112CC0C1E0C09308
:1020D0002203C093230388E293E090932503809327
:1020E0002403109227031092260387E491E0909333
:1020F0001F0380931E0310922A031092290310924B
:102100002C0310922B03C0932D03C0932E0381EC5C
:10211000809328030E94D8066EE173E00E941D0799
:10212000C0932F03E0912903F0912A03309709F01F
:10213000CFC087E393E090932A0380932903809193
:102140002B0390912C0320913B0330913C03820F91
:10215000931F90932C0380932B038EEA95E090932A
:1021600052038093510310923104809155038F5F85
:102170008093550380915303909154038160909311
:1021800054038093530310925703109256031092F6
:1021900059031092580310925B0310925A03109245
:1021A0005D0310925C0310925F0310925E03109225
:1021B0006103109260031092630310926203109205
:1021C00065031092640310926703109266031092E5
:1021D00069031092680310926B0310926A031092C5
:1021E0006D0310926C0310926F0310926E031092A5
:1021F0007103109270031092730310927203109285
:102200007503109274031092770310927603109264
:1022100079031092780310927B0310927A03109244
:102220007D0310927C0310927F0310927E0386E25E
:1022300094E0909381038093800310928203109224
:1022400083031092840310928903109288031092E2
:102250008B0310928A038FEF9FEF90938D038093EF
:102260008C0390938F0380938E0383E0809390037D
:102270001092910310929203109293031092940380
:1022800010921504E5E9F3E080E8DF011D928A95DC
:10229000E9F7109218041092190410921A0410927F
:1022A0001B0410921C0410921D0410921E04109224
:1022B0001F04109220041092210410922204109204
:1022C00023041092240410922504CF910895FC0158
:1022D000808191810097D9F787E393E09183808390
:1022E0002ECFCF93DF9300D000D0CDB7DEB7789458
:1022F00084B5826084BD84B5816084BD85B582600B
:1023000085BD85B5816085BD80916E0081608093BB
:102310006E00109281008091810082608093810024
:102320008091810081608093810080918000816034
:1023300080938000809191008260809391008091D1
:1023400091008160809391008091900081608093E2
:1023500090008091C10084608093C1008091C10091
:1023600082608093C1008091C10081608093C10030
:102370008091C30081608093C3008091C00082601F
:102380008093C0008091C20081608093C2008091E0
:102390007A00846080937A0080917A0082608093D2
:1023A0007A0080917A00816080937A0080917A002F
:1023B000806880937A0010927501109274011092D7
:1023C00073018091D70081608093D70080EA809369
:1023D000D80089B5806189BD89B5826089BD09B49D
:1023E00000FEFDCF61E070E080E090E00E941B0500
:1023F0008091D8008F7C80618093D8008091E0002C
:10240000807F8093E0008091E1008E7E8093E100E8
:102410008DE08093E200559A209A5D98289860E0BC
:102420008EE10E94170460E081E10E94170483E0BE
:102430000E94590562E08AE00E94170461E089E089
:102440000E94170461E083E00E94170461E085E0C8
:102450000E94170461E086E00E94170461E089E0B1
:102460000E94E90390E080E00E94070D80938102C2
:102470008F3FA9F423E932E0ABE8B2E043E852E051
:1024800080E097E0F90181939F019D93FA01819388
:10249000AF018F5F8830B1F71092B40261C082E360
:1024A00090E00E94070D182F809314018CE590E0B6
:1024B0000E94070D91E0811101C090E09093AD0260
:1024C0008BE590E00E94070D91E0811101C090E042
:1024D0009093B00284E690E00E94070D8093130170
:1024E0008FE590E00E94070D8093B402123009F44A
:1024F0005AC1133009F49EC1113009F0C4C18CE3F4
:1025000090E00E94070D8093A3028DE390E00E946B
:10251000070D8093A2028EE390E00E94070D809346
:10252000820280E590E00E94070D082F80938002D0
:1025300081E590E00E94070D182F80937F0283E6CB
:1025400090E00E94070D80937E020E94E10BF0E86C
:102550001F9FC0011124802B9093AB028093AA028D
:102560000E94C90A0E94C20B0E945A039093AF02B4
:102570008093AE02E8EE2E2EE3E03E2E412C512C4D
:10258000F2E0FF2EA8EE6A2EA3E07A2E80911401CD
:10259000843021F50E944D050091B5021091B602DC
:1025A0002091B7023091B802601B710B820B930B24
:1025B000613375478105910508F449C00E944D05B6
:1025C0006093B5027093B6028093B7029093B802FD
:1025D0006091B4028FE590E00E94F30C80911401A9
:1025E0008230A9F50E944D050091B5021091B60206
:1025F0002091B7023091B802601B710B820B930BD4
:10260000613375478105910510F10E944D05609376
:10261000B5027093B6028093B7029093B8026091AE
:10262000B3028AE590E00E94F30C6091B2028DE55E
:1026300090E00E94F30C6091B1028EE590E00E9460
:10264000F30C6091B00281E690E00E94F30C80915F
:10265000760290917702A0917802B0917902409130
:102660007A0250917B0260917C0270917D02841B02
:10267000950BA60BB70B8F739927AA27BB27892B1E
:102680008A2B8B2B09F427C180917A0290917B02CF
:10269000A0917C02B0917D02880F991F880F991F2D
:1026A000FC01EA58FE4F10819180C280D380409196
:1026B0007602509177026091780270917902809150
:1026C0007A0290917B02A0917C02B0917D02481722
:1026D00059076A077B07B9F080917A0290917B02D3
:1026E000A0917C02B0917D020196A11DB11D8F7356
:1026F0009927AA27BB2780937A0290937B02A09305
:102700007C02B0937D020E945A032091AE02309168
:10271000AF02821B930B53E0959587955A95E1F78D
:10272000820F931F893EE3E09E070CF039C190931E
:10273000AF028093AE02A091AE02B091AF02809141
:10274000AD02811132C12FE730E00E947C19A20155
:1027500091010E9445172093AC020E94C503892B6A
:1027600009F092C161E089E00E94E90380911401BF
:10277000823009F428C1833009F46DC1813009F039
:1027800073C16091AA0285E493E00E940A0A0E9444
:10279000C503892B09F076C162E370E080E090E028
:1027A0000E941B05F4CF87E490E00E94070D809300
:1027B000A80286E490E00E94070D8093A7028CE3B4
:1027C00090E00E94070D8093A3028DE390E00E94A9
:1027D000070D8093A2028EE390E00E94070D809384
:1027E00082028AE590E00E94070D91E0811101C00C
:1027F00090E09093B3028DE590E00E94070D91E088
:10280000811101C090E09093B2028EE590E00E94A9
:10281000070D91E0811101C090E09093B10281E633
:1028200090E00E94070D91E0811101C090E090932B
:10283000B00296CE87E490E00E94070D8093A80234
:1028400089E490E00E94070D8093A6028CE390E05B
:102850000E94070D8093A3028DE390E00E94070D74
:102860008093A2028EE390E00E94070D8093820283
:102870008AE590E00E94070D91E0811101C090E08F
:102880009093B3026DCEB3E9AB2EB2E0BB2E1BE842
:10289000C12E12E0D12E03E8E02E02E0F02E01E07E
:1028A00010E0C8010E94070DF50181935F01C80186
:1028B00008960E94070DF60181936F01C8014096AA
:1028C0000E94070DF70181937F010F5F1F4F0930B1
:1028D000110539F745CE809115030E94C206182FC5
:1028E000D12CC12C912C882309F4E1CE8090760262
:1028F00090907702A0907802B09079028FEF881ABA
:10290000980AA80AB80A9FE389229924AA24BB241A
:1029100080917A0290917B02A0917C02B0917D021D
:1029200088159905AA05BB0509F4AECE809115035B
:102930000E94C20644E050E0BE016F5F7F4F80916D
:1029400015030E94980604970CF49ECE809176029F
:1029500090917702A0917802B0917902880F991F27
:10296000880F991F8A589E4F49815A816B817C81BB
:10297000FC0140835183628373838092760290923C
:102980007702A0927802B0927902FFEF8F1A9F0A25
:10299000AF0ABF0A2FE382229924AA24BB24B8CF0E
:1029A0007092AF026092AE02C6CE9D01A1E8BFEF69
:1029B0000E947419A20191010E94451721583F4FAE
:1029C0004F4F5F4FC8CE8091B202882331F0909173
:1029D000B00221E092279093B0020091B30290914F
:1029E000B10291110EC09091A902992321F0882380
:1029F00011F0011108C02091A8024FE76091A702D1
:102A000010C0882321F18091A902882301F16091EF
:102A1000A7022091A80281E08093B1021092A9023E
:102A200040E080EB0E947E0C002331F08091B102E7
:102A300091E089278093B1020E944D056093B50211
:102A40007093B6028093B7029093B802A0CE209103
:102A5000A80240E0D3CF2091A80240E06091A602F6
:102A600080EC0E947E0C93CE8091B4028F5F8093A5
:102A7000B40290911301981710F41092B4020E94BE
:102A8000C90ADACF0E94C20B0091AC028091A50264
:102A9000081779F02091A3022F5F8091A402811181
:102AA00066C0402F6091A20280EB0E947E0C0093D2
:102AB000A502112309F453C0F92DF07FAF2EF09336
:102AC000A102292D2F70B22E2093A002C0929F0246
:102AD000D0929E020D2D10E0C80143E09595879598
:102AE0004A95E1F7E82FEF70EE2EE0939D02FD2D61
:102AF000F7708F2EF0939C022FE892120DC081E0A8
:102B0000D8120AC0D0929B0221E047E36AE080E835
:102B10000E947E0C0E94C20B80919B028823F9F0D8
:102B200090E8A9126FC0E2E0DE1225C0B092A302C5
:102B3000C092A2021092A402809113018C1518F485
:102B4000C394C09213010E94C20B0E944D05609372
:102B5000B5027093B6028093B7029093B80280E0FA
:102B600090E0892B09F412CD0E9400000FCD40E0C7
:102B7000602F80EC9ACFFAE0DF1208C0B394B092D5
:102B8000A802C092A702F0921401DDCF2BE0D2126E
:102B900010C081E0B11001C080E08093B202BB2080
:102BA00019F081E08093A902F09214011092B10211
:102BB000CACF88E2D81209C0B394B092A802C092DA
:102BC000A60293E090931401BECFEDE2DE1206C0A0
:102BD00081E08093A402B092A302B5CFF2E3DF12AA
:102BE00007C081E0B11001C080E08093AD02ABCF9F
:102BF0002FE1D2122AC081E0B11001C080E08093A1
:102C0000B302D2CF80ECA8120BC01092A402CA94D7
:102C1000C092130194E0909314010E94C90A93CFCB
:102C2000E0EAAE1203C1882D90E0FC01ED56FD4FA5
:102C3000B082FC01E557FD4FC0828D579D4FFC01CE
:102C4000E082F4E0F0931401E8CF2EE1D21203C049
:102C5000C092820278CF8EE6D81207C08091B0026F
:102C600091E089278093B0026ECF93E0D9126BCFA9
:102C7000809181028F3F41F481E08093810261E085
:102C800090E080E00E94F30C80911401823009F4FE
:102C900049C0833009F47BC0813009F09BC060914A
:102CA000A3028CE390E00E94F30C6091A2028DE3FA
:102CB00090E00E94F30C609182028EE390E00E940B
:102CC000F30C6091800280E590E00E94F30C60912B
:102CD0007F0281E590E00E94F30C60917E0283E622
:102CE00090E00E94F30C6091140182E390E00E9456
:102CF000F30C6091B0028BE590E00E94F30C6091C0
:102D0000AD028CE590E00E94F30C6091A40280E695
:102D100090E00E94F30C6091B4028FE590E00E9475
:102D2000F30C11CF6091A80287E490E00E94F30CAD
:102D30006091A70286E490E00E94F30C6091A302E8
:102D40008CE390E00E94F30C6091A2028DE390E08E
:102D50000E94F30C609182028EE390E00E94F30CDB
:102D60006091B3028AE590E00E94F30C6091B20298
:102D70008DE590E00E94F30C6091B1028EE590E049
:102D80000E94F30C6091B00281E690E0AACF6091BE
:102D9000A80287E490E00E94F30C6091A60289E407
:102DA00090E00E94F30C6091A3028CE390E00E94FB
:102DB000F30C6091A2028DE390E00E94F30C60910D
:102DC00082028EE390E00E94F30C6091B3028AE5E8
:102DD00090E087CF93E9892E92E0992E2BE8A22EDE
:102DE00022E0B22E33E8C32E32E0D32E01E010E011
:102DF000F40161914F01C8010E94F30CF50161914A
:102E00005F01C80108960E94F30CF60161916F0101
:102E1000C80140960E94F30C0F5F1F4F0930110547
:102E200039F76091130184E690E05BCFF0EEAF12CA
:102E30008ACEB0927E02C0928002D0927F020E941F
:102E4000E10B1695102F0027179507950C29109365
:102E5000AB020093AA0281E08093140174CEF99929
:102E6000FECF92BD81BDF89A992780B50895262F8F
:102E7000F999FECF1FBA92BD81BD20BD0FB6F8945F
:102E8000FA9AF99A0FBE01960895052E97FB1EF443
:102E900000940E945C1757FD07D00E94641707FC3E
:102EA00003D04EF40C945C175095409530952195C5
:102EB0003F4F4F4F5F4F0895909580957095619566
:102EC0007F4F8F4F9F4F0895A1E21A2EAA1BBB1B65
:102ED000FD010DC0AA1FBB1FEE1FFF1FA217B307E6
:102EE000E407F50720F0A21BB30BE40BF50B661FFC
:102EF000771F881F991F1A9469F7609570958095C0
:102F000090959B01AC01BD01CF010895A29FB00136
:102F1000B39FC001A39F700D811D1124911DB29F0D
:102F2000700D811D1124911D08955058BB27AA27AB
:102F30000E94AD170C94AE180E94A01838F00E94A1
:102F4000A71820F039F49F3F19F426F40C949D182B
:102F50000EF4E095E7FB0C949718E92F0E94BF1838
:102F600058F3BA17620773078407950720F079F4BE
:102F7000A6F50C94E1180EF4E0950B2EBA2FA02DB7
:102F80000B01B90190010C01CA01A0011124FF2716
:102F9000591B99F0593F50F4503E68F11A16F04011
:102FA000A22F232F342F4427585FF3CF4695379510
:102FB0002795A795F0405395C9F77EF41F16BA0BD5
:102FC000620B730B840BBAF09150A1F0FF0FBB1F83
:102FD000661F771F881FC2F70EC0BA0F621F731FCC
:102FE000841F48F4879577956795B795F7959E3F29
:102FF00008F0B0CF9395880F08F09927EE0F9795BA
:10300000879508950E94731808F481E008950E943E
:10301000C71888F09F5798F0B92F9927B751B0F08B
:10302000E1F0660F771F881F991F1AF0BA95C9F74C
:1030300014C0B13091F00E94E118B1E008950C94F1
:10304000E118672F782F8827B85F39F0B93FCCF3A4
:10305000869577956795B395D9F73EF490958095C9
:10306000709561957F4F8F4F9F4F0895E89409C0E9
:1030700097FB3EF490958095709561957F4F8F4FAB
:103080009F4F9923A9F0F92F96E9BB279395F695C1
:10309000879577956795B795F111F8CFFAF4BB0F3F
:1030A00011F460FF1BC06F5F7F4F8F4F9F4F16C0A3
:1030B000882311F096E911C0772321F09EE8872F2D
:1030C000762F05C0662371F096E8862F70E060E0E9
:1030D0002AF09A95660F771F881FDAF7880F969562
:1030E000879597F90895990F0008550FAA0BE0E806
:1030F000FEEF16161706E807F907C0F012161306BA
:10310000E407F50798F0621B730B840B950B39F4F9
:103110000A2661F0232B242B252B21F408950A265F
:1031200009F4A140A6958FEF811D811D089597F99F
:103130009F6780E870E060E008959FEF80EC08955D
:1031400000240A9416161706180609060895002486
:103150000A9412161306140605060895092E039400
:10316000000C11F4882352F0BB0F40F4BF2B11F474
:1031700060FF04C06F5F7F4F8F4F9F4F089557FDD3
:103180009058440F551F59F05F3F71F04795880FD5
:1031900097FB991F61F09F3F79F08795089512166C
:1031A00013061406551FF2CF4695F1DF08C0161618
:1031B00017061806991FF1CF8695710561050894C9
:1031C0000895E894BB2766277727CB0197F90895E0
:1031D0000E94731808F48FEF08950E9400190C9450
:1031E000AE180E94A01838F00E94A71820F095236E
:1031F00011F00C9497180C949D1811240C94E2185B
:103200000E94BF1870F3959FC1F3950F50E0551FB2
:10321000629FF001729FBB27F00DB11D639FAA272B
:10322000F00DB11DAA1F649F6627B00DA11D661F7A
:10323000829F2227B00DA11D621F739FB00DA11D9B
:10324000621F839FA00D611D221F749F3327A00D55
:10325000611D231F849F600D211D822F762F6A2FF1
:1032600011249F5750409AF0F1F088234AF0EE0F56
:10327000FF1FBB1F661F771F881F91505040A9F783
:103280009E3F510580F00C9497180C94E2185F3F14
:10329000E4F3983ED4F3869577956795B795F795BF
:1032A000E7959F5FC1F7FE2B880F911D9695879537
:1032B00097F90895AA1BBB1B51E107C0AA1FBB1FAA
:1032C000A617B70710F0A61BB70B881F991F5A95B2
:1032D000A9F780959095BC01CD010895EE0FFF1FD1
:1032E0000590F491E02D09940E948617332312F47F
:1032F0008A1B9B0B0C947E190E948617B7FF0895BA
:0A330000821B930B0895F894FFCF91
:10330A0000C18081000000FFFFFFFF00E100000014
:10331A000000000704000080089009A00AB00BC052
:10332A000CD00DE00E00000000D007BA07E60763D4
:10333A00053508EB070D080000000048084A084553
:10334A0008E90C000000001A09930958093D090010
:10335A000000000A0ADE09C60AC50A4D49444900A6
:00000001FF
