:100000000C942F030C9457030C9457030C94570330
:100010000C9457030C9457030C9457030C945703F8
:100020000C9457030C9457030C94CA100C94481169
:100030000C9457030C9457030C9457030C945703D8
:100040000C9457030C9457030C9457030C945703C8
:100050000C9457030C9457030C9457030C94801082
:100060000C9457030C9457030C9457030C945703A8
:100070000C9457030C9457030C9457030C94570398
:100080000C9457030C9457030C9457030C94570388
:100090000C9457030C9457030C9457030C94570378
:1000A0000C9457030C9457030C9457030000000062
:1000B000000000002A2B28000000000000000000C3
:1000C0000000000000000000000000002C9E9F3196
:1000D000A1A2A3B1A5A6B030363837A4271E1F2091
:1000E000212223242526B7B632A7B2ADD484858633
:1000F0008788898A8B8C8D8E8F9091929394959618
:100100009798999A9B9D9CE5EDE600B8000405063A
:100110000708090A0B0C0D0E0F10111213141516F7
:100120001718191A1B1D1CE4F2E7F000000000006C
:10013000000000002A2B2800000000000000000042
:100140000000000000000000000000002C9E9FA0A6
:10015000E1A2A331A5A6B12D363837A4271E1F2052
:10016000212223242526B7B632A7B2ADDF848586A7
:100170008788898A8B8C8D8E8F9091929394959697
:100180009798999A9B9C9DE5F2E600B800040506B5
:100190000708090A0B0C0D0E0F1011121314151677
:1001A0001718191A1B1C1DE4EEE7000000000000E0
:1001B000000000002A2B28000000000000000000C2
:1001C0000000000000000000000000002C9E9FA026
:1001D000E1A2A331A5A6B12D363837A4271E1F20D2
:1001E000212223242526B7B632A7B2ADDF84858627
:1001F0008788898A8B8C8D8E8F9091929394959617
:100200009798999A9B9C9DE5EDE600B80004050639
:100210000708090A0B0C0D0E0F10111213141516F6
:100220001718191A1B1C1DE4F2E70000000000005B
:10023000000000002A2B2800000000000000000041
:100240000000000000000000000000002C9E9FA0A5
:10025000A1A2A32DA5A6AF2F363837A4271E1F2095
:10026000212223242526B7B632A7B2ADDF848586A6
:100270008788898A8B8C8D8E8F9091929394959696
:100280009798999A9B9C9DE535E600B80004050671
:100290000708090A0B0C0D0E0F1011121314151676
:1002A0001718191A1B1C1DE4B5E700000000000018
:1002B000000000002A2B28000000000000000000C1
:1002C0000000000000000000000000002C3820E0CA
:1002D00030B41E21222D31AE1023B6B7A79E9FA0A9
:1002E000A1A2A3A4A5A63736322EB290E7948586A4
:1002F0008788898A8B8C8D8E8FB391929384959603
:100300009798999D9B9C9AE2E5EDE625E4140506F5
:100310000708090A0B0C0D0E0F33111213041516E2
:100320001718191D1B1C1AE1E3EEDF000000000086
:10033000000000002A2B2800000000000000000040
:100340000000000000000000000000002C9E9FE064
:10035000A1A2A32DA5A6B030363837A4271E1F2092
:10036000212223242526B7B632A7B2ADDF848586A5
:100370008788898A8B8C8D8E8F9091929394959695
:100380009798999A9B9C9DEFF5F000B8000405069C
:100390000708090A0B0C0D0E0F1011121314151675
:1003A0001718191A1B1C1DF4DEF1000000000000D4
:1003B000000000002A2B28000000000000000000C0
:1003C0000000000000000000000000002CA19FDBE6
:1003D000F3A2C69EA5A6F8A0363837A3351E1F2067
:1003E000212223242526B7F6F2A4DDB6D9848586FA
:1003F0008788898A8B8C8D8E8F9091929394959615
:100400009798999A9B9D9CC9D4CAE0B8E4040506C4
:100410000708090A0B0C0D0E0F10111213141516F4
:100420001718191A1B1D1CC5DAD1DE0000000000C8
:10043000000000002A2B280000000000000000003F
:100440000000000000000000000000002C9E9FF44F
:10045000A1A2A32DA5A6B030363837A4271E1F2091
:10046000212223242526B7B632A7B2ADF384858690
:100470008788898A8B8C8D8E8F9091929394959694
:100480009798999A9B9C9DEF35F0AEB800040506AD
:100490000708090A0B0C0D0E0F1011121314151674
:1004A0001718191A1B1C1D00B5000000080B0002CC
:1004B00002020000090400000102020000052400FD
:1004C000100105240101010424020605240600018F
:1004D0000705810310004009040100020A00000022
:1004E00007050202400000070583024000000403E4
:1004F000090412010002EF0201404F1B3780000186
:1005000001020301537061726B46756E0053696D91
:10051000706C65466164657200000000002400276D
:10052000002A002D00300000000000250028002BCC
:10053000002E003100000000002300260029002CBE
:10054000002F000404040404030405020202020450
:10055000030202020206060606060604040202025E
:1005600004040408020110408040102040804080B4
:100570000802040180402010020110801020404039
:10058000200000000200090F0000030401000C001D
:10059000000000000000000000000000000000005B
:1005A000070605040100080A0B0C0D0900000000F5
:1005B000000000002A2B28000000000000000000BE
:1005C0000000000000000000000000002C9EB4A00D
:1005D000A1A2A434A6A7A5AE362D3738271E1F200A
:1005E000212223242526B333B62EB7B89F848586CF
:1005F0008788898A8B8C8D8E8F9091929394959613
:100600009798999A9B9C9D2F3130A3AD3504050690
:100610000708090A0B0C0D0E0F10111213141516F2
:100620001718191A1B1C1DAFB1B0B500050109063A
:10063000A1018502050719E029E7150025017501CB
:1006400095088102950175088103950675081500C6
:1006500025730507190029738100C0007A1311243E
:100660001FBECFEFDAE0DEBFCDBF11E0A0E0B1E00A
:10067000EEEEFDE302C005900D92A63BB107D9F75F
:1006800024E0A6EBB1E001C01D92AD39B207E1F75D
:1006900013E0CFE2D3E004C02197FE010E94E01EE8
:1006A000CE32D107C9F70E94E8140C94F51E0C94C1
:1006B0000000E0EAF5E0E49190917B008E2F880F36
:1006C000880F80729F7D892B80937B00E770E064A8
:1006D000E0937C0080917A00806480937A0080911E
:1006E0007A0086FDFCCF8091780090917900089582
:1006F00081508F3008F047C0E82FF0E0EE57FC4FF4
:100700000C94E01E9F03A303910397039B03C30371
:10071000C303C303A603AC03B003B403BA03C30308
:10072000BE03809180008F77809380000895809130
:1007300080008F7DF9CF80918000877FF5CF84B5D1
:100740008F7784BD089584B58F7DFBCF8091900015
:100750008F77809390000895809190008F7DF9CFDE
:1007600080919000877FF5CF8091C0008F77809334
:10077000C00008958091C0008F7DF9CF8091C200A4
:10078000877F8093C2000895CF93DF93EBE8F5E075
:100790008491ECE6F5E0D491EDE4F5E0C491CC234E
:1007A000A1F081110E947803EC2FF0E0EE0FFF1F03
:1007B000EB5CFA4FA591B491EC91ED2381E090E0D0
:1007C00009F480E0DF91CF91089580E090E0FACFC6
:1007D0001F93CF93DF93282F30E0F901EF57FA4FA3
:1007E0008491F901EE59FA4FD491F901ED5BFA4F7A
:1007F000C491CC23A9F0162F81110E947803EC2F0D
:10080000F0E0EE0FFF1FE95DFA4FA591B4918FB7AD
:10081000F894EC91111108C0D095DE23DC938FBFC2
:10082000DF91CF911F910895DE2BF8CFCF93DF9307
:1008300090E0FC01EE59FA4F24918D5B9A4FFC0138
:1008400084918823C9F090E0880F991FFC01E75E2E
:10085000FA4FA591B491FC01E95DFA4FC591D4918D
:1008600061110DC09FB7F8948C91209582238C93D1
:100870008881282328839FBFDF91CF91089562301C
:1008800051F49FB7F8943C91822F809583238C93E9
:10089000E8812E2BEFCF8FB7F894EC912E2B2C9371
:1008A0008FBFEACF1F93CF93DF93182FEB0161E047
:1008B0000E941604209739F460E0812FDF91CF91D8
:1008C0001F910C94E803CF3FD10511F461E0F5CFFF
:1008D000E12FF0E0EF57FA4FE491E150EF3008F0EC
:1008E0007FC0F0E0EA58FB4F0C94E01E85048D04B5
:1008F00092049C04A604F004F004F004B004BA04CA
:10090000C404CE04DB04F004E30484B5806884BD31
:10091000C7BDDF91CF911F91089584B5806284BDDA
:10092000C8BDF7CF80918000806880938000D0930D
:100930008900C0938800EDCF809180008062809311
:100940008000D0938B00C0938A00E3CF8091800019
:10095000886080938000D0938D00C0938C00D9CFA5
:1009600080919000806880939000D0939900C0930C
:100970009800CFCF80919000806280939000D093B8
:100980009B00C0939A00C5CF8091900088608093AF
:100990009000D0939D00C0939C00BBCF8091C0007D
:1009A00080688093C0008091C0008F7B8093C000DE
:1009B000C093CF00AECF8091C00080628093C00012
:1009C000C093D000A6CF8091C20088608093C200FF
:1009D0008091C2008B7F8093C200C093D20099CFD8
:1009E000C038D1050CF072CF67CF3FB7F894809133
:1009F000290390912A03A0912B03B0912C0326B5D3
:100A0000A89B05C02F3F19F00196A11DB11D3FBF46
:100A1000BA2FA92F982F8827BC01CD01620F711D15
:100A2000811D911D42E0660F771F881F991F4A950F
:100A3000D1F708958F929F92AF92BF92CF92DF929B
:100A4000EF92FF924B015C010E94F5046B017C0167
:100A50000E94F5046C197D098E099F09683E734058
:100A600081059105A8F321E0821A9108A108B10837
:100A700088EEC80E83E0D81EE11CF11C811491049D
:100A8000A104B10429F7FF90EF90DF90CF90BF90C1
:100A9000AF909F908F9008952FB7F89460912503A1
:100AA0007091260380912703909128032FBF08950A
:100AB0008093E9008091F200882319F08AE3809303
:100AC000E800089583E00C9458054091C8015091C6
:100AD000C9012091C6013091C70142175307B4F4F0
:100AE0009091E8009570E1F39091E80092FD19C0B3
:100AF0008093F1008091C8019091C90101968F7394
:100B00009927892B19F48EEF8093E8008091C80112
:100B10009091C90101969093C9018093C80181E029
:100B2000089580E00895EF92FF920F931F93CF9363
:100B3000DF93F82E192FE62E042F81E0860F880F01
:100B40000E94650583E00E946505CF2DD12FEC0E34
:100B5000FD2EF11CCE15DF05B9F007FF13C0FE0115
:100B600084910E946505182F80E00E94650581230D
:100B700021968111EFCFDF91CF911F910F91FF90BF
:100B8000EF9008958881EDCF81E0F5CFDF92EF926D
:100B9000FF920F931F93CF93DF93D82E8A01EB011F
:100BA0007B01E40EF51ECE15DF0559F0D7FE12C00D
:100BB000FE0184910E94650521968111F4CF0FEF0B
:100BC0001FEFC801DF91CF911F910F91FF90EF9020
:100BD000DF9008958881EECF2FB7F89487708093C7
:100BE000E9009091E800892F807295FF04C09091F0
:100BF000F20080E4891B2FBF08957F928F929F920D
:100C0000AF92BF92CF92DF92EF92FF920F931F931A
:100C1000CF93DF93C82E8B017A018091CE01811191
:100C200010C08FEF9FEFDF91CF911F910F91FF9039
:100C3000EF90DF90CF90BF90AF909F908F907F907C
:100C400008958091CF0180FF05C08091E00082600F
:100C50008093E000CE2DDF2DD12C8AEFB82E8C2D85
:100C60008770982E8C2D8072882E8C2D8074782E13
:100C70009AE3A92E209719F4DD2009F452C08C2D97
:100C80000E94EC0581110AC0BA94BB2051F261E0C8
:100C900070E080E090E00E941A05ECCF8C171D06F2
:100CA00011F00CF08C2F9FB7F8949092E9002091EE
:100CB000E80025FD02C09FBFDDCF282F30E0C21B1A
:100CC000D30B882029F08150A0F01092F100FBCFC7
:100CD000F801C7FC0AC0815050F041914093F100E7
:100CE000FACF44914093F10031968150D0F7020F32
:100CF000131FDD2021F0A092E800D12CDCCF8091E1
:100D0000E80085FD07C0A092E800DD24D394209779
:100D100091F2F3CF209779F6772069F2A092E8005C
:100D2000CACF5D9A84E68093CC01C7017CCF9091B5
:100D3000CE01992319F13FB7F89487708093E900A9
:100D40008091F20090E0481759070CF4CA01282F4F
:100D5000FB0154E6215038F0289A5093CB01409182
:100D6000F1004193F7CF009739F02091F200211163
:100D700003C02BE62093E8003FBF08958FEF9FEF5D
:100D800008959FB7F89487708093E9008091F200EE
:100D90009FBF0895615030F02091F100FC01208345
:100DA0000196F8CF289A84E68093CB01089580912C
:100DB000BE0181110DC082E08093BA0184E080936E
:100DC000BB011092BD011092BC0181E08093BE0175
:100DD0008AEB91E008950F931F93CF93DF931F92B7
:100DE000CDB7DEB782E0898342E450E06CEA74E07C
:100DF00080E80E94C6050E94D706DC0112960D917C
:100E00001C910115110589F0D801ED91FC9102802A
:100E1000F381E02DBE016F5F7F4FC801099597FDFB
:100E200004C0F80100851185ECCF89810F90DF9116
:100E3000CF911F910F910895CF93DF93FC01DB01B8
:100E4000818114963C911497682F630F7727771F41
:100E5000683071059CF5C281D381209739F5B38341
:100E6000A283908112969C93129713968C9313975A
:100E700015968C911597890F808390E080E08317F9
:100E800008F52181C22FD0E0BE016C5F7E4F16961F
:100E90004D915C911797480F591FEA014881EB016A
:100EA00048832F5F21830196EACFEA01488559855F
:100EB00041155105D1F7B987A887D3CF80E0DF91DD
:100EC000CF91089581E0FBCFEF92FF921F93CF93D4
:100ED000DF931F92CDB7DEB77C0180919A03811119
:100EE0002CC011E010938D0310938E0383E993E0DF
:100EF0009093900380938F0310929203109291032A
:100F00008CE991E090938A03809389031092950372
:100F100010929403109297031092960310939803E3
:100F20001093990381EC809393030E94D70669E89C
:100F300073E00E941C0710939A0382E0898341E0CA
:100F400050E0BE016F5F7F4F80918C030E94FD05D2
:100F500097FD08C080918C0348E050E0B7018064A1
:100F60000E94FD050F90DF91CF911F91FF90EF90B0
:100F70000895CF93DF93EC0180911601882331F01F
:100F800083E00E94FD051816190634F081E090E018
:100F90009B838A8380E090E0DF91CF910895CF9387
:100FA000DF931F92CDB7DEB76983DC01ED91FC9131
:100FB0000280F381E02D41E050E0BE016F5F7F4F82
:100FC00009950F90DF91CF91089583E00E94EC0581
:100FD00090E00895CF93DF931F92CDB7DEB7FC0169
:100FE0008485958597FD08C02FEF3FEF35872487CF
:100FF0000F90DF91CF91089541E050E0BE016F5F07
:101000007F4F82E00E949706019719F4898190E052
:10101000EFCF8FEF9FEFECCF0F931F93CF93DF9323
:101020001F92CDB7DEB78C01FC018485958597FFB3
:101030000FC041E050E0BE016F5F7F4F82E00E9431
:101040009706019771F4898190E0F801958784876C
:10105000F801848595850F90DF91CF911F910F91B5
:1010600008958FEF9FEFF1CFFC018485958597FD63
:1010700006C082E00E94C10690E00196089582E0D9
:101080000E94C10690E0089590E080E0089580E01D
:1010900008950F931F93CF93DF93CDB7DEB7C45658
:1010A000D1090FB6F894DEBF0FBECDBFFC01DB0146
:1010B0009C919E5F9C939E01295F3F4F8AE5D901D9
:1010C0001D928A95E9F788E089838BE08A8322E084
:1010D0002C8391E09D839E8339E0398764E06A87A1
:1010E0009E879F873A8B44E24B8B9C8BA0E0B1E0BC
:1010F000BE8BAD8B09E010E0188F0F8B998F3B8F63
:101100006C8F2F8F98A353E059A387E08CA34DA336
:101110009EA3B8A7AFA3A1E4B0E0BAA7A9A786E0B1
:101120008BA74CA72DA79EA79FA789AB4AAB2BAB3C
:101130002CAB2DAB3FAB48AF59AF9AAF5BAF9CAF79
:101140002DAF9EAF21963FAF219722964FAF2297AA
:1011500023965FAF239724962FAF249725966FAFE2
:10116000259726969FAF269727969FAF2797289675
:101170009FAF28972A963FAF2A9745E02B964FAF0F
:101180002B972D962FAF2D9760E470E02F967FAFB1
:101190006EAF2F9763964FAF639785E264968FAFDC
:1011A000649765969FAF659766969FAF66976796BB
:1011B0009FAF679768963FAF689769964FAF6997FB
:1011C0006B962FAF6B976D967FAF6EAF6D97A196B5
:1011D0004FAFA197A2968FAFA297A3969FAFA39769
:1011E000A4969FAFA497A5965FAFA59792819B8386
:1011F0009B879F5F9A8F9D8F83812C968FAF2C97B3
:101200008F5F80686A968FAF6A9744E650E0BE01B0
:101210006F5F7F4F80E00E94C605CC59DF4F0FB64D
:10122000F894DEBF0FBECDBFDF91CF911F910F911C
:101230000895DC01FB0112962C911297848195810F
:101240002817190641F491818081813A31F49D7FFC
:1012500081E0913009F080E008958132E1F79B3020
:1012600029F482811F968C9381E008959A3099F732
:10127000828150968C93F8CFDC01FB0188E4808357
:1012800089E4818384E482831D969C911D979F70DD
:101290009F5B93831D968D919C9124E096958795F5
:1012A0002A95E1F78F708F5B848385E00895EF9234
:1012B000FF920F931F93CF93DF93FB01208121387F
:1012C00071F52381223259F5DC0112964C9124816B
:1012D00035814217130619F5EC010B851C85F12C9D
:1012E000E12C0115110589F0F801448155816281D5
:1012F000738180E80E94C6058F3F980749F0E80E89
:10130000F91ED8010D911C91ECCF81E08F87C701A8
:10131000DF91CF911F910F91FF90EF90089590E092
:1013200080E0F6CFCF93DF93CDB7DEB769970FB6E6
:10133000F894DEBF0FBECDBFFC01DB018C918F5F47
:101340008C939E012D5F3F4F8DE0D9011D928A95B0
:10135000E9F729E0298384E08A8391E09D8383E093
:101360008E832A8721E22B879C879D879F8722E295
:10137000288B27E02B8B25E02C8B8E8B20E430E014
:10138000388F2F8B998F82818B8395858685998B5A
:101390008A8B838180688D8B49E150E0BE016F5F4D
:1013A0007F4F80E00E94C60569960FB6F894DEBFB5
:1013B0000FBECDBFDF91CF910895CF92DF92EF9214
:1013C000FF920F931F93CF93DF936C01EB017B018F
:1013D000E40EF51E10E000E0CE15DF0581F0699106
:1013E0006D30D1F3D601ED91FC910190F081E02DAB
:1013F000C6010995892B19F00F5F1F4FEDCFC8016A
:10140000DF91CF911F910F91FF90EF90DF90CF90E0
:101410000895EF92FF921F93CF93DF93EC01162F65
:10142000E8E7E60F683888F4862F90E067FF50C041
:10143000FC01E058F10921E030E001C0220FEA95FB
:10144000EAF78C81822B8C83E0E08E818E17D9F0B5
:101450008F81E817C1F08885E817A9F08985E8171A
:1014600091F08A85E81779F08B85E81761F0DE0145
:10147000169690E080E02D9121115EC08C0F9D1F8B
:10148000DC011696EC93CE0104960E946407EE24CC
:10149000E394F12C183848F11858DE0186E0112346
:1014A00041F016969C911697191303C016961C923C
:1014B0001697815011968111F2CFCE0104960E94A9
:1014C0006407C701DF91CF911F91FF90EF900895BE
:1014D000EC85FD85E80FF91FE491E11119C081E069
:1014E00090E09B838A83F12CE12C812F90E017FF01
:1014F0002FC0FC01E058F10981E090E001C0880FA5
:10150000EA95EAF780959C8189238C8310E0C5CF0A
:101510008E2F807C803C49F48C8180648C83EF73B7
:10152000E23309F092CFE4E690CFE7FFF9CF8C8168
:1015300082608C83EF77F4CF01968630910509F0B5
:101540009ACF81E090E09B838A83F12CE12CA2CF9B
:10155000EC85FD85E80FF91F1491112309F4B1CF33
:10156000812F807C803C49F48C818F7B8C831F731E
:10157000123309F092CF14E690CF17FFF9CF8C8188
:101580008D7F8C831F77F4CF089590E080E00895DD
:10159000809119018430A9F48091180390E0FC0136
:1015A000E351FD4F20812093FD02FC01EB51FD4FE3
:1015B00020812093FC0283529D4FFC018081809307
:1015C000DC0208954F925F926F927F928F929F926A
:1015D000AF92BF92CF92DF92EF92FF920F931F9341
:1015E000CF93A82EB62EC42F6801790120E030E0F9
:1015F000A901C701B8010E94641D87FD6EC020E0EB
:1016000030E040E85FE3C701B8010E944A1E1816A7
:101610000CF467C06A2D70E090E080E00E949A1D93
:10162000A70196010E944F1E9B01AC0160E070E093
:101630008FE793E40E94F71C2B013C016B2D70E0B7
:1016400090E080E00E949A1DA70196010E944F1E23
:101650009B01AC0160E070E08FE793E40E94F71C0F
:101660004B015C016C2F70E090E080E00E949A1DBD
:10167000A70196010E944F1E9B01AC0160E070E043
:101680008FE793E40E94F71C6B017C01C301B20158
:101690000E94691D70E083E00E945204C501B401FC
:1016A0000E94691D70E085E00E945204C701B601E6
:1016B0000E94691D70E086E0CF911F910F91FF900D
:1016C000EF90DF90CF90BF90AF909F908F907F90E2
:1016D0006F905F904F900C945204C12CD12C7601E6
:1016E00099CFC12CD12C80E8E82E8FE3F82E92CF31
:1016F0000F931F938A019B018D3008F040C0E82FA3
:10170000F0E0EB57F44F0C94E01E920B960B990B04
:101710009C0B9F0BA30BA50BA80BAA0BAD0BB50B3A
:10172000B90BBD0B4BEC60EC8FEF1AC040E060E0F2
:10173000FBCF40E064E1F8CF40E060E5F5CF40E06A
:101740006FEF80E00DC04FEFFBCF4FEF60E0F9CFC0
:101750004FEFEDCF42E362E3E7CF4FEF66E98DEA6B
:101760000E94E20A1F910F91089543E16EE18BE818
:10177000F7CF40E96FEF80E9F3CF46E9DECF40E0F5
:10178000E5CF0F931F9380910803833620F081E00B
:101790008093180108C08B52883308F048C082E05B
:1017A0008093180186E08093DC020E944C05009132
:1017B000B6011091B7012091B8013091B901601BB9
:1017C000710B820B930B693C71058105910560F1EA
:1017D00020E030E0A9016091000170910101809149
:1017E0000201909103010E94641D40E050E0BA01A3
:1017F000811104C040E050E060E87FE340930001C5
:101800005093010160930201709303018091DC0207
:101810000E94780B0E944C056093B6017093B7014B
:101820008093B8019093B9011F910F91089583E0BF
:10183000AFCFCF93C091DC0240E050E060E87FE39F
:101840008C2F0E94780B64E670E080E090E00E94AC
:101850001A058091100340E050E0BA01811104C0E4
:101860004DEC5CEC6CEC7EE38C2FCF910C94780B00
:10187000E091D802E930A0F4F0E0EF5BF34F0C9474
:10188000E01E4A0C510C540C570C5A0C5D0C600CA9
:10189000630C660C8CEA95E09093BD038093BC03C7
:1018A00008958CE294E0F8CF8CEA93E0F5CF8CE2D7
:1018B00093E0F2CF8CEA92E0EFCF8CE292E0ECCFB3
:1018C0008CEA91E0E9CF8CE291E0E6CF8CEA90E0FF
:1018D000E3CF0F931F93CF93DF9300D000D0CDB70A
:1018E000DEB78C01262FFC01848195813681303F43
:1018F000D9F0009711F4208704C08130910581F45C
:101900006187F801848195810196958384830F9086
:101910000F900F900F90DF91CF911F910F9108952D
:10192000029779F76287EDCF603F49F48385F0E154
:101930008F9FC00111248460F8018783DCCF63E0AE
:1019400070E00E94CC1EAC01273F39F4938592953C
:10195000907F85E0840F982B9783F80141155105FE
:1019600021F4208712861186CCCF4130510519F41D
:1019700021871286C6CF2287273F19F2908581855D
:10198000378139839A838B832C838091800344E051
:1019900050E0BE016F5F7F4F8F5F0E94FD05809119
:1019A00080038F5F0E945805ACCFFF920F931F9367
:1019B000CF93DF9300D000D0CDB7DEB721502031D8
:1019C00008F054C0042FF62E182FE091EB03F0918D
:1019D000EC038683A82FA295AF70A750BB0BAA0F6C
:1019E000BB1FA659BE4F838590E1899FA00111249A
:1019F00011968C91842B878312861186108615820E
:101A00001482612F622B8091EB039091EC030E9472
:101A1000690C6F2D6F778091EB039091EC030E941E
:101A2000690C103C41F0602F6F778091EB0390912F
:101A3000EC030E94690CE091EB03F091EC0320852C
:101A400091858285378139832A839B838C8380911A
:101A5000800344E050E0BE016F5F7F4F8F5F0E94C4
:101A6000FD05809180038F5F0E9458050F900F90B5
:101A70000F900F90DF91CF911F910F91FF900895DC
:101A800084E0E0EBF1E0DB0101900D928A95E1F753
:101A900084E008951F93CF93DF93EC01162F0E94EB
:101AA000861C181739F0612FCE01DF91CF911F915D
:101AB0000C948E1CDF91CF911F9108950C94861C7D
:101AC000CF92DF92EF92FF920F931F93CF93DF930A
:101AD00080911801813009F01DC18091DB028F3F98
:101AE00089F4CDEED2E0A5EEB2E0EDEDF2E080E0DB
:101AF00097E089939D9381938F5F8830D1F71092FF
:101B00001803F5C082E390E00E945E0DC82F809319
:101B100019018CE590E00E945E0D91E0811101C0F9
:101B200090E0909309038BE590E00E945E0D91E0B8
:101B3000811101C090E09093100384E690E00E9430
:101B40005E0D809317018FE590E00E945E0D8093FB
:101B50001803C230C1F1C33009F47CC0C13009F0B0
:101B6000A2C08CE390E00E945E0D8093FD028DE3A5
:101B700090E00E945E0D8093FC028EE390E00E9454
:101B80005E0D8093DC0280E590E00E945E0DD82F10
:101B90008093DA0281E590E00E945E0DC82F809369
:101BA000D90283E690E00E945E0D8093D8020E94E5
:101BB000380C20E8C29FC00111248D2B909305039F
:101BC0008093040394C087E490E00E945E0D8093AC
:101BD000020386E490E00E945E0D809301038CE393
:101BE00090E00E945E0D8093FD028DE390E00E94E4
:101BF0005E0D8093FC028EE390E00E945E0D809368
:101C0000DC028AE590E00E945E0D91E0811101C046
:101C100090E0909313038DE590E00E945E0D91E0BB
:101C2000811101C090E0909312038EE590E00E9434
:101C30005E0D91E0811101C090E09093110381E667
:101C400090E00E945E0D91E0811101C090E09093C0
:101C500010034DC087E490E00E945E0D8093020364
:101C600089E490E00E945E0D809300038CE390E095
:101C70000E945E0D8093FD028DE390E00E945E0D58
:101C80008093FC028EE390E00E945E0D8093DC0264
:101C90008AE590E00E945E0D91E0811101C090E024
:101CA0009093130324C04DEEC42E42E0D42E55EE83
:101CB000E52E52E0F52E0DED12E0C1E0D0E0CE01B0
:101CC0000E945E0DF60181936F01CE0108960E947D
:101CD0005E0DF70181937F01CE0140960E945E0D5B
:101CE000F80181938F012196C930D10541F70E94F7
:101CF0004C0560930C0370930D0380930E03909337
:101D00000F03DF91CF911F910F91FF90EF90DF9024
:101D1000CF900895823009F0FDC086E990E00E94DE
:101D20005E0DC82F8093190180EC90E00E945E0D3B
:101D300091E0811101C090E0909309038FEB90E056
:101D40000E945E0D91E0811101C090E0909310031C
:101D500088EC90E00E945E0D8093170183EC90E088
:101D60000E945E0D80931803C23099F1C33009F4CC
:101D70006FC0C13009F08DC080EA90E00E945E0D16
:101D80008093FD0281EA90E00E945E0D8093FC0248
:101D900082EA90E00E945E0D8093DC0284EB90E08A
:101DA0000E945E0DD82F8093DA0285EB90E00E94AE
:101DB0005E0DC82F8093D90287EC90E00E945E0DE3
:101DC0008093D8020E94380CF0E8CF9FC001112404
:101DD000F4CE8BEA90E00E945E0D809302038AEAC3
:101DE00090E00E945E0D8093010380EA90E00E94E3
:101DF0005E0D8093FD0281EA90E00E945E0D80936B
:101E0000FC0282EA90E00E945E0D8093DC028EEB81
:101E100090E00E945E0D91E0811101C090E09093EE
:101E2000130381EC90E00E945E0D91E0811101C0EE
:101E300090E09093120382EC90E00E945E0D91E09E
:101E4000811101C090E09093110385EC90E0F9CEF0
:101E50008BEA90E00E945E0D809302038DEA90E091
:101E60000E945E0D8093000380EA90E00E945E0D68
:101E70008093FD0281EA90E00E945E0D8093FC0257
:101E800082EA90E00E945E0D8093DC028EEB90E08F
:101E900001CFCF3F29F12DEEC22E22E0D22E35EE1A
:101EA000E32E32E0F32E0DED12E0C5E6D0E0CE01D8
:101EB0000E945E0DF60181936F01CE0108960E948B
:101EC0005E0DF70181937F01CE0140960E945E0D69
:101ED000F80181938F012196CD36D10541F707CFC7
:101EE00084E080931901109209031092100387E097
:101EF0008093170110921803CDEED2E0A5EEB2E068
:101F0000EDEDF2E080E019928D9381938F5F883040
:101F1000D1F7EDCE833009F0EACE8AEF90E00E944F
:101F20005E0DC82F8093190184E291E00E945E0D3E
:101F300091E0811101C090E09093090383E291E068
:101F40000E945E0D91E0811101C090E0909310031A
:101F50008CE291E00E945E0D8093170187E291E090
:101F60000E945E0D80931803C23049F1C33009F41A
:101F700065C0C13009F083C084E091E00E945E0D2D
:101F80008093FD0285E091E00E945E0D8093FC024B
:101F900086E091E00E945E0D8093DC0288E191E092
:101FA0000E945E0DD82F8093DA0289E191E00E94B1
:101FB0005E0DC82F8093D9028BE291E0FFCE8FE0B7
:101FC00091E00E945E0D809302038EE091E00E94FA
:101FD0005E0D8093010384E091E00E945E0D80938A
:101FE000FD0285E091E00E945E0D8093FC0286E098
:101FF00091E00E945E0D8093DC0282E291E00E94FB
:102000005E0D91E0811101C090E09093130385E291
:1020100091E00E945E0D91E0811101C090E09093EB
:10202000120386E291E00E945E0D91E0811101C0F1
:1020300090E09093110389E291E003CE8FE091E06C
:102040000E945E0D8093020381E191E00E945E0D8B
:102050008093000384E091E00E945E0D8093FD0276
:1020600085E091E00E945E0D8093FC0286E091E0A5
:102070000E945E0D8093DC0282E291E00BCECF3FA6
:1020800029F18DEEC82E82E0D82E95EEE92E92E051
:10209000F92E0DED12E0C9ECD0E0CE010E945E0DEC
:1020A000F60181936F01CE0108960E945E0DF70143
:1020B00081937F01CE0140960E945E0DF8018193CD
:1020C0008F012196C13DD10541F711CE84E0809367
:1020D0001901109209031092100387E080931701F1
:1020E00010921803CDEED2E0A5EEB2E0EDEDF2E0F5
:1020F00080E089938D9381938F5F8830D1F7F7CDFE
:102100001F920F920FB60F9211242F933F938F932C
:102110009F93AF93BF938091250390912603A09145
:102120002703B09128033091240323E0230F2D3798
:1021300058F50196A11DB11D20932403809325031A
:1021400090932603A0932703B0932803809129033B
:1021500090912A03A0912B03B0912C030196A11D0D
:10216000B11D8093290390932A03A0932B03B0936E
:102170002C03BF91AF919F918F913F912F910F9021
:102180000FBE0F901F90189526E8230F0296A11DF1
:10219000B11DD2CF1F920F920FB60F9211242F9321
:1021A0003F934F935F936F937F938F939F93AF93DF
:1021B000BF93CF93EF93FF93C091E1008091E10033
:1021C000837F8093E100C3FF0FC01092E90081E09C
:1021D0008093EB001092EC0082E38093ED0010926C
:1021E000CE0188E08093F000C2FF1BC083E00E9414
:1021F00058058091CC01882341F08091CC01815019
:102200008093CC01811101C05D988091CB0188231E
:1022100041F08091CB0181508093CB01811101C0AD
:102220002898C4FF23C08091E2008E7E8160809355
:10223000E2008091E1008F7E8093E1008091CF01E8
:102240008E7E80618093CF01FF91EF91CF91BF91FE
:10225000AF919F918F917F916F915F914F913F913E
:102260002F910F900FBE0F901F901895C0FFECCFCD
:102270008091E2008E7E80618093E2008091E10097
:102280008E7E8093E1008091CF018E7E8160DACFD7
:102290001F920F920FB60F921124CF92DF92EF92FE
:1022A000FF920F931F932F933F934F935F936F93DF
:1022B0007F938F939F93AF93BF93EF93FF93CF93AE
:1022C000DF93CDB7DEB76C97DEBFCDBF1092E900CC
:1022D0008091E80083FF25C068E0CE0145960E940A
:1022E000CA0682EF8093E8008D8987FF39C09091FC
:1022F000E80090FFFCCF982F907609F034C19E89BA
:102300004F89588D2F89F88C911131C0803861F533
:102310008091CD018093F1001092F1008EEF8093B7
:10232000E8006C960FB6F894DEBF0FBECDBFDF910C
:10233000CF91FF91EF91BF91AF919F918F917F913D
:102340006F915F914F913F912F911F910F91FF904E
:10235000EF90DF90CF900F900FBE0F901F901895C9
:102360009EEF9093E800C7CF1092F100D5CF913047
:1023700059F48111D3CF4130510581F68091CD01BF
:102380008D7F8093CD01CACF933049F48111C6CFA0
:102390004130510519F68091CD018260F2CF953020
:1023A00041F48091E80080FFFCCF20682093E30097
:1023B000B5CF963009F0A9C00B8D1C8D22E010928C
:1023C000E9001092C9011092C801F2122EC01092B9
:1023D000C7011092C6010E94EB061F8299E0998303
:1023E000FA8291E09E8390EA98879AEF99872091EC
:1023F000C8013091C901275F3F4F3C832B838D83F8
:102400001092E9001092C9011092C8011093C701FF
:102410000093C60149E050E0BE016F5F7F4F80E04E
:102420000E94C6050E94EB0679CF1093C701009366
:10243000C6010E94D706DC0112960D911C91011570
:10244000110509F451C1D801ED91FC910480F58189
:10245000E02DBE016B5E7F4FC8010995009709F022
:102460003EC1F80100851185EACFF3E0FF120EC0EE
:102470008F89882309F440C0823061F440E86BE022
:102480008DE095E00E949305811148CF81E2809311
:10249000EB0047CF813029F440E868E084E095E024
:1024A000F1CF833099F70E94D706DC011296ED90A8
:1024B000FC908E010F5F1F4F6801E114F10479F069
:1024C000D701ED91FC910680F781E02DB801C7019D
:1024D0000995080F111DF701E084F184EECFD801B2
:1024E0001C92F60101900020E9F73197BF016C19A9
:1024F0007D0940E0C601C6CF6EEE74E0FB01449159
:1025000050E080E80E94C60509CF973009F4BECF9D
:10251000983021F481E08093F10000CF993009F0E8
:10252000FDCE837009F0B2CFE5E0F1E081E031E06B
:1025300096E32191222371F08093E9003093EB0020
:10254000DF0111972C912093EC009093ED008F5FA9
:10255000873079F78EE78093EA001092EA008F893E
:102560008093CE01DBCE8B8D9C8D1092E900109272
:10257000C9011092C8019093C7018093C601898D4B
:10258000811192C08E899D89913A49F4813209F076
:102590007DCF47E050E06FE071E080E0B3CF913253
:1025A00009F074CF833269F48F89988DB0E0A0E090
:1025B00080930B0190930C01A0930D01B0930E0139
:1025C000ADCE803269F48091E80082FFFCCF67E0F5
:1025D0008FE091E00E94CA068BEF8093E8009ECEC8
:1025E000823209F09BCE8F8980931601EEEFFFE7D0
:1025F000859194918B3F9C4D51F1E0E0F8E0809102
:102600000F0190911001A0911101B0911201803B36
:102610009440A105B105F1F48091160180FD1AC026
:10262000EE3F8AE0F80789F587E797E79183808393
:10263000809160008093CA0188E19BE00FB6F89416
:10264000A895809360000FBE9093600067CEEEEF78
:10265000FAE0D5CF808191818737974709F05ECE28
:10266000A895809160008861809360008091CA0184
:1026700080936000EE3F2AE0F20789F08091FE0A25
:102680009091FF0A9183808349CE80819181873721
:10269000980751F29093FF0A8093FE0AC5CF1092DB
:1026A000FF0A1092FE0A3ACE0E94D706DC0112966B
:1026B0000D911C910115110509F4E8CED801ED9199
:1026C000FC910190F081E02DBE016B5E7F4FC8014F
:1026D0000995811123CEF80100851185EBCF1816DD
:1026E00019060CF41BCED2CEF1E0FF12BECE62EF83
:1026F00074E004CFCF931092300310922F0388EE32
:1027000093E0A0E0B0E08093310390933203A09374
:102710003303B09334038EE791E090932E038093BC
:102720002D038FEF9FEF90933A038093390382E05C
:10273000809381038093820387E893E090938403DE
:1027400080938303109286031092850380E991E0C1
:1027500090937E0380937D0380E88093870381E8D4
:10276000809388030E94D7066DE773E00E941C07E0
:102770001092B3031092B20388EA91E09093B103F0
:102780008093B0038091A803811113C01092A3031A
:102790001092A2038CE296E09093A5038093A40389
:1027A0008FE290E09093A7038093A60381E080934B
:1027B000A80380919A0381112CC0C1E0C0938D03BE
:1027C000C0938E0383E993E09093900380938F03EB
:1027D00010929203109291038CE991E090938A03F6
:1027E000809389031092950310929403109297039B
:1027F00010929603C0939803C093990381EC809341
:1028000093030E94D70669E873E00E941C07C093F7
:102810009A03E0919403F0919503309709F0CFC0AB
:1028200082EA93E0909395038093940380919603BA
:10283000909197032091A6033091A703820F931FD5
:1028400090939703809396038CEA95E09093BD0351
:102850008093BC0310929C048091C0038F5F80938F
:10286000C0038091BE039091BF0381609093BF032A
:102870008093BE031092C2031092C1031092C4034E
:102880001092C3031092C6031092C5031092C8039E
:102890001092C7031092CA031092C9031092CC037E
:1028A0001092CB031092CE031092CD031092D0035E
:1028B0001092CF031092D2031092D1031092D4033E
:1028C0001092D3031092D6031092D5031092D8031E
:1028D0001092D7031092DA031092D9031092DC03FE
:1028E0001092DB031092DE031092DD031092E003DE
:1028F0001092DF031092E2031092E1031092E403BE
:102900001092E3031092E6031092E5031092E8039D
:102910001092E7031092EA031092E90381E994E030
:102920009093EC038093EB031092ED031092EE036F
:102930001092EF031092F4031092F3031092F60337
:102940001092F5038FEF9FEF9093F8038093F703B6
:102950009093FA038093F90383E08093FB03109232
:10296000FC031092FD031092FE031092FF031092DD
:102970008004E0E0F4E080E8DF011D928A95E9F749
:10298000109283041092840410928504109286049D
:1029900010928704109288041092890410928A047D
:1029A00010928B0410928C0410928D0410928E045D
:1029B00010928F0410929004CF910895FC018081B1
:1029C00091810097D9F782EA93E0918380832ECF9B
:1029D000CF93DF9300D000D0CDB7DEB7789484B525
:1029E000826084BD84B5816084BD85B5826085BD0B
:1029F00085B5816085BD80916E00816080936E0099
:102A0000109281008091810082608093810080918A
:102A1000810081608093810080918000816080933B
:102A2000800080919100826080939100809191005C
:102A300081608093910080919000816080939000EC
:102A40008091C10084608093C1008091C100826048
:102A50008093C1008091C10081608093C10080910A
:102A6000C30081608093C3008091C0008260809326
:102A7000C0008091C20081608093C20080917A0082
:102A8000846080937A0080917A00826080937A00DB
:102A900080917A00816080937A0080917A008068CA
:102AA00080937A001092CE011092CD011092CF0146
:102AB0008091D70081608093D70080EA8093D8000E
:102AC00089B5806189BD89B5826089BD09B400FE80
:102AD000FDCF61E070E080E090E00E941A058091F7
:102AE000D8008F7C80618093D8008091E000807F47
:102AF0008093E0008091E1008E7E8093E1008DE084
:102B00008093E200559A209A5D98289860E08EE1C3
:102B10000E94160460E081E10E94160483E00E9496
:102B2000580562E08AE00E94160461E089E00E9494
:102B3000160461E083E00E94160461E085E00E94D3
:102B4000160461E086E00E94160461E089E00E94BC
:102B5000E80390E080E00E945E0D8093DB0281E25A
:102B600090E00E945E0D809318018F3F19F481E080
:102B7000809318010E94600D0E94C80A0E94190CDF
:102B80000E94590390930B0380930A0311E08091F4
:102B9000CF0180FF21C080912203811110C040E04D
:102BA00050E0BA018091DC020E94780B80916400B1
:102BB000816080936400109323031093220364E6E2
:102BC00070E080E090E00E941A05E0E0F0E0EF2B7A
:102BD000F1F20E940000DBCF80912303882359F09B
:102BE0000E94190C809164008E7F80936400109283
:102BF0002303109222030E944C0560931E037093DE
:102C00001F03809320039093210320911901243006
:102C100051F520911D03211126C0C0901903D090B9
:102C20001A03E0901B03F0901C036C197D098E09B8
:102C30009F096133754781059105A8F00E944C05F5
:102C40006093190370931A0380931B0390931C03E2
:102C50006091180380911801813009F08DC18FE5D2
:102C600090E00E944A0D80911901823009F044C021
:102C700080911D03811140C080911E0390911F031C
:102C8000A0912003B09121034091140350911503AA
:102C90006091160370911703841B950BA60BB70B5D
:102CA00081339547A105B10538F10E944C05609329
:102CB0001403709315038093160390931703609188
:102CC000130380911801813009F059C18AE590E021
:102CD0000E944A0D609112038DE590E00E944A0D1A
:102CE000609111038EE590E00E944A0D60911003FF
:102CF00081E690E00E944A0D80911D03811129C058
:102D000080911E0390911F03A0912003B091210395
:102D100040910C0350910D0360910E0370910F03CD
:102D2000841B950BA60BB70B81339547A105B10505
:102D300080F00E944C0560930C0370930D03809308
:102D40000E0390930F036091180181E290E00E94BE
:102D50004A0D8091D0029091D102A091D202B091FF
:102D6000D3024091D4025091D5026091D602709165
:102D7000D702841B950BA60BB70B8F739927AA2735
:102D8000BB27892B8A2B8B2B09F40EC18091D4028F
:102D90009091D502A091D602B091D702880F991FC9
:102DA000880F991FFC01E053FE4FC080D180E28064
:102DB00003814091D0025091D1026091D202709172
:102DC000D3028091D4029091D502A091D602B09105
:102DD000D702481759076A077B07B9F08091D402D8
:102DE0009091D502A091D602B091D7020196A11D73
:102DF000B11D8F739927AA27BB278093D402909384
:102E0000D502A093D602B093D7020E945903BC0109
:102E1000181619060CF033C16F3F83E078070CF0E9
:102E200031C1E2E4F1E090E080E081909190AC016A
:102E30004F5F5F4F681579050CF41BC1608071808E
:102E4000661677060CF415C1880F991FFC01E65E23
:102E5000FE4F20803180032C000C44085508092CBB
:102E6000000CAA08BB08440F551FFA01E65EFE4F8E
:102E700020813181032E000C440B550B221933099C
:102E800044095509072E000C880B990B681979091C
:102E90008A099B090E94BC1E9301770C440B550BB9
:102EA000281939094A095B090E949C1C220E331E0D
:102EB000441E551EB10180910A0390910B03681BBB
:102EC000790B34E0759567953A95E1F7680F791FAE
:102ED000693E93E079070CF0D8C070930B036093C0
:102EE0000A03B0901D03B11010920903A0910A03C8
:102EF000B0910B03809109038111CEC02FE730E020
:102F00000E94EE1E28EE33E040E050E00E949C1C40
:102F100020930803B1100E94C10B0E94C403892BA7
:102F200009F0FFC00E944C054B015C018092140324
:102F300090921503A0921603B09217030E94C40347
:102F4000892B09F0C5C00E944C05681979098A09C6
:102F50009B09613D77408105910508F4ADC0109350
:102F60001D03109307030E94C10B62E370E080E031
:102F700090E00E941A05E2CF83EC90E072CE8EEBD7
:102F800090E00E944A0D6091120381EC90E00E9453
:102F90004A0D6091110382EC90E00E944A0D60910D
:102FA000100385EC90E0A6CE809180030E94C106BC
:102FB000C82E00E0E12CD12C882309F4FACEC09071
:102FC000D002D090D102E090D202F090D3022FEF45
:102FD000C21AD20AE20AF20A8FE3C822DD24EE24E2
:102FE000FF248091D4029091D502A091D602B09195
:102FF000D7028C159D05AE05BF0509F4C7CE80919B
:1030000080030E94C10644E050E0BE016F5F7F4F25
:10301000809180030E94970604970CF4B7CE8091AC
:10302000D0029091D102A091D202B091D302880F28
:10303000991F880F991F80539E4F49815A816B8138
:103040007C81FC014083518362837383C092D002F0
:10305000D092D102E092D202F092D302FFEFCF1AC7
:10306000DF0AEF0AFF0A2FE3C222DD24EE24FF2449
:10307000B8CFCA014331510509F0D7CE1CCF70E05B
:1030800060E019CF6FEF73E016CFE8EEF3E0F09356
:103090000B03E0930A0325CF9D01A1E8BFEF0E9437
:1030A000E61E28EE33E040E050E00E949C1C2158D0
:1030B0003F4F4F4F5F4F2CCF80911D03882309F462
:1030C00054CF10921D03109306030E94600D4DCF44
:1030D00080911D03811125C080910603811111C0CB
:1030E00080911901823009F493C0833009F4CFC074
:1030F000813009F0D5C06091040380EB93E00E9419
:10310000090A109206030E94C80A0E94190C0E9424
:103110004C056093190370931A0380931B039093DB
:103120001C03B09008038091FF02B81609F4C9C0CF
:1031300080911D03811149CD8091070381110DC03C
:103140002091FD022F5F8091FE028111B6C04B2DB0
:103150006091FC0280EB0E94D50CB092FF021092AD
:103160000703CC2009F431CDED2DE07F8E2EE093C6
:10317000FB02FD2DFF70CF2EF093FA02E092F902D0
:103180000093F802A02EB12CC50123E095958795F8
:103190002A95E1F7282F2F70522E2093F702802FC7
:1031A0008770982E8093F6029FE8D9120CC00130E8
:1031B00051F40093F50221E047E36BE080E80E94C0
:1031C000D50C0E94190C8091F502882309F4FDCCDE
:1031D000E0E88E12C2C0023009F07CC0C092FD024D
:1031E000E092FC021092FE02809117018E1518F4F5
:1031F000E394E09217010E94190C0E944C05609321
:10320000190370931A0380931B0390931C03DDCC66
:1032100080911203882331F09091100321E09227CE
:1032200090931003B09013039091110391110EC06D
:1032300090910303992321F0882311F0B11008C065
:10324000209102034FE7609101030FC08823D9F05A
:10325000809103038823B9F0609101032091020358
:10326000109311031092030340E080EB0E94D50CF1
:10327000BB2031F08091110391E0892780931103E5
:103280000E944C053ECF2091020340E0DCCF20910C
:10329000020340E06091000380EC0E94D50C31CF26
:1032A000809118038F5F80931803909117019817EE
:1032B00008F027CF1092180324CF40E06B2D80EC4C
:1032C0004ACFCC2009F481CC80911D03882309F4D6
:1032D0004BCF7BCC0A3049F4C394C0920203E092F6
:1032E0000103F2E0F093190186CF0B3079F481E00D
:1032F000C11001C080E080931203C110109303033A
:1033000022E0209319011092110375CF083249F47D
:10331000C394C0920203E092000383E080931901FA
:103320006ACF0D3229F41093FE02C092FD0263CFE2
:10333000023339F481E0C11001C080E080930903B9
:103340005ACF0F3151F581E0C11001C080E0809368
:10335000130392E090931901D6CFE0EC8E120BC0CC
:103360001092FE02EA94E0921701F4E0F093190142
:103370000E94C80A40CF20EA8212B0C2892D90E094
:10338000FC01E351FD4FC082FC01EB51FD4FE08297
:1033900083529D4FFC015082E8CF0E3119F4E09228
:1033A000DC0229CF0E3639F48091100321E0822708
:1033B0008093100320CF033009F01DCF8091DB02F2
:1033C0008F3F39F41093DB0261E090E080E00E94CF
:1033D0004A0D9091180180911901913009F0D9C0DE
:1033E000823009F44FC0833009F481C0813009F084
:1033F000A1C06091FD028CE390E00E944A0D6091B3
:10340000FC028DE390E00E944A0D6091DC028EE3A5
:1034100090E00E944A0D6091DA0280E590E00E94FF
:103420004A0D6091D90281E590E00E944A0D6091B9
:10343000D80283E690E00E944A0D6091190182E370
:1034400090E00E944A0D609110038BE590E00E948D
:103450004A0D609109038CE590E00E944A0D60914D
:10346000FE0280E690E00E944A0D609118038FE50D
:1034700090E00E944A0D6091180181E290E00E9464
:103480004A0DB9CE6091020387E490E00E944A0D94
:103490006091010386E490E00E944A0D6091FD0274
:1034A0008CE390E00E944A0D6091FC028DE390E075
:1034B0000E944A0D6091DC028EE390E00E944A0D6A
:1034C000609113038AE590E00E944A0D6091120317
:1034D0008DE590E00E944A0D609111038EE590E029
:1034E0000E944A0D6091100381E690E0A4CF6091A4
:1034F000020387E490E00E944A0D6091000389E492
:1035000090E00E944A0D6091FD028CE390E00E94E1
:103510004A0D6091FC028DE390E00E944A0D60919B
:10352000DC028EE390E00E944A0D609113038AE56D
:1035300090E081CFFDEE8F2EF2E09F2EA5EEAA2E19
:10354000A2E0BA2EBDEDCB2EB2E0DB2EEE24E3944A
:10355000F12CF40161914F01C7010E944A0DF50160
:1035600061915F01C70108960E944A0DF6016191C1
:103570006F01C70140960E944A0DFFEFEF1AFF0A44
:1035800029E0E216F10429F76091170184E690E042
:1035900052CF923009F0D1C0823009F447C0833055
:1035A00009F479C0813009F099C06091FD0280EA88
:1035B00090E00E944A0D6091FC0281EA90E00E9436
:1035C0004A0D6091DC0282EA90E00E944A0D60910F
:1035D000DA0284EB90E00E944A0D6091D90285EBFB
:1035E00090E00E944A0D6091D80287EC90E00E9422
:1035F0004A0D6091190186E990E00E944A0D6091A0
:1036000010038FEB90E00E944A0D6091090380EC5B
:1036100090E00E944A0D6091FE0284EC90E00E94CE
:103620004A0D6091180383EC90E023CF6091020370
:103630008BEA90E00E944A0D609101038AEA90E0D3
:103640000E944A0D6091FD0280EA90E00E944A0DBE
:103650006091FC0281EA90E00E944A0D6091DC02D8
:1036600082EA90E00E944A0D609113038EEB90E095
:103670000E944A0D6091120381EC90E00E944A0D75
:103680006091110382EC90E00E944A0D609110035A
:1036900085EC90E0ACCF609102038BEA90E00E9451
:1036A0004A0D609100038DEA90E00E944A0D6091FE
:1036B000FD0280EA90E00E944A0D6091FC0281EADE
:1036C00090E00E944A0D6091DC0282EA90E00E9444
:1036D0004A0D609113038EEB90E089CF5DEE852E4D
:1036E00052E0952E65EEA62E62E0B62E7DEDC72E39
:1036F00072E0D72EE5E6EE2EF12CF40161914F0138
:10370000C7010E944A0DF50161915F01C70108964A
:103710000E944A0DF60161916F01C70140960E9417
:103720004A0DFFEFEF1AFF0A2DE6E216F10429F722
:103730006091170188EC90E05ACF823009F447C0BD
:10374000833009F479C0813009F099C06091FD029D
:1037500084E091E00E944A0D6091FC0285E091E0D6
:103760000E944A0D6091DC0286E091E00E944A0DC1
:103770006091DA0288E191E00E944A0D6091D902DD
:1037800089E191E00E944A0D6091D8028BE291E0BC
:103790000E944A0D609119018AEF90E00E944A0D43
:1037A0006091100383E291E00E944A0D6091090349
:1037B00084E291E00E944A0D6091FE0288E291E06D
:1037C0000E944A0D6091180387E291E052CE609109
:1037D00002038FE091E00E944A0D609101038EE0A8
:1037E00091E00E944A0D6091FD0284E091E00E9408
:1037F0004A0D6091FC0285E091E00E944A0D6091C3
:10380000DC0286E091E00E944A0D6091130382E29F
:1038100091E00E944A0D6091120385E291E00E94BE
:103820004A0D6091110386E291E00E944A0D609179
:10383000100389E291E0ACCF609102038FE091E048
:103840000E944A0D6091000381E191E00E944A0DBF
:103850006091FD0284E091E00E944A0D6091FC02BB
:1038600085E091E00E944A0D6091DC0286E091E0E3
:103870000E944A0D6091130382E291E089CF9DEE90
:10388000892E92E0992E25EEA22E22E0B22E3DED59
:10389000C32E32E0D32E49ECE42EF12CF4016191D9
:1038A0004F01C7010E944A0DF50161915F01C701F7
:1038B00008960E944A0DF60161916F01C70140967A
:1038C0000E944A0DFFEFEF1AFF0A21EDE216F10404
:1038D00029F7609117018CE291E05ACF80EE8812AF
:1038E0008ACCC092D802E092DA020093D9020E94F8
:1038F000380CB694BA2CAA24B794A794AE28B092E8
:103900000503A09204031093190175CCF999FECF19
:1039100092BD81BDF89A992780B50895262FF9990F
:10392000FECF1FBA92BD81BD20BD0FB6F894FA9AA2
:10393000F99A0FBE01960895052E97FB1EF4009488
:103940000E94B31C57FD07D00E94C61C07FC03D081
:103950004EF40C94B31C50954095309521953F4FF3
:103960004F4F5F4F089590958095709561957F4F6B
:103970008F4F9F4F08950E94E81CA59F900DB49F04
:10398000900DA49F800D911D11240895A1E21A2E7F
:10399000AA1BBB1BFD010DC0AA1FBB1FEE1FFF1FF3
:1039A000A217B307E407F50720F0A21BB30BE40B43
:1039B000F50B661F771F881F991F1A9469F760958A
:1039C0007095809590959B01AC01BD01CF01089544
:1039D000A29FB001B39FC001A39F700D811D112450
:1039E000911DB29F700D811D1124911D0895505895
:1039F000BB27AA270E940F1D0C94101E0E94021EB6
:103A000038F00E94091E20F039F49F3F19F426F483
:103A10000C94FF1D0EF4E095E7FB0C94F91DE92FC3
:103A20000E94211E58F3BA1762077307840795078F
:103A300020F079F4A6F50C94431E0EF4E0950B2EBD
:103A4000BA2FA02D0B01B90190010C01CA01A001F0
:103A50001124FF27591B99F0593F50F4503E68F14B
:103A60001A16F040A22F232F342F4427585FF3CF8C
:103A7000469537952795A795F0405395C9F77EF45D
:103A80001F16BA0B620B730B840BBAF09150A1F0A6
:103A9000FF0FBB1F661F771F881FC2F70EC0BA0F2C
:103AA000621F731F841F48F4879577956795B795B4
:103AB000F7959E3F08F0B0CF9395880F08F09927AF
:103AC000EE0F9795879508950E94D51D08F481E023
:103AD00008950E94291E88F09F5798F0B92F9927C2
:103AE000B751B0F0E1F0660F771F881F991F1AF0E9
:103AF000BA95C9F714C0B13091F00E94431EB1E0ED
:103B000008950C94431E672F782F8827B85F39F0EB
:103B1000B93FCCF3869577956795B395D9F73EF481
:103B200090958095709561957F4F8F4F9F4F089529
:103B3000E89409C097FB3EF4909580957095619547
:103B40007F4F8F4F9F4F9923A9F0F92F96E9BB27FD
:103B50009395F695879577956795B795F111F8CF79
:103B6000FAF4BB0F11F460FF1BC06F5F7F4F8F4FE4
:103B70009F4F16C0882311F096E911C0772321F0DA
:103B80009EE8872F762F05C0662371F096E8862F72
:103B900070E060E02AF09A95660F771F881FDAF7C9
:103BA000880F9695879597F90895990F0008550FF6
:103BB000AA0BE0E8FEEF16161706E807F907C0F0B3
:103BC00012161306E407F50798F0621B730B840BBB
:103BD000950B39F40A2661F0232B242B252B21F495
:103BE00008950A2609F4A140A6958FEF811D811D35
:103BF000089597F99F6780E870E060E008959FEF6F
:103C000080EC089500240A94161617061806090673
:103C1000089500240A941216130614060506089542
:103C2000092E0394000C11F4882352F0BB0F40F4CA
:103C3000BF2B11F460FF04C06F5F7F4F8F4F9F4F0A
:103C4000089557FD9058440F551F59F05F3F71F08C
:103C50004795880F97FB991F61F09F3F79F08795F3
:103C60000895121613061406551FF2CF4695F1DF7C
:103C700008C0161617061806991FF1CF869571050C
:103C8000610508940895E894BB2766277727CB0140
:103C900097F908950E94D51D08F48FEF08950E94AA
:103CA000621E0C94101E0E94021E38F00E94091E13
:103CB00020F0952311F00C94F91D0C94FF1D112494
:103CC0000C94441E0E94211E70F3959FC1F3950F22
:103CD00050E0551F629FF001729FBB27F00DB11D90
:103CE000639FAA27F00DB11DAA1F649F6627B00D20
:103CF000A11D661F829F2227B00DA11D621F739F09
:103D0000B00DA11D621F839FA00D611D221F749F16
:103D10003327A00D611D231F849F600D211D822F5D
:103D2000762F6A2F11249F5750409AF0F1F0882384
:103D30004AF0EE0FFF1FBB1F661F771F881F9150B1
:103D40005040A9F79E3F510580F00C94F91D0C944A
:103D5000441E5F3FE4F3983ED4F3869577956795CC
:103D6000B795F795E7959F5FC1F7FE2B880F911DDB
:103D70009695879597F90895DB018F939F930E94FD
:103D8000BB1CBF91AF91A29F800D911DA39F900D71
:103D9000B29F900D11240895AA1BBB1B51E107C0CF
:103DA000AA1FBB1FA617B70710F0A61BB70B881FCB
:103DB000991F5A95A9F780959095BC01CD0108955A
:103DC000EE0FFF1F0590F491E02D09940E94E81C6E
:103DD000332312F48A1B9B0B0C94F01E0E94E81CE8
:0E3DE000B7FF0895821B930B0895F894FFCF50
:103DEE000000803F00C18081000000FFFFFFFF0048
:103DFE00E1000000000000070104000036005A0038
:103E0E0075009A00D100E000EE003A017B0102023B
:103E1E0084020D032E033F0364037F03A403CD032B
:103E2E00FF0300000A0011001900230032004600B3
:103E3E005A00C8002C01F401BC028403B603CA0365
:103E4E00D403DE03EB03F503FF03000080089009A3
:103E5E00A00AB00BC00CD00DE00E00000000CF0782
:103E6E00B907E50762053408EA070C0800000000F0
:103E7E00470849084408400D00000000190992093E
:103E8E0057093C0900000000090ADD09C50AC40AE9
:063E9E004D4944490000FB
:00000001FF
