:100000000C942F030C9457030C9457030C94570330
:100010000C9457030C9457030C9457030C945703F8
:100020000C9457030C9457030C94F0100C946E111D
:100030000C9457030C9457030C9457030C945703D8
:100040000C9457030C9457030C9457030C945703C8
:100050000C9457030C9457030C9457030C94A6105C
:100060000C9457030C9457030C9457030C945703A8
:100070000C9457030C9457030C9457030C94570398
:100080000C9457030C9457030C9457030C94570388
:100090000C9457030C9457030C9457030C94570378
:1000A0000C9457030C9457030C9457030000000062
:1000B000000000002A2B28000000000000000000C3
:1000C0000000000000000000000000002C9E9F3196
:1000D000A1A2A3B1A5A6B030363837A4271E1F2091
:1000E000212223242526B7B632A7B2ADD484858633
:1000F0008788898A8B8C8D8E8F9091929394959618
:100100009798999A9B9D9CE5EDE600B8000405063A
:100110000708090A0B0C0D0E0F10111213141516F7
:100120001718191A1B1D1CE4F2E7F000000000006C
:10013000000000002A2B2800000000000000000042
:100140000000000000000000000000002C9E9FA0A6
:10015000E1A2A331A5A6B12D363837A4271E1F2052
:10016000212223242526B7B632A7B2ADDF848586A7
:100170008788898A8B8C8D8E8F9091929394959697
:100180009798999A9B9C9DE5F2E600B800040506B5
:100190000708090A0B0C0D0E0F1011121314151677
:1001A0001718191A1B1C1DE4EEE7000000000000E0
:1001B000000000002A2B28000000000000000000C2
:1001C0000000000000000000000000002C9E9FA026
:1001D000E1A2A331A5A6B12D363837A4271E1F20D2
:1001E000212223242526B7B632A7B2ADDF84858627
:1001F0008788898A8B8C8D8E8F9091929394959617
:100200009798999A9B9C9DE5EDE600B80004050639
:100210000708090A0B0C0D0E0F10111213141516F6
:100220001718191A1B1C1DE4F2E70000000000005B
:10023000000000002A2B2800000000000000000041
:100240000000000000000000000000002C9E9FA0A5
:10025000A1A2A32DA5A6AF2F363837A4271E1F2095
:10026000212223242526B7B632A7B2ADDF848586A6
:100270008788898A8B8C8D8E8F9091929394959696
:100280009798999A9B9C9DE535E600B80004050671
:100290000708090A0B0C0D0E0F1011121314151676
:1002A0001718191A1B1C1DE4B5E700000000000018
:1002B000000000002A2B28000000000000000000C1
:1002C0000000000000000000000000002C3820E0CA
:1002D00030B41E21222D31AE1023B6B7A79E9FA0A9
:1002E000A1A2A3A4A5A63736322EB290E7948586A4
:1002F0008788898A8B8C8D8E8FB391929384959603
:100300009798999D9B9C9AE2E5EDE625E4140506F5
:100310000708090A0B0C0D0E0F33111213041516E2
:100320001718191D1B1C1AE1E3EEDF000000000086
:10033000000000002A2B2800000000000000000040
:100340000000000000000000000000002C9E9FE064
:10035000A1A2A32DA5A6B030363837A4271E1F2092
:10036000212223242526B7B632A7B2ADDF848586A5
:100370008788898A8B8C8D8E8F9091929394959695
:100380009798999A9B9C9DEFF5F000B8000405069C
:100390000708090A0B0C0D0E0F1011121314151675
:1003A0001718191A1B1C1DF4DEF1000000000000D4
:1003B000000000002A2B28000000000000000000C0
:1003C0000000000000000000000000002CA19FDBE6
:1003D000F3A2C69EA5A6F8A0363837A3351E1F2067
:1003E000212223242526B7F6F2A4DDB6D9848586FA
:1003F0008788898A8B8C8D8E8F9091929394959615
:100400009798999A9B9D9CC9D4CAE0B8E4040506C4
:100410000708090A0B0C0D0E0F10111213141516F4
:100420001718191A1B1D1CC5DAD1DE0000000000C8
:10043000000000002A2B280000000000000000003F
:100440000000000000000000000000002C9E9FF44F
:10045000A1A2A32DA5A6B030363837A4271E1F2091
:10046000212223242526B7B632A7B2ADF384858690
:100470008788898A8B8C8D8E8F9091929394959694
:100480009798999A9B9C9DEF35F0AEB800040506AD
:100490000708090A0B0C0D0E0F1011121314151674
:1004A0001718191A1B1C1D00B5000000080B0002CC
:1004B00002020000090400000102020000052400FD
:1004C000100105240101010424020605240600018F
:1004D0000705810310004009040100020A00000022
:1004E00007050202400000070583024000000403E4
:1004F000090412010002EF0201404F1B3780000186
:1005000001020301537061726B46756E0053696D91
:10051000706C65466164657200000000002400276D
:10052000002A002D00300000000000250028002BCC
:10053000002E003100000000002300260029002CBE
:10054000002F000404040404030405020202020450
:10055000030202020206060606060604040202025E
:1005600004040408020110408040102040804080B4
:100570000802040180402010020110801020404039
:10058000200000000200090F0000030401000C001D
:10059000000000000000000000000000000000005B
:1005A000070605040100080A0B0C0D0900000000F5
:1005B000000000002A2B28000000000000000000BE
:1005C0000000000000000000000000002C9EB4A00D
:1005D000A1A2A434A6A7A5AE362D3738271E1F200A
:1005E000212223242526B333B62EB7B89F848586CF
:1005F0008788898A8B8C8D8E8F9091929394959613
:100600009798999A9B9C9D2F3130A3AD3504050690
:100610000708090A0B0C0D0E0F10111213141516F2
:100620001718191A1B1C1DAFB1B0B500050109063A
:10063000A1018502050719E029E7150025017501CB
:1006400095088102950175088103950675081500C6
:1006500025730507190029738100C000A013112418
:100660001FBECFEFDAE0DEBFCDBF11E0A0E0B1E00A
:10067000EAEAFFE302C005900D92A63BB107D9F765
:1006800024E0A6EBB1E001C01D92A93AB207E1F760
:1006900013E0CFE2D3E004C02197FE010E94BE1F09
:1006A000CE32D107C9F70E940E150C94D31F0C94BB
:1006B0000000E0EAF5E0E49190917B008E2F880F36
:1006C000880F80729F7D892B80937B00E770E064A8
:1006D000E0937C0080917A00806480937A0080911E
:1006E0007A0086FDFCCF8091780090917900089582
:1006F00081508F3008F047C0E82FF0E0EE57FC4FF4
:100700000C94BE1F9F03A303910397039B03C30392
:10071000C303C303A603AC03B003B403BA03C30308
:10072000BE03809180008F77809380000895809130
:1007300080008F7DF9CF80918000877FF5CF84B5D1
:100740008F7784BD089584B58F7DFBCF8091900015
:100750008F77809390000895809190008F7DF9CFDE
:1007600080919000877FF5CF8091C0008F77809334
:10077000C00008958091C0008F7DF9CF8091C200A4
:10078000877F8093C2000895CF93DF93EBE8F5E075
:100790008491ECE6F5E0D491EDE4F5E0C491CC234E
:1007A000A1F081110E947803EC2FF0E0EE0FFF1F03
:1007B000EB5CFA4FA591B491EC91ED2381E090E0D0
:1007C00009F480E0DF91CF91089580E090E0FACFC6
:1007D0001F93CF93DF93282F30E0F901EF57FA4FA3
:1007E0008491F901EE59FA4FD491F901ED5BFA4F7A
:1007F000C491CC23A9F0162F81110E947803EC2F0D
:10080000F0E0EE0FFF1FE95DFA4FA591B4918FB7AD
:10081000F894EC91111108C0D095DE23DC938FBFC2
:10082000DF91CF911F910895DE2BF8CFCF93DF9307
:1008300090E0FC01EE59FA4F24918D5B9A4FFC0138
:1008400084918823C9F090E0880F991FFC01E75E2E
:10085000FA4FA591B491FC01E95DFA4FC591D4918D
:1008600061110DC09FB7F8948C91209582238C93D1
:100870008881282328839FBFDF91CF91089562301C
:1008800051F49FB7F8943C91822F809583238C93E9
:10089000E8812E2BEFCF8FB7F894EC912E2B2C9371
:1008A0008FBFEACF1F93CF93DF93182FEB0161E047
:1008B0000E941604209739F460E0812FDF91CF91D8
:1008C0001F910C94E803CF3FD10511F461E0F5CFFF
:1008D000E12FF0E0EF57FA4FE491E150EF3008F0EC
:1008E0007FC0F0E0EA58FB4F0C94BE1F85048D04D6
:1008F00092049C04A604F004F004F004B004BA04CA
:10090000C404CE04DB04F004E30484B5806884BD31
:10091000C7BDDF91CF911F91089584B5806284BDDA
:10092000C8BDF7CF80918000806880938000D0930D
:100930008900C0938800EDCF809180008062809311
:100940008000D0938B00C0938A00E3CF8091800019
:10095000886080938000D0938D00C0938C00D9CFA5
:1009600080919000806880939000D0939900C0930C
:100970009800CFCF80919000806280939000D093B8
:100980009B00C0939A00C5CF8091900088608093AF
:100990009000D0939D00C0939C00BBCF8091C0007D
:1009A00080688093C0008091C0008F7B8093C000DE
:1009B000C093CF00AECF8091C00080628093C00012
:1009C000C093D000A6CF8091C20088608093C200FF
:1009D0008091C2008B7F8093C200C093D20099CFD8
:1009E000C038D1050CF072CF67CF3FB7F894809133
:1009F000350390913603A0913703B091380326B5A3
:100A0000A89B05C02F3F19F00196A11DB11D3FBF46
:100A1000BA2FA92F982F8827BC01CD01620F711D15
:100A2000811D911D42E0660F771F881F991F4A950F
:100A3000D1F708958F929F92AF92BF92CF92DF929B
:100A4000EF92FF924B015C010E94F5046B017C0167
:100A50000E94F5046C197D098E099F09683E734058
:100A600081059105A8F321E0821A9108A108B10837
:100A700088EEC80E83E0D81EE11CF11C811491049D
:100A8000A104B10429F7FF90EF90DF90CF90BF90C1
:100A9000AF909F908F9008952FB7F8946091310395
:100AA0007091320380913303909134032FBF0895E6
:100AB0008093E9008091F200882319F08AE3809303
:100AC000E800089583E00C9458054091C8015091C6
:100AD000C9012091C6013091C70142175307B4F4F0
:100AE0009091E8009570E1F39091E80092FD19C0B3
:100AF0008093F1008091C8019091C90101968F7394
:100B00009927892B19F48EEF8093E8008091C80112
:100B10009091C90101969093C9018093C80181E029
:100B2000089580E00895EF92FF920F931F93CF9363
:100B3000DF93F82E192FE62E042F81E0860F880F01
:100B40000E94650583E00E946505CF2DD12FEC0E34
:100B5000FD2EF11CCE15DF05B9F007FF13C0FE0115
:100B600084910E946505182F80E00E94650581230D
:100B700021968111EFCFDF91CF911F910F91FF90BF
:100B8000EF9008958881EDCF81E0F5CFDF92EF926D
:100B9000FF920F931F93CF93DF93D82E8A01EB011F
:100BA0007B01E40EF51ECE15DF0559F0D7FE12C00D
:100BB000FE0184910E94650521968111F4CF0FEF0B
:100BC0001FEFC801DF91CF911F910F91FF90EF9020
:100BD000DF9008958881EECF2FB7F89487708093C7
:100BE000E9009091E800892F807295FF04C09091F0
:100BF000F20080E4891B2FBF08957F928F929F920D
:100C0000AF92BF92CF92DF92EF92FF920F931F931A
:100C1000CF93DF93C82E8B017A018091CE01811191
:100C200010C08FEF9FEFDF91CF911F910F91FF9039
:100C3000EF90DF90CF90BF90AF909F908F907F907C
:100C400008958091CF0180FF05C08091E00082600F
:100C50008093E000CE2DDF2DD12C8AEFB82E8C2D85
:100C60008770982E8C2D8072882E8C2D8074782E13
:100C70009AE3A92E209719F4DD2009F452C08C2D97
:100C80000E94EC0581110AC0BA94BB2051F261E0C8
:100C900070E080E090E00E941A05ECCF8C171D06F2
:100CA00011F00CF08C2F9FB7F8949092E9002091EE
:100CB000E80025FD02C09FBFDDCF282F30E0C21B1A
:100CC000D30B882029F08150A0F01092F100FBCFC7
:100CD000F801C7FC0AC0815050F041914093F100E7
:100CE000FACF44914093F10031968150D0F7020F32
:100CF000131FDD2021F0A092E800D12CDCCF8091E1
:100D0000E80085FD07C0A092E800DD24D394209779
:100D100091F2F3CF209779F6772069F2A092E8005C
:100D2000CACF5D9A84E68093CC01C7017CCF9091B5
:100D3000CE01992319F13FB7F89487708093E900A9
:100D40008091F20090E0481759070CF4CA01282F4F
:100D5000FB0154E6215038F0289A5093CB01409182
:100D6000F1004193F7CF009739F02091F200211163
:100D700003C02BE62093E8003FBF08958FEF9FEF5D
:100D800008959FB7F89487708093E9008091F200EE
:100D90009FBF0895615030F02091F100FC01208345
:100DA0000196F8CF289A84E68093CB01089580912C
:100DB000BE0181110DC082E08093BA0184E080936E
:100DC000BB011092BD011092BC0181E08093BE0175
:100DD0008AEB91E008950F931F93CF93DF931F92B7
:100DE000CDB7DEB782E0898342E450E06CEA74E07C
:100DF00080E80E94C6050E94D706DC0112960D917C
:100E00001C910115110589F0D801ED91FC9102802A
:100E1000F381E02DBE016F5F7F4FC801099597FDFB
:100E200004C0F80100851185ECCF89810F90DF9116
:100E3000CF911F910F910895CF93DF93FC01DB01B8
:100E4000818114963C911497682F630F7727771F41
:100E5000683071059CF5C281D381209739F5B38341
:100E6000A283908112969C93129713968C9313975A
:100E700015968C911597890F808390E080E08317F9
:100E800008F52181C22FD0E0BE016C5F7E4F16961F
:100E90004D915C911797480F591FEA014881EB016A
:100EA00048832F5F21830196EACFEA01488559855F
:100EB00041155105D1F7B987A887D3CF80E0DF91DD
:100EC000CF91089581E0FBCFEF92FF921F93CF93D4
:100ED000DF931F92CDB7DEB77C018091A60381110D
:100EE0002CC011E01093990310939A038FE993E0BB
:100EF00090939C0380939B0310929E0310929D03FA
:100F00008DE991E090939603809395031092A1034D
:100F10001092A0031092A3031092A2031093A403B3
:100F20001093A50381EC80939F030E94D70665E987
:100F300073E00E941C071093A60382E0898341E0BE
:100F400050E0BE016F5F7F4F809198030E94FD05C6
:100F500097FD08C08091980348E050E0B701806495
:100F60000E94FD050F90DF91CF911F91FF90EF90B0
:100F70000895CF93DF93EC0180911601882331F01F
:100F800083E00E94FD051816190634F081E090E018
:100F90009B838A8380E090E0DF91CF910895CF9387
:100FA000DF931F92CDB7DEB76983DC01ED91FC9131
:100FB0000280F381E02D41E050E0BE016F5F7F4F82
:100FC00009950F90DF91CF91089583E00E94EC0581
:100FD00090E00895CF93DF931F92CDB7DEB7FC0169
:100FE0008485958597FD08C02FEF3FEF35872487CF
:100FF0000F90DF91CF91089541E050E0BE016F5F07
:101000007F4F82E00E949706019719F4898190E052
:10101000EFCF8FEF9FEFECCF0F931F93CF93DF9323
:101020001F92CDB7DEB78C01FC018485958597FFB3
:101030000FC041E050E0BE016F5F7F4F82E00E9431
:101040009706019771F4898190E0F801958784876C
:10105000F801848595850F90DF91CF911F910F91B5
:1010600008958FEF9FEFF1CFFC018485958597FD63
:1010700006C082E00E94C10690E00196089582E0D9
:101080000E94C10690E0089590E080E0089580E01D
:1010900008950F931F93CF93DF93CDB7DEB7C45658
:1010A000D1090FB6F894DEBF0FBECDBFFC01DB0146
:1010B0009C919E5F9C939E01295F3F4F8AE5D901D9
:1010C0001D928A95E9F788E089838BE08A8322E084
:1010D0002C8391E09D839E8339E0398764E06A87A1
:1010E0009E879F873A8B44E24B8B9C8BA0E0B1E0BC
:1010F000BE8BAD8B09E010E0188F0F8B998F3B8F63
:101100006C8F2F8F98A353E059A387E08CA34DA336
:101110009EA3B8A7AFA3A1E4B0E0BAA7A9A786E0B1
:101120008BA74CA72DA79EA79FA789AB4AAB2BAB3C
:101130002CAB2DAB3FAB48AF59AF9AAF5BAF9CAF79
:101140002DAF9EAF21963FAF219722964FAF2297AA
:1011500023965FAF239724962FAF249725966FAFE2
:10116000259726969FAF269727969FAF2797289675
:101170009FAF28972A963FAF2A9745E02B964FAF0F
:101180002B972D962FAF2D9760E470E02F967FAFB1
:101190006EAF2F9763964FAF639785E264968FAFDC
:1011A000649765969FAF659766969FAF66976796BB
:1011B0009FAF679768963FAF689769964FAF6997FB
:1011C0006B962FAF6B976D967FAF6EAF6D97A196B5
:1011D0004FAFA197A2968FAFA297A3969FAFA39769
:1011E000A4969FAFA497A5965FAFA59792819B8386
:1011F0009B879F5F9A8F9D8F83812C968FAF2C97B3
:101200008F5F80686A968FAF6A9744E650E0BE01B0
:101210006F5F7F4F80E00E94C605CC59DF4F0FB64D
:10122000F894DEBF0FBECDBFDF91CF911F910F911C
:101230000895DC01FB0112962C911297848195810F
:101240002817190641F491818081813A31F49D7FFC
:1012500081E0913009F080E008958132E1F79B3020
:1012600029F482811F968C9381E008959A3099F732
:10127000828150968C93F8CFDC01FB0188E4808357
:1012800089E4818384E482831D969C911D979F70DD
:101290009F5B93831D968D919C9124E096958795F5
:1012A0002A95E1F78F708F5B848385E00895EF9234
:1012B000FF920F931F93CF93DF93FB01208121387F
:1012C00071F52381223259F5DC0112964C9124816B
:1012D00035814217130619F5EC010B851C85F12C9D
:1012E000E12C0115110589F0F801448155816281D5
:1012F000738180E80E94C6058F3F980749F0E80E89
:10130000F91ED8010D911C91ECCF81E08F87C701A8
:10131000DF91CF911F910F91FF90EF90089590E092
:1013200080E0F6CFCF93DF93CDB7DEB769970FB6E6
:10133000F894DEBF0FBECDBFFC01DB018C918F5F47
:101340008C939E012D5F3F4F8DE0D9011D928A95B0
:10135000E9F729E0298384E08A8391E09D8383E093
:101360008E832A8721E22B879C879D879F8722E295
:10137000288B27E02B8B25E02C8B8E8B20E430E014
:10138000388F2F8B998F82818B8395858685998B5A
:101390008A8B838180688D8B49E150E0BE016F5F4D
:1013A0007F4F80E00E94C60569960FB6F894DEBFB5
:1013B0000FBECDBFDF91CF910895CF92DF92EF9214
:1013C000FF920F931F93CF93DF936C01EB017B018F
:1013D000E40EF51E10E000E0CE15DF0581F0699106
:1013E0006D30D1F3D601ED91FC910190F081E02DAB
:1013F000C6010995892B19F00F5F1F4FEDCFC8016A
:10140000DF91CF911F910F91FF90EF90DF90CF90E0
:101410000895EF92FF921F93CF93DF93EC01162F65
:10142000E8E7E60F683888F4862F90E067FF50C041
:10143000FC01E058F10921E030E001C0220FEA95FB
:10144000EAF78C81822B8C83E0E08E818E17D9F0B5
:101450008F81E817C1F08885E817A9F08985E8171A
:1014600091F08A85E81779F08B85E81761F0DE0145
:10147000169690E080E02D9121115EC08C0F9D1F8B
:10148000DC011696EC93CE0104960E946407EE24CC
:10149000E394F12C183848F11858DE0186E0112346
:1014A00041F016969C911697191303C016961C923C
:1014B0001697815011968111F2CFCE0104960E94A9
:1014C0006407C701DF91CF911F91FF90EF900895BE
:1014D000EC85FD85E80FF91FE491E11119C081E069
:1014E00090E09B838A83F12CE12C812F90E017FF01
:1014F0002FC0FC01E058F10981E090E001C0880FA5
:10150000EA95EAF780959C8189238C8310E0C5CF0A
:101510008E2F807C803C49F48C8180648C83EF73B7
:10152000E23309F092CFE4E690CFE7FFF9CF8C8168
:1015300082608C83EF77F4CF01968630910509F0B5
:101540009ACF81E090E09B838A83F12CE12CA2CF9B
:10155000EC85FD85E80FF91F1491112309F4B1CF33
:10156000812F807C803C49F48C818F7B8C831F731E
:10157000123309F092CF14E690CF17FFF9CF8C8188
:101580008D7F8C831F77F4CF089590E080E00895DD
:1015900080911A018430A9F48091240390E0FC0129
:1015A000E750FD4F208120930903FC01EF50FD4FD0
:1015B00020812093080387519D4FFC0180818093F7
:1015C000E80208954F925F926F927F928F929F925E
:1015D000AF92BF92CF92DF92EF92FF920F931F9341
:1015E000CF93A82EB62EC42F6801790120E030E0F9
:1015F000A901C701B8010E942E1E87FD6EC020E020
:1016000030E040E85FE3C701B8010E94141F1816DC
:101610000CF467C06A2D70E090E080E00E94641EC8
:10162000A70196010E94191F9B01AC0160E070E0C8
:101630008FE793E40E94C11D2B013C016B2D70E0EC
:1016400090E080E00E94641EA70196010E94191F8D
:101650009B01AC0160E070E08FE793E40E94C11D44
:101660004B015C016C2F70E090E080E00E94641EF2
:10167000A70196010E94191F9B01AC0160E070E078
:101680008FE793E40E94C11D6B017C01C301B2018D
:101690000E94331E70E083E00E945204C501B40131
:1016A0000E94331E70E085E00E945204C701B6011B
:1016B0000E94331E70E086E0CF911F910F91FF9042
:1016C000EF90DF90CF90BF90AF909F908F907F90E2
:1016D0006F905F904F900C945204C12CD12C7601E6
:1016E00099CFC12CD12C80E8E82E8FE3F82E92CF31
:1016F0000F931F938A019B018D3008F040C0E82FA3
:10170000F0E0EB57F44F0C94BE1F920B960B990B25
:101710009C0B9F0BA30BA50BA80BAA0BAD0BB50B3A
:10172000B90BBD0B4BEC60EC8FEF1AC040E060E0F2
:10173000FBCF40E064E1F8CF40E060E5F5CF40E06A
:101740006FEF80E00DC04FEFFBCF4FEF60E0F9CFC0
:101750004FEFEDCF42E362E3E7CF4FEF66E98DEA6B
:101760000E94E20A1F910F91089543E16EE18BE818
:10177000F7CF40E96FEF80E9F3CF46E9DECF40E0F5
:10178000E5CF0F931F9380911403833620F081E0FF
:101790008093190108C08B52883308F048C082E05A
:1017A0008093190186E08093E8020E944C05009125
:1017B000B6011091B7012091B8013091B901601BB9
:1017C000710B820B930B693C71058105910560F1EA
:1017D00020E030E0A9016091000170910101809149
:1017E0000201909103010E942E1E40E050E0BA01D8
:1017F000811104C040E050E060E87FE340930001C5
:101800005093010160930201709303018091E802FB
:101810000E94780B0E944C056093B6017093B7014B
:101820008093B8019093B9011F910F91089583E0BF
:10183000AFCFCF93C091E80240E050E060E87FE393
:101840008C2F0E94780B64E670E080E090E00E94AC
:101850001A0580911C0340E050E0BA01811104C0D8
:101860004DEC5CEC6CEC7EE38C2FCF910C94780B00
:10187000E091E402E930A0F4F0E0EF5BF34F0C9468
:10188000BE1F4A0C510C540C570C5A0C5D0C600CCA
:10189000630C660C8CEA95E09093C9038093C803AF
:1018A00008958CE294E0F8CF8CEA93E0F5CF8CE2D7
:1018B00093E0F2CF8CEA92E0EFCF8CE292E0ECCFB3
:1018C0008CEA91E0E9CF8CE291E0E6CF8CEA90E0FF
:1018D000E3CF0F931F93CF93DF9300D000D0CDB70A
:1018E000DEB78C01262FFC01848195813681303F43
:1018F000D9F0009711F4208704C08130910581F45C
:101900006187F801848195810196958384830F9086
:101910000F900F900F90DF91CF911F910F9108952D
:10192000029779F76287EDCF603F49F48385F0E154
:101930008F9FC00111248460F8018783DCCF63E0AE
:1019400070E00E94961FAC01273F39F49385929571
:10195000907F85E0840F982B9783F80141155105FE
:1019600021F4208712861186CCCF4130510519F41D
:1019700021871286C6CF2287273F19F2908581855D
:10198000378139839A838B832C8380918C0344E045
:1019900050E0BE016F5F7F4F8F5F0E94FD05809119
:1019A0008C038F5F0E945805ACCFFF920F931F935B
:1019B000CF93DF9300D000D0CDB7DEB721502031D8
:1019C00008F054C0042FF62E182FE091F703F09181
:1019D000F8038683A82FA295AF70A750BB0BAA0F60
:1019E000BB1FA559BE4F838590E1899FA00111249B
:1019F00011968C91842B878312861186108615820E
:101A00001482612F622B8091F7039091F8030E945A
:101A1000690C6F2D6F778091F7039091F8030E9406
:101A2000690C103C41F0602F6F778091F703909123
:101A3000F8030E94690CE091F703F091F803208508
:101A400091858285378139832A839B838C8380911A
:101A50008C0344E050E0BE016F5F7F4F8F5F0E94B8
:101A6000FD0580918C038F5F0E9458050F900F90A9
:101A70000F900F90DF91CF911F910F91FF900895DC
:101A800084E0E1EBF1E0DB0101900D928A95E1F752
:101A900084E008951F93CF93DF93EC01162F0E94EB
:101AA000501D181739F0612FCE01DF91CF911F9192
:101AB0000C94581DDF91CF911F9108950C94501DE7
:101AC000CF92DF92EF92FF920F931F93CF93DF930A
:101AD00080911901813009F027C18091E7028F3F81
:101AE00089F4C9EFD2E0A1EFB2E0E9EEF2E080E0E4
:101AF00097E089939D9381938F5F8830D1F71092FF
:101B00002403FFC082E390E00E945E0DC82F809303
:101B10001A018CE590E00E945E0D91E0811101C0F8
:101B200090E0909315038BE590E00E945E0D91E0AC
:101B3000811101C090E090931C0384E690E00E9424
:101B40005E0D809317018FE590E00E945E0D8093FB
:101B5000240382E690E00E945E0D91E0811101C0B5
:101B600090E090931801C230C1F1C33009F47CC0F9
:101B7000C13009F0A2C08CE390E00E945E0D80931A
:101B800009038DE390E00E945E0D809308038EE3CD
:101B900090E00E945E0D8093E80280E590E00E9454
:101BA0005E0DD82F8093E60281E590E00E945E0DE5
:101BB000C82F8093E50283E690E00E945E0D80933B
:101BC000E4020E94380C20E8C29FC00111248D2B32
:101BD000909311038093100394C087E490E00E94D7
:101BE0005E0D80930E0386E490E00E945E0D80936C
:101BF0000D038CE390E00E945E0D809309038DE35A
:101C000090E00E945E0D809308038EE390E00E94B6
:101C10005E0D8093E8028AE590E00E945E0D91E0FF
:101C2000811101C090E090931F038DE590E00E9428
:101C30005E0D91E0811101C090E090931E038EE54E
:101C400090E00E945E0D91E0811101C090E09093C0
:101C50001D0381E690E00E945E0D91E0811101C0BC
:101C600090E090931C034DC087E490E00E945E0DCD
:101C700080930E0389E490E00E945E0D80930C0334
:101C80008CE390E00E945E0D809309038DE390E069
:101C90000E945E0D809308038EE390E00E945E0D2B
:101CA0008093E8028AE590E00E945E0D91E0811148
:101CB00001C090E090931F0324C049EFC42E42E07E
:101CC000D42E51EFE52E52E0F52E09EE12E0C1E0E0
:101CD000D0E0CE010E945E0DF60181936F01CE012E
:101CE00008960E945E0DF70181937F01CE01409618
:101CF0000E945E0DF80181938F012196C930D105B4
:101D000041F70E944C056093180370931903809368
:101D10001A0390931B03DF91CF911F910F91FF90B6
:101D2000EF90DF90CF900895823009F007C186E9E7
:101D300090E00E945E0DC82F80931A0180EC90E025
:101D40000E945E0D91E0811101C090E09093150317
:101D50008FEB90E00E945E0D91E0811101C090E058
:101D600090931C0386EC90E00E945E0D91E081113F
:101D700001C090E09093180188EC90E00E945E0D05
:101D80008093170183EC90E00E945E0D8093240302
:101D9000C23099F1C33009F46FC0C13009F08DC071
:101DA00080EA90E00E945E0D8093090381EA90E052
:101DB0000E945E0D8093080382EA90E00E945E0D0F
:101DC0008093E80284EB90E00E945E0DD82F809310
:101DD000E60285EB90E00E945E0DC82F8093E5023D
:101DE00087EC90E00E945E0D8093E4020E94380C24
:101DF000F0E8CF9FC0011124EACE8BEA90E00E9468
:101E00005E0D80930E038AEA90E00E945E0D80933F
:101E10000D0380EA90E00E945E0D8093090381EA41
:101E200090E00E945E0D8093080382EA90E00E9499
:101E30005E0D8093E8028EEB90E00E945E0D91E0D3
:101E4000811101C090E090931F0381EC90E00E940B
:101E50005E0D91E0811101C090E090931E0382EC31
:101E600090E00E945E0D91E0811101C090E090939E
:101E70001D0385EC90E0EFCE8BEA90E00E945E0DB2
:101E800080930E038DEA90E00E945E0D80930C0318
:101E900080EA90E00E945E0D8093090381EA90E061
:101EA0000E945E0D8093080382EA90E00E945E0D1E
:101EB0008093E8028EEB90E0F7CECF3F29F129EF37
:101EC000C22E22E0D22E31EFE32E32E0F32E09EEC5
:101ED00012E0C5E6D0E0CE010E945E0DF6018193CE
:101EE0006F01CE0108960E945E0DF70181937F017C
:101EF000CE0140960E945E0DF80181938F012196DC
:101F0000CD36D10541F7FDCE84E080931A011092C1
:101F1000150310921C0387E080931701109224038D
:101F2000C9EFD2E0A1EFB2E0E9EEF2E080E0199271
:101F30008D9381938F5F8830D1F7E3CE833009F0A2
:101F4000E0CE8AEF90E00E945E0DC82F80931A01C8
:101F500084E291E00E945E0D91E0811101C090E069
:101F60009093150383E291E00E945E0D91E0811150
:101F700001C090E090931C038AE291E00E945E0D04
:101F800091E0811101C090E0909318018CE291E002
:101F90000E945E0D8093170187E291E00E945E0D22
:101FA00080932403C23049F1C33009F46DC0C130BD
:101FB00009F08BC084E091E00E945E0D80930903DC
:101FC00085E091E00E945E0D8093080386E091E039
:101FD0000E945E0D8093E80288E191E00E945E0D10
:101FE000D82F8093E60289E191E00E945E0DC82F10
:101FF0008093E5028BE291E0F5CE8FE091E00E94C4
:102000005E0D80930E038EE091E00E945E0D809342
:102010000D0384E091E00E945E0D8093090385E04A
:1020200091E00E945E0D8093080386E091E00E949B
:102030005E0D8093E80282E291E00E945E0D91E0E5
:10204000811101C090E090931F0385E291E00E940E
:102050005E0D91E0811101C090E090931E0386E235
:1020600091E00E945E0D91E0811101C090E090939B
:102070001D038AE291E00E945E0D91E0811101C092
:1020800090E0909318013DCE8FE091E00E945E0DAC
:1020900080930E0381E191E00E945E0D80930C031A
:1020A00084E091E00E945E0D8093090385E091E059
:1020B0000E945E0D8093080386E091E00E945E0D11
:1020C0008093E80282E291E0EFCDCF3F29F189EFE2
:1020D000C82E82E0D82E91EFE92E92E0F92E09EE7B
:1020E00012E0C9ECD0E0CE010E945E0DF6018193B2
:1020F0006F01CE0108960E945E0DF70181937F016A
:10210000CE0140960E945E0DF80181938F012196C9
:10211000C13DD10541F7F5CD84E080931A011092BD
:10212000150310921C0387E080931701109224037B
:10213000C9EFD2E0A1EFB2E0E9EEF2E080E08993EE
:102140008D9381938F5F8830D1F7DBCD1F920F92F3
:102150000FB60F9211242F933F938F939F93AF93BA
:10216000BF938091310390913203A0913303B091DA
:1021700034033091300323E0230F2D3758F50196B7
:10218000A11DB11D2093300380933103909332033E
:10219000A0933303B09334038091350390913603B9
:1021A000A0913703B09138030196A11DB11D809312
:1021B000350390933603A0933703B0933803BF9150
:1021C000AF919F918F913F912F910F900FBE0F90E4
:1021D0001F90189526E8230F0296A11DB11DD2CF9E
:1021E0001F920F920FB60F9211242F933F934F938C
:1021F0005F936F937F938F939F93AF93BF93CF938F
:10220000EF93FF93C091E1008091E100837F809381
:10221000E100C3FF0FC01092E90081E08093EB0062
:102220001092EC0082E38093ED001092CE0188E0E2
:102230008093F000C2FF1BC083E00E94580580918C
:10224000CC01882341F08091CC0181508093CC0156
:10225000811101C05D988091CB01882341F080916C
:10226000CB0181508093CB01811101C02898C4FF1C
:1022700023C08091E2008E7E81608093E200809195
:10228000E1008F7E8093E1008091CF018E7E80619E
:102290008093CF01FF91EF91CF91BF91AF919F912B
:1022A0008F917F916F915F914F913F912F910F90FF
:1022B0000FBE0F901F901895C0FFECCF8091E200E9
:1022C0008E7E80618093E2008091E1008E7E80931B
:1022D000E1008091CF018E7E8160DACF1F920F9254
:1022E0000FB60F921124CF92DF92EF92FF920F93CD
:1022F0001F932F933F934F935F936F937F938F938E
:102300009F93AF93BF93EF93FF93CF93DF93CDB79B
:10231000DEB76C97DEBFCDBF1092E9008091E80078
:1023200083FF25C068E0CE0145960E94CA0682EF71
:102330008093E8008D8987FF39C09091E80090FF75
:10234000FCCF982F907609F034C19E894F89588D23
:102350002F89F88C911131C0803861F58091CD01C1
:102360008093F1001092F1008EEF8093E8006C965C
:102370000FB6F894DEBF0FBECDBFDF91CF91FF91B6
:10238000EF91BF91AF919F918F917F916F915F91ED
:102390004F913F912F911F910F91FF90EF90DF9000
:1023A000CF900F900FBE0F901F9018959EEF9093B7
:1023B000E800C7CF1092F100D5CF913059F48111C8
:1023C000D3CF4130510581F68091CD018D7F80932F
:1023D000CD01CACF933049F48111C6CF41305105A8
:1023E00019F68091CD018260F2CF953041F4809151
:1023F000E80080FFFCCF20682093E300B5CF963043
:1024000009F0A9C00B8D1C8D22E01092E9001092FA
:10241000C9011092C801F2122EC01092C701109289
:10242000C6010E94EB061F8299E09983FA8291E02F
:102430009E8390EA98879AEF99872091C8013091FE
:10244000C901275F3F4F3C832B838D831092E900A6
:102450001092C9011092C8011093C7010093C601E0
:1024600049E050E0BE016F5F7F4F80E00E94C605EB
:102470000E94EB0679CF1093C7010093C6010E941A
:10248000D706DC0112960D911C910115110509F476
:1024900051C1D801ED91FC910480F581E02DBE0180
:1024A0006B5E7F4FC8010995009709F03EC1F801A6
:1024B00000851185EACFF3E0FF120EC08F898823D3
:1024C00009F440C0823061F440E86BE08DE095E0B3
:1024D0000E949305811148CF81E28093EB0047CFA2
:1024E000813029F440E868E084E095E0F1CF833062
:1024F00099F70E94D706DC011296ED90FC908E01B0
:102500000F5F1F4F6801E114F10479F0D701ED91DD
:10251000FC910680F781E02DB801C7010995080FED
:10252000111DF701E084F184EECFD8011C92F60171
:1025300001900020E9F73197BF016C197D0940E057
:10254000C601C6CF6EEE74E0FB01449150E080E816
:102550000E94C60509CF973009F4BECF983021F408
:1025600081E08093F10000CF993009F0FDCE8370B7
:1025700009F0B2CFE5E0F1E081E031E096E32191AE
:10258000222371F08093E9003093EB00DF01119773
:102590002C912093EC009093ED008F5F873079F7BA
:1025A0008EE78093EA001092EA008F898093CE0133
:1025B000DBCE8B8D9C8D1092E9001092C901109298
:1025C000C8019093C7018093C601898D811192C083
:1025D0008E899D89913A49F4813209F07DCF47E097
:1025E00050E06FE071E080E0B3CF913209F074CF3A
:1025F000833269F48F89988DB0E0A0E080930B015D
:1026000090930C01A0930D01B0930E01ADCE8032DA
:1026100069F48091E80082FFFCCF67E08FE091E0F1
:102620000E94CA068BEF8093E8009ECE823209F0AA
:102630009BCE8F8980931601EEEFFFE785919491F1
:102640008B3F9C4D51F1E0E0F8E080910F019091BB
:102650001001A0911101B0911201803B9440A1059D
:10266000B105F1F48091160180FD1AC0EE3F8AE0B9
:10267000F80789F587E797E7918380838091600069
:102680008093CA0188E19BE00FB6F894A8958093E7
:1026900060000FBE9093600067CEEEEFFAE0D5CFFA
:1026A000808191818737974709F05ECEA895809108
:1026B00060008861809360008091CA01809360000F
:1026C000EE3F2AE0F20789F08091FE0A9091FF0A1E
:1026D0009183808349CE808191818737980751F219
:1026E0009093FF0A8093FE0AC5CF1092FF0A1092C2
:1026F000FE0A3ACE0E94D706DC0112960D911C917B
:102700000115110509F4E8CED801ED91FC91019075
:10271000F081E02DBE016B5E7F4FC80109958111EC
:1027200023CEF80100851185EBCF181619060CF49D
:102730001BCED2CEF1E0FF12BECE62EF74E004CF2A
:10274000CF9310923C0310923B0388EE93E0A0E0FD
:10275000B0E080933D0390933E03A0933F03B0937A
:1027600040038FE791E090933A03809339038FEF12
:102770009FEF909346038093450382E080938D03FF
:1027800080938E0383E993E09093900380938F036B
:10279000109292031092910381E991E090938A0341
:1027A0008093890380E88093930381E88093940366
:1027B0000E94D70669E873E00E941C071092BF03CD
:1027C0001092BE0389EA91E09093BD038093BC030D
:1027D0008091B403811113C01092AF031092AE0325
:1027E0008CE296E09093B1038093B0038FE290E087
:1027F0009093B3038093B20381E08093B4038091FC
:10280000A60381112CC0C1E0C0939903C0939A0321
:102810008FE993E090939C0380939B0310929E0317
:1028200010929D038DE991E0909396038093950318
:102830001092A1031092A0031092A3031092A2037E
:10284000C093A403C093A50381EC80939F030E94CF
:10285000D70665E973E00E941C07C093A603E091C8
:10286000A003F091A103309709F0CFC08EEA93E066
:102870009093A1038093A0038091A2039091A3035E
:102880002091B2033091B303820F931F9093A3035F
:102890008093A2038CEA95E09093C9038093C803C8
:1028A0001092A8048091CC038F5F8093CC03809119
:1028B000CA039091CB0381609093CB038093CA03AA
:1028C0001092CE031092CD031092D0031092CF033A
:1028D0001092D2031092D1031092D4031092D3031A
:1028E0001092D6031092D5031092D8031092D703FA
:1028F0001092DA031092D9031092DC031092DB03DA
:102900001092DE031092DD031092E0031092DF03B9
:102910001092E2031092E1031092E4031092E30399
:102920001092E6031092E5031092E8031092E70379
:102930001092EA031092E9031092EC031092EB0359
:102940001092EE031092ED031092F0031092EF0339
:102950001092F2031092F1031092F4031092F30319
:102960001092F6031092F5038DE994E09093F8032A
:102970008093F7031092F9031092FA031092FB036D
:10298000109200041092FF031092020410920104AE
:102990008FEF9FEF909304048093030490930604B9
:1029A0008093050483E0809307041092080410923A
:1029B000090410920A0410920B0410928C04ECE0AB
:1029C000F4E080E8DF011D928A95E9F710928F0408
:1029D0001092900410929104109292041092930419
:1029E00010929404109295041092960410929704F9
:1029F000109298041092990410929A0410929B04D9
:102A000010929C04CF910895FC01808191810097E0
:102A1000D9F78EEA93E0918380832ECFCF93DF9313
:102A200000D000D000D01F92CDB7DEB7789484B527
:102A3000826084BD84B5816084BD85B5826085BDBA
:102A400085B5816085BD80916E00816080936E0048
:102A5000109281008091810082608093810080913A
:102A600081008160809381008091800081608093EB
:102A7000800080919100826080939100809191000C
:102A8000816080939100809190008160809390009C
:102A90008091C10084608093C1008091C1008260F8
:102AA0008093C1008091C10081608093C1008091BA
:102AB000C30081608093C3008091C00082608093D6
:102AC000C0008091C20081608093C20080917A0032
:102AD000846080937A0080917A00826080937A008B
:102AE00080917A00816080937A0080917A0080687A
:102AF00080937A001092CE011092CD011092CF01F6
:102B00008091D70081608093D70080EA8093D800BD
:102B100089B5806189BD89B5826089BD09B400FE2F
:102B2000FDCF61E070E080E090E00E941A058091A6
:102B3000D8008F7C80618093D8008091E000807FF6
:102B40008093E0008091E1008E7E8093E1008DE033
:102B50008093E200559A209A5D98289860E08EE173
:102B60000E94160460E081E10E94160483E00E9446
:102B7000580562E08AE00E94160461E089E00E9444
:102B8000160461E083E00E94160461E085E00E9483
:102B9000160461E086E00E94160461E089E00E946C
:102BA000E80390E080E00E945E0D8093E70281E2FE
:102BB00090E00E945E0D809319018F3F19F481E02F
:102BC000809319010E94600D0E94C80A0E94190C8E
:102BD0000E9459039093170380931603FF24F394E4
:102BE000E2E0EE2E8091CF0180FF21C080912E0384
:102BF000811110C040E050E0BA018091E8020E94CB
:102C0000780B80916400816080936400F0922F03C0
:102C1000F0922E0364E670E080E090E00E941A05D6
:102C200020E030E0232BF1F20E940000D7CF80910A
:102C30002F03882359F00E94190C809164008E7F25
:102C40008093640010922F0310922E030E944C0573
:102C500060932A0370932B0380932C0390932D038E
:102C600020911A01243051F520912903211126C009
:102C7000009125031091260320912703309128030A
:102C8000601B710B820B930B6133754781059105B6
:102C9000A8F00E944C05609325037093260380934F
:102CA00027039093280360912403809119018130B8
:102CB00009F0FEC18FE590E00E944A0D80911A0153
:102CC000823009F044C080912903811140C0809175
:102CD0002A0390912B03A0912C03B0912D034091D6
:102CE0002003509121036091220370912303841BE0
:102CF000950BA60BB70B81339547A105B10538F1AC
:102D00000E944C056093200370932103809322035B
:102D10009093230360911F0380911901813009F082
:102D2000CAC18AE590E00E944A0D60911E038DE5BC
:102D300090E00E944A0D60911D038EE590E00E9494
:102D40004A0D60911C0381E690E00E944A0D80913B
:102D50002903811129C080912A0390912B03A0910E
:102D60002C03B0912D0340911803509119036091E9
:102D70001A0370911B03841B950BA60BB70B8133B1
:102D80009547A105B10580F00E944C05609318039A
:102D90007093190380931A0390931B036091190198
:102DA00081E290E00E944A0D8091D0029091D10280
:102DB000A091D202B091D3024091D4025091D50299
:102DC0006091D6027091D702841B950BA60BB70BAE
:102DD0008F739927AA27BB27892B8A2B8B2B09F462
:102DE00085C18091D4029091D502A091D602B09174
:102DF000D702880F991F880F991FFC01E053FE4FDF
:102E0000D08071817D83028113814091D0025091E5
:102E1000D1026091D2027091D3028091D40290913C
:102E2000D502A091D602B091D702481759076A0778
:102E30007B07B9F08091D4029091D502A091D6027F
:102E4000B091D7020196A11DB11D8F739927AA27B2
:102E5000BB278093D4029093D502A093D602B0935F
:102E6000D7020E9459032090160330901703209137
:102E70001801222309F4BDC12091E2023091E3023E
:102E8000F901EE0FFF1FE652FD4F91838083C901C8
:102E9000019664E070E00E94AA1F9093E302809381
:102EA000E2024090DC025090DD02052C000C660826
:102EB00077086091DA027091DB02072E000C880B14
:102EC000990B460E571E681E791E8091DE02909166
:102ED000DF02092E000CAA0BBB0B480E591E6A1EFE
:102EE0007B1E8091E0029091E102092E000CAA0B5A
:102EF000BB0BBC01CD01640D751D861D971D24E023
:102F000030E040E050E00E94661D8091D802909130
:102F1000D902B901681B790BCB0177FF03C09195EA
:102F200081959109029724F03093D9022093D80219
:102F30006091D8027091D902161617060CF053C191
:102F40006F3F83E078070CF051C1E3E4F1E090E0DB
:102F500080E041905190AC014F5F5F4F6415750563
:102F60000CF43BC1208131813F832E832617370724
:102F70000CF433C1880F991FFC01E55EFE4F808081
:102F80009180092C000CAA08BB08052C000C6608CF
:102F90007708440F551FFA01E55EFE4F208131810D
:102FA000032E000C440B550B281939094A095B09FB
:102FB000072E000C880B990B64197509860997096F
:102FC0000E94861FEE81FF819F01FF0F440B550B6E
:102FD00024193509460957090E94661D280D391D17
:102FE0004A1D5B1DB9016219730984E075956795E7
:102FF0008A95E1F7260E371E3092170320921603AA
:103000008091160390911703893E934034F028EE87
:1030100033E03093170320931603C0902903C110A7
:1030200010921503A0911603B09117038091150318
:103030008111E9C02FE730E00E94CC1F28EE33E079
:1030400040E050E00E94661D20931403C1100E94CE
:10305000C10B0E94C403892B09F01AC10E944C05C0
:103060002B013C01409220035092210360922203E5
:10307000709223030E94C403892B09F0E0C00E94D0
:103080004C056419750986099709613D77408105EA
:10309000910508F4C8C0F0922903F09213030E942E
:1030A000C10B62E370E080E090E00E941A05E2CF7D
:1030B00083EC90E001CE8EEB90E00E944A0D60918F
:1030C0001E0381EC90E00E944A0D60911D0382EC8A
:1030D00090E00E944A0D60911C0385EC90E00E94F4
:1030E0004A0D6091180186EC90E02FCE80918C0300
:1030F0000E94C106D82E882309F46BC04090D002EC
:103100005090D1026090D2027090D3028FEF481A93
:10311000580A680A780A9FE34922552466247724CE
:103120008091D4029091D502A091D602B091D7029D
:1031300084159505A605B705C9F180918C030E94F9
:10314000C10644E050E0BE016F5F7F4F80918C0369
:103150000E949706049754F18091D0029091D10279
:10316000A091D202B091D302880F991F880F991FA6
:1031700080539E4F49815A816B817C81FC01408341
:103180005183628373834092D0025092D102609245
:10319000D2027092D302FFEF4F1A5F0A6F0A7F0AC2
:1031A0002FE34222552466247724BACF8091D4029B
:1031B0009091D502A091D602B091D702880F991FA5
:1031C000880F991FFC01E053FE4FD08031813D8371
:1031D0001ACE10E000E01D8218CECA01433151051D
:1031E00009F0B7CE00CF70E060E0FDCE6FEF73E086
:1031F000FACE82199309B4E095958795BA95E1F7CF
:10320000280E391EF9CE9D01A1E8BFEF0E94C41F10
:1032100028EE33E040E050E00E94661D21583F4F09
:103220004F4F5F4F11CF80912903882309F439CF85
:1032300010922903F09212030E94600D32CF809108
:103240002903811125C080911203811111C0809141
:103250001A01823009F493C0833009F4CDC0813063
:1032600009F0D3C0609110038CEB93E00E94090A2F
:10327000109212030E94C80A0E94190C0E944C0569
:10328000609325037093260380932703909328036C
:10329000C090140380910B03C81609F4C7C0809135
:1032A00029038111BDCC8091130381110DC02091A0
:1032B00009032F5F80910A038111B4C04C2D6091E6
:1032C000080380EB0E94D50CC0920B0310921303ED
:1032D000DD2009F4A5CC6D81607F762E6093070315
:1032E0007D817F70972E70930603009305031093E2
:1032F0000403C12ED12CC601A3E095958795AA950C
:10330000E1F7E82FEF706E2EE0930303F12FF770D3
:103310008F2EF09302032D812F3861F4113051F478
:103320001093010321E047E36BE080E80E94D50C95
:103330000E94190C80910103882309F471CC30E8B4
:103340007312C4C0123009F07AC09092090300933E
:10335000080310920A0380911701801718F40F5F79
:10336000009317010E94190C0E944C0560932503DD
:1033700070932603809327039093280351CC809168
:103380001E03882329F090911C039F2590931C0312
:10339000C0901F0390911D0391110EC090910F03D7
:1033A000992321F0882311F0C11008C020910E0349
:1033B0004FE760910D030FC08823D1F080910F0378
:1033C0008823B1F060910D0320910E03F0921D034C
:1033D00010920F0340E080EB0E94D50CCC2029F026
:1033E00080911D038F2580931D030E944C0540CFC3
:1033F00020910E0340E0DDCF20910E0340E060916C
:103400000C0380EC0E94D50C33CF809124038F5F96
:103410008093240390911701981708F029CF1092F8
:10342000240326CF40E06C2D80EC4CCFDD2009F446
:10343000F7CB80912903882309F44DCFF1CB1A30C3
:1034400041F4939490920E0300930D03E0921A01BD
:1034500089CF1B3071F481E0911001C080E080932E
:103460001E039110F0920F03E0921A0110921D03B7
:1034700079CF183249F4939490920E0300930C0381
:1034800063E060931A016ECF1D3229F4F0920A03B3
:103490009092090367CF123339F481E0911001C093
:1034A00080E0809315035ECF1F3139F481E09110E5
:1034B00001C080E080931F03D7CF133251F581E024
:1034C000911001C080E0809318014CCF70EC77120E
:1034D0000BC010920A0301500093170184E08093FF
:1034E0001A010E94C80A3ECF90EA7912C1C2882D03
:1034F00090E0FC01E750FD4F9082FC01EF50FD4F42
:10350000008387519D4FFC016082F4E0F0931A0123
:10351000E8CF1E3119F40093E80224CF1E3631F4AF
:1035200080911C038F2580931C031CCF133009F05E
:1035300019CF8091E7028F3F39F4F092E70261E002
:1035400090E080E00E944A0D9091190180911A014B
:10355000913009F0E2C0823009F455C0833009F49B
:103560008DC0813009F0ADC0609109038CE390E01B
:103570000E944A0D609108038DE390E00E944A0D7D
:103580006091E8028EE390E00E944A0D6091E602AD
:1035900080E590E00E944A0D6091E50281E590E0AF
:1035A0000E944A0D6091E40283E690E00E944A0D79
:1035B0006091180182E690E00E944A0D60911A0124
:1035C00082E390E00E944A0D60911C038BE590E03D
:1035D0000E944A0D609115038CE590E00E944A0D0F
:1035E00060910A0380E690E00E944A0D60912403F6
:1035F0008FE590E00E944A0D6091190181E290E010
:103600000E944A0DAFCE60910E0387E490E00E94C5
:103610004A0D60910D0386E490E00E944A0D60918E
:1036200009038CE390E00E944A0D609108038DE34A
:1036300090E00E944A0D6091E8028EE390E00E94C3
:103640004A0D60911F038AE590E00E944A0D609147
:103650001E038DE590E00E944A0D60911D038EE5EA
:1036600090E00E944A0D60911C0381E690E00E9468
:103670004A0D6091180182E690E098CF60910E03A8
:1036800087E490E00E944A0D60910C0389E490E089
:103690000E944A0D609109038CE390E00E944A0D5C
:1036A000609108038DE390E00E944A0D6091E8026A
:1036B0008EE390E00E944A0D60911F038AE590E03E
:1036C00075CF79EF472E72E0572EE1EF6E2EE2E0D4
:1036D0007E2EF9EECF2EF2E0DF2E01E010E0F201B7
:1036E00061912F01C8010E944A0DF30161913F01D0
:1036F000C80108960E944A0DF60161916F01C80148
:1037000040960E944A0D0F5F1F4F0930110539F78F
:103710006091170184E690E049CF923009F0D4C05F
:10372000823009F447C0833009F47FC0813009F04A
:103730009FC06091090380EA90E00E944A0D609169
:10374000080381EA90E00E944A0D6091E80282EA53
:1037500090E00E944A0D6091E60284EB90E00E94A6
:103760004A0D6091E50285EB90E00E944A0D609160
:10377000E40287EC90E00E944A0D60911A0186E90C
:1037800090E00E944A0D60911C038FEB90E00E9434
:103790004A0D6091150380EC90E00E944A0D609103
:1037A0000A0384EC90E00E944A0D6091240383ECAC
:1037B00090E020CF60910E038BEA90E00E944A0DCA
:1037C00060910D038AEA90E00E944A0D609109031E
:1037D00080EA90E00E944A0D6091080381EA90E03F
:1037E0000E944A0D6091E80282EA90E00E944A0D30
:1037F00060911F038EEB90E00E944A0D60911E03C2
:1038000081EC90E00E944A0D60911D0382EC90E0F3
:103810000E944A0D60911C0385EC90E00E944A0DC5
:103820006091180186EC90E0A6CF60910E038BEAC0
:1038300090E00E944A0D60910C038DEA90E00E9496
:103840004A0D6091090380EA90E00E944A0D609160
:10385000080381EA90E00E944A0D6091E80282EA42
:1038600090E00E944A0D60911F038EEB90E083CFA1
:1038700049EF442E42E0542E51EF652E52E0752E52
:1038800069EEC62E62E0D62E05E610E0F2016191E7
:103890002F01C8010E944A0DF30161913F01C80147
:1038A00008960E944A0DF60161916F01C801409689
:1038B0000E944A0D0F5F1F4F0D36110539F76091B9
:1038C000170188EC90E057CF823009F447C083306D
:1038D00009F47FC0813009F09FC06091090384E042
:1038E00091E00E944A0D6091080385E091E00E94FA
:1038F0004A0D6091E80286E091E00E944A0D6091D5
:10390000E60288E191E00E944A0D6091E50289E1BA
:1039100091E00E944A0D6091E4028BE291E00E94E6
:103920004A0D60911A018AEF90E00E944A0D609161
:103930001C0383E291E00E944A0D6091150384E22A
:1039400091E00E944A0D60910A0388E291E00E9492
:103950004A0D6091240387E291E04CCE60910E0302
:103960008FE091E00E944A0D60910D038EE091E09E
:103970000E944A0D6091090384E091E00E944A0D83
:103980006091080385E091E00E944A0D6091E80291
:1039900086E091E00E944A0D60911F0382E291E06F
:1039A0000E944A0D60911E0385E291E00E944A0D3B
:1039B00060911D0386E291E00E944A0D60911C0314
:1039C00089E291E00E944A0D609118018AE291E03B
:1039D000A6CF60910E038FE091E00E944A0D6091A6
:1039E0000C0381E191E00E944A0D6091090384E09B
:1039F00091E00E944A0D6091080385E091E00E94E9
:103A00004A0D6091E80286E091E00E944A0D6091C3
:103A10001F0382E291E083CF99EF492E92E0592E65
:103A200021EF622E22E0722E39EEC32E32E0D32E29
:103A300009EC10E0F20161912F01C8010E944A0DCA
:103A4000F30161913F01C80108960E944A0DF601F9
:103A500061916F01C80140960E944A0D0F5F1F4F90
:103A6000013D110539F7609117018CE291E057CFC4
:103A7000F0EE7F1277CC9092E4020093E60210936E
:103A8000E5020E94380CD694DC2CCC24D794C79441
:103A9000C02AD0921103C0921003F0921A0162CC96
:103AA000F999FECF92BD81BDF89A992780B5089506
:103AB000262FF999FECF1FBA92BD81BD20BD0FB64A
:103AC000F894FA9AF99A0FBE01960895052E97FB7D
:103AD0001EF400940E947D1D57FD07D00E94901D8A
:103AE00007FC03D04EF40C947D1D50954095309505
:103AF00021953F4F4F4F5F4F08959095809570955A
:103B000061957F4F8F4F9F4F08950E94B21DA59FD3
:103B1000900DB49F900DA49F800D911D11240895C8
:103B2000A1E21A2EAA1BBB1BFD010DC0AA1FBB1FC1
:103B3000EE1FFF1FA217B307E407F50720F0A21B33
:103B4000B30BE40BF50B661F771F881F991F1A94A0
:103B500069F760957095809590959B01AC01BD01CA
:103B6000CF010895A29FB001B39FC001A39F700D24
:103B7000811D1124911DB29F700D811D1124911D75
:103B800008955058BB27AA270E94D91D0C94DA1E0D
:103B90000E94CC1E38F00E94D31E20F039F49F3FC3
:103BA00019F426F40C94C91E0EF4E095E7FB0C946E
:103BB000C31EE92F0E94EB1E58F3BA176207730762
:103BC0008407950720F079F4A6F50C940D1F0EF4E8
:103BD000E0950B2EBA2FA02D0B01B90190010C011D
:103BE000CA01A0011124FF27591B99F0593F50F435
:103BF000503E68F11A16F040A22F232F342F44278D
:103C0000585FF3CF469537952795A795F040539584
:103C1000C9F77EF41F16BA0B620B730B840BBAF054
:103C20009150A1F0FF0FBB1F661F771F881FC2F7BF
:103C30000EC0BA0F621F731F841F48F487957795D3
:103C40006795B795F7959E3F08F0B0CF9395880F8D
:103C500008F09927EE0F9795879508950E949F1E6B
:103C600008F481E008950E94F31E88F09F5798F0B1
:103C7000B92F9927B751B0F0E1F0660F771F881F71
:103C8000991F1AF0BA95C9F714C0B13091F00E948B
:103C90000D1FB1E008950C940D1F672F782F882712
:103CA000B85F39F0B93FCCF3869577956795B395B2
:103CB000D9F73EF490958095709561957F4F8F4F21
:103CC0009F4F0895E89409C097FB3EF49095809526
:103CD000709561957F4F8F4F9F4F9923A9F0F92FD2
:103CE00096E9BB279395F695879577956795B79550
:103CF000F111F8CFFAF4BB0F11F460FF1BC06F5F36
:103D00007F4F8F4F9F4F16C0882311F096E911C047
:103D1000772321F09EE8872F762F05C0662371F068
:103D200096E8862F70E060E02AF09A95660F771F7C
:103D3000881FDAF7880F9695879597F90895990F58
:103D40000008550FAA0BE0E8FEEF16161706E80765
:103D5000F907C0F012161306E407F50798F0621B86
:103D6000730B840B950B39F40A2661F0232B242B5B
:103D7000252B21F408950A2609F4A140A6958FEF7A
:103D8000811D811D089597F99F6780E870E060E0CC
:103D900008959FEF80EC089500240A9416161706E4
:103DA00018060906089500240A941216130614062C
:103DB00005060895092E0394000C11F4882352F08F
:103DC000BB0F40F4BF2B11F460FF04C06F5F7F4F47
:103DD0008F4F9F4F089557FD9058440F551F59F02E
:103DE0005F3F71F04795880F97FB991F61F09F3FE8
:103DF00079F087950895121613061406551FF2CF11
:103E00004695F1DF08C0161617061806991FF1CF60
:103E100086957105610508940895E894BB27662787
:103E20007727CB0197F908950E949F1E08F48FEF22
:103E300008950E942C1F0C94DA1E0E94CC1E38F0AC
:103E40000E94D31E20F0952311F00C94C31E0C94F5
:103E5000C91E11240C940E1F0E94EB1E70F3959F37
:103E6000C1F3950F50E0551F629FF001729FBB2771
:103E7000F00DB11D639FAA27F00DB11DAA1F649F0D
:103E80006627B00DA11D661F829F2227B00DA11DC0
:103E9000621F739FB00DA11D621F839FA00D611D46
:103EA000221F749F3327A00D611D231F849F600D67
:103EB000211D822F762F6A2F11249F5750409AF090
:103EC000F1F088234AF0EE0FFF1FBB1F661F771F1C
:103ED000881F91505040A9F79E3F510580F00C94E7
:103EE000C31E0C940E1F5F3FE4F3983ED4F38695F7
:103EF00077956795B795F795E7959F5FC1F7FE2B87
:103F0000880F911D9695879597F90895DB018F93FA
:103F10009F930E94851DBF91AF91A29F800D911D1F
:103F2000A39F900DB29F900D11240895AA1BBB1B57
:103F300051E107C0AA1FBB1FA617B70710F0A61BA9
:103F4000B70B881F991F5A95A9F780959095BC01CA
:103F5000CD01089597FB072E16F4009407D077FD46
:103F600009D00E94961F07FC05D03EF490958195DC
:103F70009F4F0895709561957F4F0895EE0FFF1F35
:103F80000590F491E02D09940E94B21D332312F4A0
:103F90008A1B9B0B0C94CE1F0E94B21DB7FF089585
:0A3FA000821B930B0895F894FFCFE5
:103FAA000000803F00C18081000000FFFFFFFF008A
:103FBA00E100000000000007010104000036005A79
:103FCA000075009A00D100E000EE003A017B010280
:103FDA000284020D032E033F0364037F03A403CD6F
:103FEA0003FF0300000A00110019002300320046F3
:103FFA00005A00C8002C01F401BC028403B603CAAB
:10400A0003D403DE03EB03F503FF030000800890EB
:10401A0009A00AB00BC00CD00DE00E00000000CFC2
:10402A0007B907E50762053408EA070C080000002B
:10403A0000470849084408400D0000000019099289
:10404A000957093C0900000000090ADD09C50AC42C
:06405A000A4D4944490033
:00000001FF
