:100000000C9430030C9458030C9458030C9458032C
:100010000C9458030C9458030C9458030C945803F4
:100020000C9458030C9458030C94CB100C94491165
:100030000C9458030C9458030C9458030C945803D4
:100040000C9458030C9458030C9458030C945803C4
:100050000C9458030C9458030C9458030C9481107E
:100060000C9458030C9458030C9458030C945803A4
:100070000C9458030C9458030C9458030C94580394
:100080000C9458030C9458030C9458030C94580384
:100090000C9458030C9458030C9458030C94580374
:1000A0000C9458030C9458030C945803000000005F
:1000B000000000002A2B28000000000000000000C3
:1000C0000000000000000000000000002C9E9F3196
:1000D000A1A2A3B1A5A6B030363837A4271E1F2091
:1000E000212223242526B7B632A7B2ADD484858633
:1000F0008788898A8B8C8D8E8F9091929394959618
:100100009798999A9B9D9CE5EDE600B8000405063A
:100110000708090A0B0C0D0E0F10111213141516F7
:100120001718191A1B1D1CE4F2E7F000000000006C
:10013000000000002A2B2800000000000000000042
:100140000000000000000000000000002C9E9FA0A6
:10015000E1A2A331A5A6B12D363837A4271E1F2052
:10016000212223242526B7B632A7B2ADDF848586A7
:100170008788898A8B8C8D8E8F9091929394959697
:100180009798999A9B9C9DE5F2E600B800040506B5
:100190000708090A0B0C0D0E0F1011121314151677
:1001A0001718191A1B1C1DE4EEE7000000000000E0
:1001B000000000002A2B28000000000000000000C2
:1001C0000000000000000000000000002C9E9FA026
:1001D000E1A2A331A5A6B12D363837A4271E1F20D2
:1001E000212223242526B7B632A7B2ADDF84858627
:1001F0008788898A8B8C8D8E8F9091929394959617
:100200009798999A9B9C9DE5EDE600B80004050639
:100210000708090A0B0C0D0E0F10111213141516F6
:100220001718191A1B1C1DE4F2E70000000000005B
:10023000000000002A2B2800000000000000000041
:100240000000000000000000000000002C9E9FA0A5
:10025000A1A2A32DA5A6AF2F363837A4271E1F2095
:10026000212223242526B7B632A7B2ADDF848586A6
:100270008788898A8B8C8D8E8F9091929394959696
:100280009798999A9B9C9DE535E600B80004050671
:100290000708090A0B0C0D0E0F1011121314151676
:1002A0001718191A1B1C1DE4B5E700000000000018
:1002B000000000002A2B28000000000000000000C1
:1002C0000000000000000000000000002C3820E0CA
:1002D00030B41E21222D31AE1023B6B7A79E9FA0A9
:1002E000A1A2A3A4A5A63736322EB290E7948586A4
:1002F0008788898A8B8C8D8E8FB391929384959603
:100300009798999D9B9C9AE2E5EDE625E4140506F5
:100310000708090A0B0C0D0E0F33111213041516E2
:100320001718191D1B1C1AE1E3EEDF000000000086
:10033000000000002A2B2800000000000000000040
:100340000000000000000000000000002C9E9FE064
:10035000A1A2A32DA5A6B030363837A4271E1F2092
:10036000212223242526B7B632A7B2ADDF848586A5
:100370008788898A8B8C8D8E8F9091929394959695
:100380009798999A9B9C9DEFF5F000B8000405069C
:100390000708090A0B0C0D0E0F1011121314151675
:1003A0001718191A1B1C1DF4DEF1000000000000D4
:1003B000000000002A2B28000000000000000000C0
:1003C0000000000000000000000000002CA19FDBE6
:1003D000F3A2C69EA5A6F8A0363837A3351E1F2067
:1003E000212223242526B7F6F2A4DDB6D9848586FA
:1003F0008788898A8B8C8D8E8F9091929394959615
:100400009798999A9B9D9CC9D4CAE0B8E4040506C4
:100410000708090A0B0C0D0E0F10111213141516F4
:100420001718191A1B1D1CC5DAD1DE0000000000C8
:10043000000000002A2B280000000000000000003F
:100440000000000000000000000000002C9E9FF44F
:10045000A1A2A32DA5A6B030363837A4271E1F2091
:10046000212223242526B7B632A7B2ADF384858690
:100470008788898A8B8C8D8E8F9091929394959694
:100480009798999A9B9C9DEF35F0AEB800040506AD
:100490000708090A0B0C0D0E0F1011121314151674
:1004A0001718191A1B1C1D00B5000000080B0002CC
:1004B00002020000090400000102020000052400FD
:1004C000100105240101010424020605240600018F
:1004D0000705810310004009040100020A00000022
:1004E00007050202400000070583024000000403E4
:1004F000090412010002EF0201404F1B3780000186
:1005000001020301436F736533440053696D706CDE
:1005100065466164657220283029000000000024CF
:100520000027002A002D00300000000000250028D0
:10053000002B002E003100000000002300260029BF
:10054000002C002F0004040404040304050202022A
:10055000020403020202020606060606060404025C
:100560000202040404080201104080401020408070
:1005700040800802040180402010020110801020F9
:100580004040200000000200090F000003040100A9
:100590000C0000000000000000000000000000004F
:1005A0000000070605040100080A0B0C0D090000F5
:1005B0000000000000002A2B2800000000000000BE
:1005C00000000000000000000000000000002C9E61
:1005D000B4A0A1A2A434A6A7A5AE362D3738271EF5
:1005E0001F20212223242526B333B62EB7B89F849B
:1005F00085868788898A8B8C8D8E8F909192939433
:1006000095969798999A9B9C9D2F3130A3AD350470
:1006100005060708090A0B0C0D0E0F101112131412
:1006200015161718191A1B1C1DAFB1B0B50005011E
:100630000906A1018502050719E029E71500250132
:100640007501950881029501750881039506750865
:10065000150025730507190029738100C0007B135D
:1006600011241FBECFEFDAE0DEBFCDBF11E0A0E066
:10067000B1E0E0ECFCE302C005900D92A636B107B4
:10068000D9F724E0A6E6B1E001C01D92AA34B20772
:10069000E1F713E0C0E3D3E004C02197FE010E941C
:1006A000491ECF32D107C9F70E94E9140C945E1E8F
:1006B0000C940000E2EAF5E0E49190917B008E2F2B
:1006C000880F880F80729F7D892B80937B00E77055
:1006D000E064E0937C0080917A00806480937A00EB
:1006E00080917A0086FDFCCF80917800909179000E
:1006F000089581508F3008F047C0E82FF0E0ED57A3
:10070000FC4F0C94491EA003A403920398039C037E
:10071000C403C403C403A703AD03B103B503BB0300
:10072000C403BF03809180008F7780938000089579
:10073000809180008F7DF9CF80918000877FF5CFF9
:1007400084B58F7784BD089584B58F7DFBCF80916C
:1007500090008F77809390000895809190008F7D16
:10076000F9CF80919000877FF5CF8091C0008F777F
:100770008093C00008958091C0008F7DF9CF809153
:10078000C200877F8093C2000895CF93DF93EDE886
:10079000F5E08491EEE6F5E0D491EFE4F5E0C49164
:1007A000CC23A1F081110E947903EC2FF0E0EE0F31
:1007B000FF1FE95CFA4FA591B491EC91ED2381E024
:1007C00090E009F480E0DF91CF91089580E090E01F
:1007D000FACF1F93CF93DF93282F30E0F901ED5725
:1007E000FA4F8491F901EC59FA4FD491F901EB5B7E
:1007F000FA4FC491CC23A9F0162F81110E947903DE
:10080000EC2FF0E0EE0FFF1FE75DFA4FA591B491DA
:100810008FB7F894EC91111108C0D095DE23DC93CA
:100820008FBFDF91CF911F910895DE2BF8CFCF932B
:10083000DF9390E0FC01EC59FA4F24918B5B9A4FC7
:10084000FC0184918823C9F090E0880F991FFC0176
:10085000E55EFA4FA591B491FC01E75DFA4FC591B1
:10086000D49161110DC09FB7F8948C91209582238B
:100870008C938881282328839FBFDF91CF9108958F
:10088000623051F49FB7F8943C91822F8095832376
:100890008C93E8812E2BEFCF8FB7F894EC912E2B11
:1008A0002C938FBFEACF1F93CF93DF93182FEB01C9
:1008B00061E00E941704209739F460E0812FDF91F6
:1008C000CF911F910C94E903CF3FD10511F461E062
:1008D000F5CFE12FF0E0ED57FA4FE491E150EF3022
:1008E00008F07FC0F0E0E958FB4F0C94491E8604E5
:1008F0008E0493049D04A704F104F104F104B104EF
:10090000BB04C504CF04DC04F104E40484B58068AE
:1009100084BDC7BDDF91CF911F91089584B58062DA
:1009200084BDC8BDF7CF809180008068809380002F
:10093000D0938900C0938800EDCF809180008062C1
:1009400080938000D0938B00C0938A00E3CF809186
:100950008000886080938000D0938D00C0938C00CD
:10096000D9CF80919000806880939000D0939900B7
:10097000C0939800CFCF80919000806280939000C8
:10098000D0939B00C0939A00C5CF8091900088605F
:1009900080939000D0939D00C0939C00BBCF80912A
:1009A000C00080688093C0008091C0008F7B8093DE
:1009B000C000C093CF00AECF8091C0008062809312
:1009C000C000C093D000A6CF8091C2008860809301
:1009D000C2008091C2008B7F8093C200C093D2007E
:1009E00099CFC038D1050CF072CF67CF3FB7F894DC
:1009F0008091D6029091D702A091D802B091D902ED
:100A000026B5A89B05C02F3F19F00196A11DB11D69
:100A10003FBFBA2FA92F982F8827BC01CD01620FA5
:100A2000711D811D911D42E0660F771F881F991F60
:100A30004A95D1F708958F929F92AF92BF92CF922D
:100A4000DF92EF92FF924B015C010E94F6046B0172
:100A50007C010E94F6046C197D098E099F09683E8D
:100A6000734081059105A8F321E0821A9108A1083D
:100A7000B10888EEC80E83E0D81EE11CF11C811479
:100A80009104A104B10429F7FF90EF90DF90CF907B
:100A9000BF90AF909F908F9008952FB7F89460917A
:100AA000D2027091D3028091D4029091D5022FBFCF
:100AB00008958093E9008091F200882319F08AE379
:100AC0008093E800089583E00C94590540917801E3
:100AD00050917901209176013091770142175307A7
:100AE000B4F49091E8009570E1F39091E80092FDE4
:100AF00019C08093F100809178019091790101965D
:100B00008F739927892B19F48EEF8093E8008091D9
:100B10007801909179010196909379018093780101
:100B200081E0089580E00895EF92FF920F931F9364
:100B3000CF93DF93F82E192FE62E042F81E0860F36
:100B4000880F0E94660583E00E946605CF2DD12F95
:100B5000EC0EFD2EF11CCE15DF05B9F007FF13C01A
:100B6000FE0184910E946605182F80E00E946605B0
:100B7000812321968111EFCFDF91CF911F910F91AA
:100B8000FF90EF9008958881EDCF81E0F5CFDF925F
:100B9000EF92FF920F931F93CF93DF93D82E8A018A
:100BA000EB017B01E40EF51ECE15DF0559F0D7FEF3
:100BB00012C0FE0184910E94660521968111F4CF36
:100BC0000FEF1FEFC801DF91CF911F910F91FF90A1
:100BD000EF90DF9008958881EECF2FB7F89487705B
:100BE0008093E9009091E800892F807295FF04C0FE
:100BF0009091F20080E4891B2FBF08957F928F921D
:100C00009F92AF92BF92CF92DF92EF92FF920F939B
:100C10001F93CF93DF93C82E8B017A0180917F01C0
:100C2000811110C08FEF9FEFDF91CF911F910F9136
:100C3000FF90EF90DF90CF90BF90AF909F908F90FC
:100C40007F90089580917D0180FF05C08091E00034
:100C500082608093E000CE2DDF2DD12C8AEFB82E5C
:100C60008C2D8770982E8C2D8072882E8C2D807400
:100C7000782E9AE3A92E209719F4DD2009F452C0AA
:100C80008C2D0E94ED0581110AC0BA94BB2051F24F
:100C900061E070E080E090E00E941B05ECCF8C17D3
:100CA0001D0611F00CF08C2F9FB7F8949092E9007C
:100CB0002091E80025FD02C09FBFDDCF282F30E046
:100CC000C21BD30B882029F08150A0F01092F100B4
:100CD000FBCFF801C7FC0AC0815050F0419140930E
:100CE000F100FACF44914093F10031968150D0F752
:100CF000020F131FDD2021F0A092E800D12CDCCFE1
:100D00008091E80085FD07C0A092E800DD24D3941F
:100D1000209791F2F3CF209779F6772069F2A0928D
:100D2000E800CACF5D9A84E680937C01C7017CCF3E
:100D300090917F01992319F13FB7F89487708093C0
:100D4000E9008091F20090E0481759070CF4CA01BD
:100D5000282FFB0154E6215038F0289A50937B014C
:100D60004091F1004193F7CF009739F02091F200C4
:100D7000211103C02BE62093E8003FBF08958FEFB9
:100D80009FEF08959FB7F89487708093E900809152
:100D9000F2009FBF0895615030F02091F100FC01F6
:100DA00020830196F8CF289A84E680937B010895EA
:100DB00080916E0181110DC082E080936A0184E010
:100DC00080936B0110926D0110926C0181E0809311
:100DD0006E018AE691E008950F931F93CF93DF93FE
:100DE0001F92CDB7DEB782E0898342E450E06CEA1F
:100DF00074E080E80E94C7050E94D806DC011296C4
:100E00000D911C910115110589F0D801ED91FC910E
:100E10000280F381E02DBE016F5F7F4FC80109950D
:100E200097FD04C0F80100851185ECCF89810F90F2
:100E3000DF91CF911F910F910895CF93DF93FC0124
:100E4000DB01818114963C911497682F630F7727FB
:100E5000771F683071059CF5C281D381209739F5E1
:100E6000B383A283908112969C93129713968C93CE
:100E7000139715968C911597890F808390E080E0E9
:100E8000831708F52181C22FD0E0BE016C5F7E4F31
:100E900016964D915C911797480F591FEA014881AA
:100EA000EB0148832F5F21830196EACFEA01488551
:100EB000598541155105D1F7B987A887D3CF80E06F
:100EC000DF91CF91089581E0FBCFEF92FF921F93C6
:100ED000CF93DF931F92CDB7DEB77C01809147039C
:100EE00081112CC011E010933A0310933B0380E46E
:100EF00093E090933D0380933C0310923F03109244
:100F00003E038CE491E09093370380933603109274
:100F10004203109241031092440310924303109332
:100F200045031093460381EC809340030E94D8064A
:100F300066E373E00E941D071093470382E08983F4
:100F400041E050E0BE016F5F7F4F809139030E9406
:100F5000FE0597FD08C08091390348E050E0B701D5
:100F600080640E94FE050F90DF91CF911F91FF904A
:100F7000EF900895CF93DF93EC01809116018823C1
:100F800031F083E00E94FE051816190634F081E066
:100F900090E09B838A8380E090E0DF91CF91089579
:100FA000CF93DF931F92CDB7DEB76983DC01ED915C
:100FB000FC910280F381E02D41E050E0BE016F5FC3
:100FC0007F4F09950F90DF91CF91089583E00E94A4
:100FD000ED0590E00895CF93DF931F92CDB7DEB774
:100FE000FC018485958597FD08C02FEF3FEF35877D
:100FF00024870F90DF91CF91089541E050E0BE012A
:101000006F5F7F4F82E00E949806019719F48981F3
:1010100090E0EFCF8FEF9FEFECCF0F931F93CF9325
:10102000DF931F92CDB7DEB78C01FC0184859585D7
:1010300097FF0FC041E050E0BE016F5F7F4F82E03D
:101040000E949806019771F4898190E0F8019587D4
:101050008487F801848595850F90DF91CF911F914A
:101060000F9108958FEF9FEFF1CFFC018485958557
:1010700097FD06C082E00E94C20690E001960895A6
:1010800082E00E94C20690E0089590E080E008951A
:1010900080E008950F931F93CF93DF93CDB7DEB712
:1010A000C456D1090FB6F894DEBF0FBECDBFFC0108
:1010B000DB019C919E5F9C939E01295F3F4F8AE5D7
:1010C000D9011D928A95E9F788E089838BE08A83AC
:1010D00022E02C8391E09D839E8339E0398764E090
:1010E0006A879E879F873A8B44E24B8B9C8BA0E05C
:1010F000B1E0BE8BAD8B09E010E0188F0F8B998F9C
:101100003B8F6C8F2F8F98A353E059A387E08CA35C
:101110004DA39EA3B8A7AFA3A1E4B0E0BAA7A9A727
:1011200086E08BA74CA72DA79EA79FA789AB4AABAC
:101130002BAB2CAB2DAB3FAB48AF59AF9AAF5BAFEE
:101140009CAF2DAF9EAF21963FAF219722964FAF18
:10115000229723965FAF239724962FAF2497259647
:101160006FAF259726969FAF269727969FAF279715
:1011700028969FAF28972A963FAF2A9745E02B964F
:101180004FAF2B972D962FAF2D9760E470E02F96E1
:101190007FAF6EAF2F9763964FAF639785E26496EC
:1011A0008FAF649765969FAF659766969FAF66977A
:1011B00067969FAF679768963FAF689769964FAFFE
:1011C00069976B962FAF6B976D967FAF6EAF6D97EC
:1011D000A1964FAFA197A2968FAFA297A3969FAF6C
:1011E000A397A4969FAFA497A5965FAFA59792816A
:1011F0009B839B879F5F9A8F9D8F83812C968FAF58
:101200002C978F5F80686A968FAF6A9744E650E0AC
:10121000BE016F5F7F4F80E00E94C705CC59DF4F52
:101220000FB6F894DEBF0FBECDBFDF91CF911F91F7
:101230000F910895DC01FB0112962C911297848185
:1012400095812817190641F491818081813A31F402
:101250009D7F81E0913009F080E008958132E1F7CF
:101260009B3029F482811F968C9381E008959A30F7
:1012700099F7828150968C93F8CFDC01FB0188E4CA
:10128000808389E4818384E482831D969C911D97E9
:101290009F709F5B93831D968D919C9124E0969502
:1012A00087952A95E1F78F708F5B848385E0089599
:1012B000EF92FF920F931F93CF93DF93FB01208157
:1012C000213871F52381223259F5DC0112964C91B7
:1012D000248135814217130619F5EC010B851C8515
:1012E000F12CE12C0115110589F0F801448155819B
:1012F0006281738180E80E94C7058F3F980749F09B
:10130000E80EF91ED8010D911C91ECCF81E08F877A
:10131000C701DF91CF911F910F91FF90EF9008953A
:1013200090E080E0F6CFCF93DF93CDB7DEB769973B
:101330000FB6F894DEBF0FBECDBFFC01DB018C9170
:101340008F5F8C939E012D5F3F4F8DE0D9011D92E1
:101350008A95E9F729E0298384E08A8391E09D83D7
:1013600083E08E832A8721E22B879C879D879F8736
:1013700022E2288B27E02B8B25E02C8B8E8B20E420
:1013800030E0388F2F8B998F82818B83958586856E
:10139000998B8A8B838180688D8B49E150E0BE01F7
:1013A0006F5F7F4F80E00E94C70569960FB6F89483
:1013B000DEBF0FBECDBFDF91CF910895CF92DF92F8
:1013C000EF92FF920F931F93CF93DF936C01EB018A
:1013D0007B01E40EF51E10E000E0CE15DF0581F084
:1013E00069916D30D1F3D601ED91FC910190F081BE
:1013F000E02DC6010995892B19F00F5F1F4FEDCF26
:10140000C801DF91CF911F910F91FF90EF90DF9076
:10141000CF900895EF92FF921F93CF93DF93EC014B
:10142000162FE8E7E60F683888F4862F90E067FF0C
:1014300050C0FC01E058F10921E030E001C0220F6A
:10144000EA95EAF78C81822B8C83E0E08E818E17FF
:10145000D9F08F81E817C1F08885E817A9F0898550
:10146000E81791F08A85E81779F08B85E81761F025
:10147000DE01169690E080E02D9121115EC08C0F68
:101480009D1FDC011696EC93CE0104960E94650721
:10149000EE24E394F12C183848F11858DE0186E068
:1014A000112341F016969C911697191303C01696B6
:1014B0001C921697815011968111F2CFCE0104969D
:1014C0000E946507C701DF91CF911F91FF90EF90B8
:1014D0000895EC85FD85E80FF91FE491E11119C02D
:1014E00081E090E09B838A83F12CE12C812F90E0B6
:1014F00017FF2FC0FC01E058F10981E090E001C026
:10150000880FEA95EAF780959C8189238C8310E007
:10151000C5CF8E2F807C803C49F48C8180648C8385
:10152000EF73E23309F092CFE4E690CFE7FFF9CF13
:101530008C8182608C83EF77F4CF019686309105A1
:1015400009F09ACF81E090E09B838A83F12CE12C13
:10155000A2CFEC85FD85E80FF91F1491112309F442
:10156000B1CF812F807C803C49F48C818F7B8C8330
:101570001F73123309F092CF14E690CF17FFF9CF03
:101580008C818D7F8C831F77F4CF089590E080E06D
:101590000895809119018430A9F48091C70290E0E8
:1015A000FC01E356FD4F20812093AD02FC01EB5678
:1015B000FD4F20812093AC0283579D4FFC01808119
:1015C00080938C0208954F925F926F927F928F92D8
:1015D0009F92AF92BF92CF92DF92EF92FF920F93C2
:1015E0001F93CF93A82EB62EC42F6801790120E057
:1015F00030E0A901C701B8010E94DD1C87FD6EC063
:1016000020E030E040E85FE3C701B8010E94C31D5D
:1016100018160CF467C06A2D70E090E080E00E941C
:10162000131DA70196010E94C81D9B01AC0160E03B
:1016300070E08FE793E40E94701C2B013C016B2D3E
:1016400070E090E080E00E94131DA70196010E94C7
:10165000C81D9B01AC0160E070E08FE793E40E943D
:10166000701C4B015C016C2F70E090E080E00E94E8
:10167000131DA70196010E94C81D9B01AC0160E0EB
:1016800070E08FE793E40E94701C6B017C01C30142
:10169000B2010E94E21C70E083E00E945304C50185
:1016A000B4010E94E21C70E085E00E945304C7016F
:1016B000B6010E94E21C70E086E0CF911F910F916D
:1016C000FF90EF90DF90CF90BF90AF909F908F9062
:1016D0007F906F905F904F900C945304C12CD12C4D
:1016E000760199CFC12CD12C80E8E82E8FE3F82E1B
:1016F00092CF0F931F938A019B018D3008F040C059
:10170000E82FF0E0EA57F44F0C94491E930B970B27
:101710009A0B9D0BA00BA40BA60BA90BAB0BAD0B4F
:10172000B50BB90BBD0B4BEC60EC8FEF19C040E073
:1017300060E0FBCF40E062E3F8CF40E069E6F5CF40
:1017400040E06FEF80E00CC04FEFFBCF4FEF60E069
:10175000F9CF4FEFEDCF42E3EECF4FEF66E98DEAE1
:101760000E94E30A1F910F91089543E16EE18BE817
:10177000F7CF40E96FEF80E9F3CF46E960E5D5CFD9
:1017800040E0E5CF0F931F938091B702833620F09E
:1017900081E08093180108C08B52883308F048C05C
:1017A00082E08093180186E080938C020E944D05B0
:1017B00000916601109167012091680130916901E3
:1017C000601B710B820B930B693C710581059105C0
:1017D00060F120E030E0A901609100017091010109
:1017E00080910201909103010E94DD1C40E050E0D5
:1017F000BA01811104C040E050E060E87FE340930B
:1018000000015093010160930201709303018091E4
:101810008C020E94790B0E944D05609366017093C3
:10182000670180936801909369011F910F9108955A
:1018300083E0AFCFCF93C0918C0240E050E060E8EE
:101840007FE38C2F0E94790B64E670E080E090E0EB
:101850000E941B058091BF0240E050E0BA01811157
:1018600004C04DEC5CEC6CEC7EE38C2FCF910C94BF
:10187000790BE0918802E930A0F4F0E0EE5BF34FE1
:101880000C94491E4B0C520C550C580C5B0C5E0C06
:10189000610C640C670C8EEA95E090936A03809368
:1018A000690308958CE294E0F8CF8CEA93E0F5CFD9
:1018B0008CE293E0F2CF8CEA92E0EFCF8CE292E000
:1018C000ECCF8CEA91E0E9CF8CE291E0E6CF8CEAB4
:1018D00090E0E3CF0F931F93CF93DF9300D000D01E
:1018E000CDB7DEB78C01262FFC018481958136812E
:1018F000303FD9F0009711F4208704C08130910562
:1019000081F46187F80184819581019695838483B0
:101910000F900F900F900F90DF91CF911F910F912B
:101920000895029779F76287EDCF603F49F4838588
:10193000F0E18F9FC00111248460F8018783DCCF20
:1019400063E070E00E94351EAC01273F39F49385B7
:101950009295907F85E0840F982B9783F80141152D
:10196000510521F4208712861186CCCF41305105D4
:1019700019F421871286C6CF2287273F19F2908556
:101980008185378139839A838B832C8380912D03C2
:1019900044E050E0BE016F5F7F4F8F5F0E94FE0505
:1019A00080912D038F5F0E945905ACCFFF920F935A
:1019B0001F93CF93DF9300D000D0CDB7DEB7215077
:1019C000203108F054C0042FF62E182FE091980310
:1019D000F09199038683A82FA295AF70A750BB0BF7
:1019E000AA0FBB1FA65EBE4F838590E1899FA00111
:1019F000112411968C91842B878312861186108670
:101A000015821482612F622B809198039091990323
:101A10000E946A0C6F2D6F778091980390919903C3
:101A20000E946A0C103C41F0602F6F778091980300
:101A3000909199030E946A0CE0919803F0919903A8
:101A4000208591858285378139832A839B838C8386
:101A500080912D0344E050E0BE016F5F7F4F8F5FA8
:101A60000E94FE0580912D038F5F0E9459050F9003
:101A70000F900F900F90DF91CF911F910F91FF90DA
:101A8000089584E0E0E6F1E0DB0101900D928A9593
:101A9000E1F784E008951F93CF93DF93EC01162FB5
:101AA0000E940A1C181739F0612FCE01DF91CF91E7
:101AB0001F910C94121CDF91CF911F9108950C94EB
:101AC0000A1CCF92DF92EF92FF920F931F93CF9356
:101AD000DF9380911801813009F01DC180918B0244
:101AE0008F3F89F4CDE9D2E0A5E9B2E0EDE8F2E07C
:101AF00080E097E089939D9381938F5F8830D1F741
:101B00001092C702F5C082E390E00E945F0DC82FDB
:101B1000809319018CE590E00E945F0D91E08111A6
:101B200001C090E09093B8028BE590E00E945F0DB9
:101B300091E0811101C090E09093BF0284E690E0B3
:101B40000E945F0D809317018FE590E00E945F0D6A
:101B50008093C702C230C1F1C33009F47CC0C130E8
:101B600009F0A2C08CE390E00E945F0D8093AD026B
:101B70008DE390E00E945F0D8093AC028EE390E0D5
:101B80000E945F0D80938C0280E590E00E945F0DC3
:101B9000D82F80938A0281E590E00E945F0DC82FC4
:101BA0008093890283E690E00E945F0D8093880213
:101BB0000E94390C20E8C29FC00111248D2B909304
:101BC000B5028093B40294C087E490E00E945F0D58
:101BD0008093B20286E490E00E945F0D8093B10290
:101BE0008CE390E00E945F0D8093AD028DE390E066
:101BF0000E945F0D8093AC028EE390E00E945F0D27
:101C000080938C028AE590E00E945F0D91E0811143
:101C100001C090E09093C2028DE590E00E945F0DBC
:101C200091E0811101C090E09093C1028EE590E0B7
:101C30000E945F0D91E0811101C090E09093C0027D
:101C400081E690E00E945F0D91E0811101C090E07B
:101C50009093BF024DC087E490E00E945F0D809397
:101C6000B20289E490E00E945F0D8093B0028CE3A1
:101C700090E00E945F0D8093AD028DE390E00E94A2
:101C80005F0D8093AC028EE390E00E945F0D809325
:101C90008C028AE590E00E945F0D91E0811101C005
:101CA00090E09093C20224C04DE9C42E42E0D42EAD
:101CB00055E9E52E52E0F52E0DE812E0C1E0D0E046
:101CC000CE010E945F0DF60181936F01CE0108964F
:101CD0000E945F0DF70181937F01CE0140960E9423
:101CE0005F0DF80181938F012196C930D10541F72D
:101CF0000E944D056093BB027093BC028093BD02AD
:101D00009093BE02DF91CF911F910F91FF90EF90C2
:101D1000DF90CF900895823009F0FDC086E990E011
:101D20000E945F0DC82F8093190180EC90E00E9403
:101D30005F0D91E0811101C090E09093B8028FEBAC
:101D400090E00E945F0D91E0811101C090E09093BE
:101D5000BF0288EC90E00E945F0D8093170183EC36
:101D600090E00E945F0D8093C702C23099F1C330AA
:101D700009F46FC0C13009F08DC080EA90E00E9484
:101D80005F0D8093AD0281EA90E00E945F0D809329
:101D9000AC0282EA90E00E945F0D80938C0284EB9B
:101DA00090E00E945F0DD82F80938A0285EB90E02F
:101DB0000E945F0DC82F8093890287EC90E00E94FB
:101DC0005F0D809388020E94390CF0E8CF9FC0011C
:101DD0001124F4CE8BEA90E00E945F0D8093B20252
:101DE0008AEA90E00E945F0D8093B10280EA90E061
:101DF0000E945F0D8093AD0281EA90E00E945F0D2A
:101E00008093AC0282EA90E00E945F0D80938C0286
:101E10008EEB90E00E945F0D91E0811101C090E097
:101E20009093C20281EC90E00E945F0D91E08111DD
:101E300001C090E09093C10282EC90E00E945F0D9F
:101E400091E0811101C090E09093C00285EC90E098
:101E5000F9CE8BEA90E00E945F0D8093B2028DEA8A
:101E600090E00E945F0D8093B00280EA90E00E94B3
:101E70005F0D8093AD0281EA90E00E945F0D809338
:101E8000AC0282EA90E00E945F0D80938C028EEBA0
:101E900090E001CFCF3F29F12DE9C22E22E0D22ED2
:101EA00035E9E32E32E0F32E0DE812E0C5E6D0E08E
:101EB000CE010E945F0DF60181936F01CE0108965D
:101EC0000E945F0DF70181937F01CE0140960E9431
:101ED0005F0DF80181938F012196CD36D10541F731
:101EE00007CF84E0809319011092B8021092BF02CC
:101EF00087E0809317011092C702CDE9D2E0A5E9EF
:101F0000B2E0EDE8F2E080E019928D9381938F5F6B
:101F10008830D1F7EDCE833009F0EACE8AEF90E039
:101F20000E945F0DC82F8093190184E291E00E9406
:101F30005F0D91E0811101C090E09093B80283E2BF
:101F400091E00E945F0D91E0811101C090E09093BB
:101F5000BF028CE291E00E945F0D8093170187E23F
:101F600091E00E945F0D8093C702C23049F1C330F7
:101F700009F465C0C13009F083C084E091E00E949B
:101F80005F0D8093AD0285E091E00E945F0D80932C
:101F9000AC0286E091E00E945F0D80938C0288E1A4
:101FA00091E00E945F0DD82F80938A0289E191E031
:101FB0000E945F0DC82F809389028BE291E0FFCED3
:101FC0008FE091E00E945F0D8093B2028EE091E07D
:101FD0000E945F0D8093B10284E091E00E945F0D4A
:101FE0008093AD0285E091E00E945F0D8093AC028A
:101FF00086E091E00E945F0D80938C0282E291E086
:102000000E945F0D91E0811101C090E09093C202A7
:1020100085E291E00E945F0D91E0811101C090E0A6
:102020009093C10286E291E00E945F0D91E08111E0
:1020300001C090E09093C00289E291E003CE8FE06E
:1020400091E00E945F0D8093B20281E191E00E94D5
:102050005F0D8093B00284E091E00E945F0D809359
:10206000AD0285E091E00E945F0D8093AC0286E0B6
:1020700091E00E945F0D80938C0282E291E00BCE92
:10208000CF3F29F18DE9C82E82E0D82E95E9E92EBF
:1020900092E0F92E0DE812E0C9ECD0E0CE010E94EA
:1020A0005F0DF60181936F01CE0108960E945F0DCE
:1020B000F70181937F01CE0140960E945F0DF801E8
:1020C00081938F012196C13DD10541F711CE84E066
:1020D000809319011092B8021092BF0287E080939A
:1020E00017011092C702CDE9D2E0A5E9B2E0EDE810
:1020F000F2E080E089938D9381938F5F8830D1F7F0
:10210000F7CD1F920F920FB60F9211242F933F938A
:102110008F939F93AF93BF938091D2029091D302FC
:10212000A091D402B091D5023091D10223E0230FC7
:102130002D3758F50196A11DB11D2093D102809332
:10214000D2029093D302A093D402B093D50280918F
:10215000D6029091D702A091D802B091D9020196EF
:10216000A11DB11D8093D6029093D702A093D802EF
:10217000B093D902BF91AF919F918F913F912F91D1
:102180000F900FBE0F901F90189526E8230F029610
:10219000A11DB11DD2CF1F920F920FB60F92112425
:1021A0002F933F934F935F936F937F938F939F935F
:1021B000AF93BF93CF93EF93FF93C091E1008091D2
:1021C000E100837F8093E100C3FF0FC01092E9001C
:1021D00081E08093EB001092EC0082E38093ED00AD
:1021E00010927F0188E08093F000C2FF1BC083E063
:1021F0000E94590580917C01882341F080917C01E7
:10220000815080937C01811101C05D9880917B0198
:10221000882341F080917B01815080937B01811163
:1022200001C02898C4FF23C08091E2008E7E8160A7
:102230008093E2008091E1008F7E8093E1008091A5
:102240007D018E7E806180937D01FF91EF91CF9122
:10225000BF91AF919F918F917F916F915F914F91BE
:102260003F912F910F900FBE0F901F901895C0FFB8
:10227000ECCF8091E2008E7E80618093E2008091BD
:10228000E1008E7E8093E10080917D018E7E8160F1
:10229000DACF1F920F920FB60F921124CF92DF92D6
:1022A000EF92FF920F931F932F933F934F935F9360
:1022B0006F937F938F939F93AF93BF93EF93FF930E
:1022C000CF93DF93CDB7DEB76C97DEBFCDBF109253
:1022D000E9008091E80083FF25C068E0CE014596C3
:1022E0000E94CB0682EF8093E8008D8987FF39C07A
:1022F0009091E80090FFFCCF982F907609F034C1C0
:102300009E894F89588D2F89F88C911131C0803862
:1023100061F580917E018093F1001092F1008EEFC3
:102320008093E8006C960FB6F894DEBF0FBECDBF69
:10233000DF91CF91FF91EF91BF91AF919F918F91DD
:102340007F916F915F914F913F912F911F910F91CD
:10235000FF90EF90DF90CF900F900FBE0F901F90E7
:1023600018959EEF9093E800C7CF1092F100D5CF5B
:10237000913059F48111D3CF4130510581F68091CC
:102380007E018D7F80937E01CACF933049F4811105
:10239000C6CF4130510519F680917E018260F2CF9F
:1023A000953041F48091E80080FFFCCF20682093B5
:1023B000E300B5CF963009F0A9C00B8D1C8D22E04B
:1023C0001092E9001092790110927801F2122EC059
:1023D00010927701109276010E94EC061F8299E01C
:1023E0009983FA8291E09E8390EA98879AEF998781
:1023F0002091780130917901275F3F4F3C832B83F7
:102400008D831092E9001092790110927801109357
:1024100077010093760149E050E0BE016F5F7F4F86
:1024200080E00E94C7050E94EC0679CF10937701E7
:10243000009376010E94D806DC0112960D911C9142
:102440000115110509F451C1D801ED91FC910480E9
:10245000F581E02DBE016B5E7F4FC80109950097A5
:1024600009F03EC1F80100851185EACFF3E0FF12C3
:102470000EC08F89882309F440C0823061F440E89F
:102480006FE08BE095E00E949405811148CF81E2D6
:102490008093EB0047CF813029F440E866E084E088
:1024A00095E0F1CF833099F70E94D806DC011296AF
:1024B000ED90FC908E010F5F1F4F6801E114F10455
:1024C00079F0D701ED91FC910680F781E02DB801FC
:1024D000C7010995080F111DF701E084F184EECFC3
:1024E000D8011C92F60101900020E9F73197BF0155
:1024F0006C197D0940E0C601C6CF6EEE74E0FB01A9
:10250000449150E080E80E94C70509CF973009F454
:10251000BECF983021F481E08093F10000CF993054
:1025200009F0FDCE837009F0B2CFE5E0F1E081E083
:1025300031E096E32191222371F08093E9003093FA
:10254000EB00DF0111972C912093EC009093ED00AC
:102550008F5F873079F78EE78093EA001092EA0068
:102560008F8980937F01DBCE8B8D9C8D1092E9004B
:1025700010927901109278019093770180937601FF
:10258000898D811192C08E899D89913A49F4813259
:1025900009F07DCF47E050E06FE071E080E0B3CF1D
:1025A000913209F074CF833269F48F89988DB0E04D
:1025B000A0E080930B0190930C01A0930D01B093C8
:1025C0000E01ADCE803269F48091E80082FFFCCF2D
:1025D00067E08FE091E00E94CB068BEF8093E800EC
:1025E0009ECE823209F09BCE8F8980931601EEEF4A
:1025F000FFE7859194918B3F9C4D51F1E0E0F8E02D
:1026000080910F0190911001A0911101B0911201E0
:10261000803B9440A105B105F1F48091160180FD45
:102620001AC0EE3F8AE0F80789F587E797E79183BC
:1026300080838091600080937A0188E19BE00FB6EF
:10264000F894A895809360000FBE9093600067CEC9
:10265000EEEFFAE0D5CF808191818737974709F077
:102660005ECEA89580916000886180936000809123
:102670007A0180936000EE3F2AE0F20789F08091B2
:10268000FE0A9091FF0A9183808349CE80819181D7
:102690008737980751F29093FF0A8093FE0AC5CFBF
:1026A0001092FF0A1092FE0A3ACE0E94D806DC0170
:1026B00012960D911C910115110509F4E8CED8016F
:1026C000ED91FC910190F081E02DBE016B5E7F4F9A
:1026D000C8010995811123CEF80100851185EBCF42
:1026E000181619060CF41BCED2CEF1E0FF12BECEA6
:1026F00062EF74E004CFCF931092DD021092DC02FF
:1027000088EE93E0A0E0B0E08093DE029093DF02D9
:10271000A093E002B093E1028EE291E09093DB029D
:102720008093DA028FEF9FEF9093E7028093E602A7
:1027300082E080932E0380932F0384E393E09093B1
:10274000310380933003109233031092320380E4FC
:1027500091E090932B0380932A0380E880933403C5
:1027600081E8809335030E94D8066AE273E00E94F4
:102770001D071092600310925F0388E591E090932B
:102780005E0380935D0380915503811113C0109205
:10279000500310924F038EE296E090935203809381
:1027A00051038FE290E0909354038093530381E0B0
:1027B000809355038091470381112CC0C1E0C093E1
:1027C0003A03C0933B0380E493E090933D038093EE
:1027D0003C0310923F0310923E038CE491E09093EF
:1027E00037038093360310924203109241031092F4
:1027F000440310924303C0934503C093460381EC06
:10280000809340030E94D80666E373E00E941D0790
:10281000C0934703E0914103F0914203309709F0E0
:10282000CFC08FE493E09093420380934103809163
:102830004303909144032091530330915403820F3A
:10284000931F90934403809343038EEA95E0909303
:102850006A03809369031092490480916D038F5F2E
:1028600080936D0380916B0390916C0381609093D2
:102870006C0380936B0310926F0310926E0310929F
:1028800071031092700310927303109272031092EE
:1028900075031092740310927703109276031092CE
:1028A00079031092780310927B0310927A031092AE
:1028B0007D0310927C0310927F0310927E0310928E
:1028C000810310928003109283031092820310926E
:1028D000850310928403109287031092860310924E
:1028E00089031092880310928B0310928A0310922E
:1028F0008D0310928C0310928F0310928E0310920E
:1029000091031092900310929303109292031092ED
:1029100095031092940310929703109296038EE3FE
:1029200094E0909399038093980310929A031092E5
:102930009B0310929C031092A1031092A00310928B
:10294000A3031092A2038FEF9FEF9093A5038093B0
:10295000A4039093A7038093A60383E08093A80326
:102960001092A9031092AA031092AB031092AC0329
:1029700010922D04EDEAF3E080E8DF011D928A95C4
:10298000E9F7109230041092310410923204109240
:1029900033041092340410923504109236041092CD
:1029A0003704109238041092390410923A041092AD
:1029B0003B0410923C0410923D04CF910895FC0119
:1029C000808191810097D9F78FE493E09183808390
:1029D0002ECFCF93DF9300D000D01F92CDB7DEB7BC
:1029E000789484B5826084BD84B5816084BD85B5EA
:1029F000826085BD85B5816085BD80916E008160F6
:102A000080936E001092810080918100826080939B
:102A1000810080918100816080938100809180009D
:102A2000816080938000809191008260809391000A
:102A300080919100816080939100809190008160ED
:102A4000809390008091C10084608093C100809148
:102A5000C10082608093C1008091C1008160809339
:102A6000C1008091C30081608093C3008091C00049
:102A700082608093C0008091C20081608093C20018
:102A800080917A00846080937A0080917A008260DD
:102A900080937A0080917A00816080937A0080919F
:102AA0007A00806880937A0010927F0110927E01F4
:102AB00010927D018091D70081608093D70080EAD9
:102AC0008093D80089B5806189BD89B5826089BD50
:102AD00009B400FEFDCF61E070E080E090E00E946C
:102AE0001B058091D8008F7C80618093D8008091F5
:102AF000E000807F8093E0008091E1008E7E8093F3
:102B0000E1008DE08093E200559A209A5D98289824
:102B100064EF71E080E090E00E941B0560E08EE1D0
:102B20000E94170460E081E10E94170483E00E9484
:102B3000590562E08AE00E94170461E089E00E9482
:102B4000170461E083E00E94170461E085E00E94C1
:102B5000170461E086E00E94170461E089E00E94AA
:102B6000E90390E080E00E945F0D80938B0281E298
:102B700090E00E945F0D809318018F3F19F481E06F
:102B8000809318010E94610D0E94C90A0E941A0CCC
:102B90000E945A039093BA028093B902E8EE4E2E37
:102BA000E3E05E2E612C712CF8EE2F2EF3E03F2E29
:102BB00011E00E944D056093CD027093CE02809388
:102BC000CF029093D00220911901243051F5209129
:102BD000CC02211126C0C090C802D090C902E0905A
:102BE000CA02F090CB026C197D098E099F096133EE
:102BF000754781059105A8F00E944D056093C802B4
:102C00007093C9028093CA029093CB026091C7026D
:102C100080911801813009F033C18FE590E00E9466
:102C20004B0D80911901823009F044C08091CC0293
:102C3000811140C08091CD029091CE02A091CF022F
:102C4000B091D0024091C3025091C4026091C5027C
:102C50007091C602841B950BA60BB70B8133954769
:102C6000A105B10538F10E944D056093C302709330
:102C7000C4028093C5029093C6026091C202809103
:102C80001801813009F0FFC08AE590E00E944B0DE9
:102C90006091C1028DE590E00E944B0D6091C002F1
:102CA0008EE590E00E944B0D6091BF0281E690E0BE
:102CB0000E944B0D8091CC02811129C08091CD02E0
:102CC0009091CE02A091CF02B091D0024091BB0270
:102CD0005091BC026091BD027091BE02841B950BA5
:102CE000A60BB70B81339547A105B10580F00E9473
:102CF0004D056093BB027093BC028093BD0290931C
:102D0000BE026091180181E290E00E944B0D80911B
:102D1000800290918102A0918202B0918302409141
:102D20008402509185026091860270918702841B13
:102D3000950BA60BB70B8F739927AA27BB27892B57
:102D40008A2B8B2B09F4B4C0809184029091850268
:102D5000A0918602B0918702880F991F880F991F52
:102D6000FC01E058FE4FD08021812D83E280038159
:102D700040918002509181026091820270918302A1
:102D80008091840290918502A0918602B091870281
:102D9000481759076A077B07B9F080918402909120
:102DA0008502A0918602B09187020196A11DB11DF6
:102DB0008F739927AA27BB2780938402909385025B
:102DC000A0938602B09387020E945A032091B90211
:102DD0003091BA02821B930B43E0959587954A95F3
:102DE000E1F7820F931F893EE3E09E070CF0D7C006
:102DF0009093BA028093B902A091B902B091BA023D
:102E00008091B8028111D0C02FE730E00E94571E98
:102E1000A30192010E94201C2093B7028091CC0252
:102E200081110E94C20B0E94C503892B09F0FFC0CB
:102E30000E944D054B015C018092C3029092C40236
:102E4000A092C502B092C6020E94C503892B09F068
:102E5000C5C00E944D05681979098A099B09613D21
:102E600077408105910508F4ADC01093CC020E9413
:102E7000C20B62E370E080E090E00E941B05E4CFAB
:102E800083EC90E0CCCE8EEB90E00E944B0D6091F5
:102E9000C10281EC90E00E944B0D6091C00282EC77
:102EA00090E00E944B0D6091BF0285EC90E000CF56
:102EB00080912D030E94C206D82E882309F46BC08E
:102EC000C0908002D0908102E0908202F090830254
:102ED0008FEFC81AD80AE80AF80A9FE3C922DD244E
:102EE000EE24FF248091840290918502A0918602B5
:102EF000B09187028C159D05AE05BF05C9F1809183
:102F00002D030E94C20644E050E0BE016F5F7F4F78
:102F100080912D030E949806049754F180918002BD
:102F200090918102A0918202B0918302880F991F33
:102F3000880F991F80589E4F49815A816B817C81EF
:102F4000FC014083518362837383C0928002D092DC
:102F50008102E0928202F0928302FFEFCF1ADF0A31
:102F6000EF0AFF0A2FE3C222DD24EE24FF24BACFAA
:102F70008091840290918502A0918602B09187028F
:102F8000880F991F880F991FFC01E058FE4FD080D1
:102F900081818D83EBCE00E0E12C1D82E9CE309261
:102FA000BA022092B90228CF9D01A1E8BFEF0E948A
:102FB0004F1EA30192010E94201C21583F4F4F4FEA
:102FC0005F4F2ACF8091CC02882309F452CF109210
:102FD000CC021093B6020E94610D4BCF8091CC02BF
:102FE000811125C08091B602811111C08091190113
:102FF000823009F440C0833009F47CC0813009F08C
:1030000082C06091B4028DE593E00E940A0A10929A
:10301000B6020E94C90A0E941A0C0E944D056093D4
:10302000C8027093C9028093CA029093CB02C090E9
:10303000B7028091AF02C81609F476C08091CC0225
:10304000811111C02091AD022F5F8091AE028111DC
:1030500067C04C2D6091AC0280EB0E94D60CC092F0
:10306000AF02D11068C0E0E0F0E0EF2B09F4A1CD91
:103070000E9400009ECD8091C102882331F0909182
:10308000BF0221E092279093BF02C090C2029091AC
:10309000C00291110EC09091B302992321F08823B0
:1030A00011F0C11008C02091B2024FE76091B10247
:1030B0000FC08823D9F08091B3028823B9F06091C2
:1030C000B1022091B2021093C0021092B30240E00C
:1030D00080EB0E94D60CCC2031F08091C00291E0B0
:1030E00089278093C0020E944D0591CF2091B202A2
:1030F00040E0DCCF2091B20240E06091B00280EC71
:103100000E94D60C84CF8091C7028F5F8093C70244
:1031100090911701981708F07ACF1092C70277CFD5
:1031200040E06C2D80EC99CFDD2009F49CCF80919C
:10313000CC02811198CFED81E07F9E2EE093AB020F
:10314000FD81FF70AF2EF093AA02E092A9020093D6
:10315000A802C02ED12CC60123E0959587952A950B
:10316000E1F7282F2F70F22E2093A702802F87706F
:10317000882E8093A6029D819F3861F4013051F41E
:103180000093A50221E047E36AE080E80E94D60CA4
:103190000E941A0C8091A502882309F464CFE0E80C
:1031A0009E125FC00230D1F4A092AD02E092AC0258
:1031B0001092AE02809117018E1518F4E394E092FC
:1031C00017010E941A0C0E944D056093C80270936B
:1031D000C9028093CA029093CB0245CF0A3049F4CA
:1031E000A394A092B202E092B102F2E0F09319012E
:1031F000E8CF0B3079F481E0A11001C080E080932A
:10320000C102A1101093B30222E020931901109281
:10321000C002D7CF083249F4A394A092B202E09240
:10322000B00283E080931901CCCF0D3229F41093C2
:10323000AE02A092AD02C5CF023339F481E0A110F5
:1032400001C080E08093B802BCCF0F3151F581E01E
:10325000A11001C080E08093C20292E09093190116
:10326000D6CFE0EC9E120BC01092AE02EA94E09230
:103270001701F4E0F09319010E94C90AA2CF20EAD5
:103280009212B0C2882D90E0FC01E356FD4FA0825F
:10329000FC01EB56FD4FE08283579D4FFC01F0820D
:1032A000E8CF0E3119F4E0928C028BCF0E3639F450
:1032B0008091BF0221E082278093BF0282CF03303A
:1032C00009F07FCF80918B028F3F39F410938B02EE
:1032D00061E090E080E00E944B0D90911801809198
:1032E0001901913009F0D9C0823009F44FC0833000
:1032F00009F481C0813009F0A1C06091AD028CE376
:1033000090E00E944B0D6091AC028DE390E00E9432
:103310004B0D60918C028EE390E00E944B0D60910A
:103320008A0280E590E00E944B0D6091890281E560
:1033300090E00E944B0D6091880283E690E00E942D
:103340004B0D6091190182E390E00E944B0D60915A
:10335000BF028BE590E00E944B0D6091B8028CE5B6
:1033600090E00E944B0D6091AE0280E690E00E94DA
:103370004B0D6091C7028FE590E00E944B0D60916C
:10338000180181E290E00E944B0D1BCF6091B202C8
:1033900087E490E00E944B0D6091B10286E490E0DA
:1033A0000E944B0D6091AD028CE390E00E944B0DAA
:1033B0006091AC028DE390E00E944B0D60918C0215
:1033C0008EE390E00E944B0D6091C2028AE590E08E
:1033D0000E944B0D6091C1028DE590E00E944B0D63
:1033E0006091C0028EE590E00E944B0D6091BF029B
:1033F00081E690E0A4CF6091B20287E490E00E9461
:103400004B0D6091B00289E490E00E944B0D6091F9
:10341000AD028CE390E00E944B0D6091AC028DE315
:1034200090E00E944B0D60918C028EE390E00E9430
:103430004B0D6091C2028AE590E081CFFDE98F2EAD
:10344000F2E09F2EA5E9AA2EA2E0BA2EBDE8CB2E6F
:10345000B2E0DB2EEE24E394F12CF40161914F01F4
:10346000C7010E944B0DF50161915F01C7010896EC
:103470000E944B0DF60161916F01C70140960E94B9
:103480004B0DFFEFEF1AFF0A29E0E216F10429F7CE
:103490006091170184E690E052CF923009F0D1C0DC
:1034A000823009F447C0833009F479C0813009F0D3
:1034B00099C06091AD0280EA90E00E944B0D60914E
:1034C000AC0281EA90E00E944B0D60918C0282EA8E
:1034D00090E00E944B0D60918A0284EB90E00E9484
:1034E0004B0D6091890285EB90E00E944B0D60913D
:1034F000880287EC90E00E944B0D6091190186E9EB
:1035000090E00E944B0D6091BF028FEB90E00E9413
:103510004B0D6091B80280EC90E00E944B0D6091E1
:10352000AE0284EC90E00E944B0D6091C70283ECE8
:1035300090E023CF6091B2028BEA90E00E944B0DA5
:103540006091B1028AEA90E00E944B0D6091AD0259
:1035500080EA90E00E944B0D6091AC0281EA90E01D
:103560000E944B0D60918C0282EA90E00E944B0D0C
:103570006091C2028EEB90E00E944B0D6091C102FF
:1035800081EC90E00E944B0D6091C00282EC90E0D3
:103590000E944B0D6091BF0285EC90E0ACCF609132
:1035A000B2028BEA90E00E944B0D6091B0028DEA6E
:1035B00090E00E944B0D6091AD0280EA90E00E9485
:1035C0004B0D6091AC0281EA90E00E944B0D60913E
:1035D0008C0282EA90E00E944B0D6091C2028EEB59
:1035E00090E089CF5DE9C52E52E0D52E65E9A62E83
:1035F00062E0B62E7DE8872E72E0972EE5E6EE2E8D
:10360000F12CF60161916F01C7010E944B0DF5018C
:1036100061915F01C70108960E944B0DF401619111
:103620004F01C70140960E944B0DFFEFEF1AFF0AB2
:103630002DE6E216F10429F76091170188EC90E07D
:103640005ACF823009F447C0833009F479C0813001
:1036500009F099C06091AD0284E091E00E944B0DA9
:103660006091AC0285E091E00E944B0D60918C026C
:1036700086E091E00E944B0D60918A0288E191E022
:103680000E944B0D6091890289E191E00E944B0DEF
:10369000609188028BE291E00E944B0D60911901CC
:1036A0008AEF90E00E944B0D6091BF0283E291E0AF
:1036B0000E944B0D6091B80284E291E00E944B0D94
:1036C0006091AE0288E291E00E944B0D6091C702CA
:1036D00087E291E052CE6091B2028FE091E00E94C9
:1036E0004B0D6091B1028EE091E00E944B0D609114
:1036F000AD0284E091E00E944B0D6091AC0285E048
:1037000091E00E944B0D60918C0286E091E00E9456
:103710004B0D6091C20282E291E00E944B0D6091DC
:10372000C10285E291E00E944B0D6091C00286E2E9
:1037300091E00E944B0D6091BF0289E291E0ACCF15
:103740006091B2028FE091E00E944B0D6091B00257
:1037500081E191E00E944B0D6091AD0284E091E027
:103760000E944B0D6091AC0285E091E00E944B0DF0
:1037700060918C0286E091E00E944B0D6091C20244
:1037800082E291E089CF9DE9C92E92E0D92E25E908
:10379000A22E22E0B22E3DE8832E32E0932E49EC99
:1037A000E42EF12CF60161916F01C7010E944B0DCF
:1037B000F50161915F01C70108960E944B0DF4016C
:1037C00061914F01C70140960E944B0DFFEFEF1A28
:1037D000FF0A21EDE216F10429F7609117018CE24E
:1037E00091E05ACF80EE9812ECCCA0928802E09241
:1037F0008A02009389020E94390CD694DC2CCC24D6
:10380000D794C794CE28D092B502C092B402109338
:103810001901D7CCF999FECF92BD81BDF89A9927AD
:1038200080B50895262FF999FECF1FBA92BD81BDAC
:1038300020BD0FB6F894FA9AF99A0FBE0196089532
:10384000052E97FB1EF400940E94371C57FD07D0ED
:103850000E943F1C07FC03D04EF40C94371C50957B
:103860004095309521953F4F4F4F5F4F089590956C
:103870008095709561957F4F8F4F9F4F0895A1E27E
:103880001A2EAA1BBB1BFD010DC0AA1FBB1FEE1FDA
:10389000FF1FA217B307E407F50720F0A21BB30B25
:1038A000E40BF50B661F771F881F991F1A9469F7A1
:1038B00060957095809590959B01AC01BD01CF01FD
:1038C0000895A29FB001B39FC001A39F700D811DF9
:1038D0001124911DB29F700D811D1124911D089519
:1038E0005058BB27AA270E94881C0C94891D0E944F
:1038F0007B1D38F00E94821D20F039F49F3F19F49F
:1039000026F40C94781D0EF4E095E7FB0C94721DE0
:10391000E92F0E949A1D58F3BA17620773078407AC
:10392000950720F079F4A6F50C94BC1D0EF4E095F3
:103930000B2EBA2FA02D0B01B90190010C01CA0169
:10394000A0011124FF27591B99F0593F50F4503E14
:1039500068F11A16F040A22F232F342F4427585F06
:10396000F3CF469537952795A795F0405395C9F71E
:103970007EF41F16BA0B620B730B840BBAF09150D6
:10398000A1F0FF0FBB1F661F771F881FC2F70EC075
:10399000BA0F621F731F841F48F487957795679548
:1039A000B795F7959E3F08F0B0CF9395880F08F034
:1039B0009927EE0F9795879508950E944E1D08F45C
:1039C00081E008950E94A21D88F09F5798F0B92FBA
:1039D0009927B751B0F0E1F0660F771F881F991F44
:1039E0001AF0BA95C9F714C0B13091F00E94BC1D0D
:1039F000B1E008950C94BC1D672F782F8827B85F1D
:103A000039F0B93FCCF3869577956795B395D9F79B
:103A10003EF490958095709561957F4F8F4F9F4FA5
:103A20000895E89409C097FB3EF4909580957095B1
:103A300061957F4F8F4F9F4F9923A9F0F92F96E9FA
:103A4000BB279395F695879577956795B795F1116F
:103A5000F8CFFAF4BB0F11F460FF1BC06F5F7F4F0C
:103A60008F4F9F4F16C0882311F096E911C077231E
:103A700021F09EE8872F762F05C0662371F096E827
:103A8000862F70E060E02AF09A95660F771F881FF6
:103A9000DAF7880F9695879597F90895990F00089A
:103AA000550FAA0BE0E8FEEF16161706E807F90710
:103AB000C0F012161306E407F50798F0621B730BAB
:103AC000840B950B39F40A2661F0232B242B252B2C
:103AD00021F408950A2609F4A140A6958FEF811DCF
:103AE000811D089597F99F6780E870E060E0089570
:103AF0009FEF80EC089500240A9416161706180606
:103B00000906089500240A941216130614060506E1
:103B10000895092E0394000C11F4882352F0BB0F72
:103B200040F4BF2B11F460FF04C06F5F7F4F8F4FD5
:103B30009F4F089557FD9058440F551F59F05F3F10
:103B400071F04795880F97FB991F61F09F3F79F0BF
:103B500087950895121613061406551FF2CF469541
:103B6000F1DF08C0161617061806991FF1CF8695C3
:103B70007105610508940895E894BB2766277727A7
:103B8000CB0197F908950E944E1D08F48FEF089518
:103B90000E94DB1D0C94891D0E947B1D38F00E9441
:103BA000821D20F0952311F00C94721D0C94781D49
:103BB00011240C94BD1D0E949A1D70F3959FC1F3B2
:103BC000950F50E0551F629FF001729FBB27F00DCB
:103BD000B11D639FAA27F00DB11DAA1F649F662720
:103BE000B00DA11D661F829F2227B00DA11D621F6F
:103BF000739FB00DA11D621F839FA00D611D221F29
:103C0000749F3327A00D611D231F849F600D211D0C
:103C1000822F762F6A2F11249F5750409AF0F1F08F
:103C200088234AF0EE0FFF1FBB1F661F771F881FF8
:103C300091505040A9F79E3F510580F00C94721DA1
:103C40000C94BD1D5F3FE4F3983ED4F386957795C1
:103C50006795B795F795E7959F5FC1F7FE2B880F9E
:103C6000911D9695879597F90895AA1BBB1B51E165
:103C700007C0AA1FBB1FA617B70710F0A61BB70BDC
:103C8000881F991F5A95A9F780959095BC01CD0181
:103C90000895EE0FFF1F0590F491E02D09940E9406
:103CA000611C332312F48A1B9B0B0C94591E0E9437
:103CB000611CB7FF0895821B930B0895F894FFCF02
:103CC0000000803F00C18081000000FFFFFFFF0077
:103CD000E1000000000000070104000080089009D6
:103CE000A00AB00BC00CD00DE00E00000000D00701
:103CF000BA07E60763053508EB070D08000000006A
:103D000048084A084508410D000000001A099309B7
:103D100058093D09000000000A0ADE09C60AC50A62
:063D20004D49444900007A
:00000001FF
